{
  "contractName": "DiagnosticRegistration",
  "abi": [
    {
      "anonymous": false,
      "inputs": [
        {
          "indexed": true,
          "internalType": "address",
          "name": "diagnosticAddress",
          "type": "address"
        },
        {
          "indexed": false,
          "internalType": "string",
          "name": "diagnosticCenterName",
          "type": "string"
        }
      ],
      "name": "DiagnosticCenterRegistered",
      "type": "event"
    },
    {
      "inputs": [
        {
          "internalType": "address",
          "name": "_diagnosticAddress",
          "type": "address"
        },
        {
          "internalType": "string",
          "name": "_diagnosticCenterName",
          "type": "string"
        },
        {
          "internalType": "string",
          "name": "_phoneNumber",
          "type": "string"
        },
        {
          "internalType": "string",
          "name": "_personalAddress",
          "type": "string"
        },
        {
          "internalType": "string",
          "name": "_password",
          "type": "string"
        }
      ],
      "name": "registerDiagnostic",
      "outputs": [],
      "stateMutability": "nonpayable",
      "type": "function"
    },
    {
      "inputs": [
        {
          "internalType": "address",
          "name": "_diagnosticAddress",
          "type": "address"
        },
        {
          "internalType": "string",
          "name": "_password",
          "type": "string"
        }
      ],
      "name": "validateDiagnosticPassword",
      "outputs": [
        {
          "internalType": "bool",
          "name": "",
          "type": "bool"
        }
      ],
      "stateMutability": "view",
      "type": "function",
      "constant": true
    },
    {
      "inputs": [
        {
          "internalType": "address",
          "name": "_diagnosticAddress",
          "type": "address"
        }
      ],
      "name": "getDiagnosticCenterDetails",
      "outputs": [
        {
          "components": [
            {
              "internalType": "address",
              "name": "diagnosticAddress",
              "type": "address"
            },
            {
              "internalType": "string",
              "name": "diagnosticCenterName",
              "type": "string"
            },
            {
              "internalType": "string",
              "name": "phoneNumber",
              "type": "string"
            },
            {
              "internalType": "string",
              "name": "personalAddress",
              "type": "string"
            },
            {
              "internalType": "string",
              "name": "password",
              "type": "string"
            }
          ],
          "internalType": "struct DiagnosticRegistration.DiagnosticCenter",
          "name": "",
          "type": "tuple"
        }
      ],
      "stateMutability": "view",
      "type": "function",
      "constant": true
    },
    {
      "inputs": [
        {
          "internalType": "address",
          "name": "_diagnosticAddress",
          "type": "address"
        }
      ],
      "name": "isRegisteredDiagnostic",
      "outputs": [
        {
          "internalType": "bool",
          "name": "",
          "type": "bool"
        }
      ],
      "stateMutability": "view",
      "type": "function",
      "constant": true
    }
  ],
  "bytecode": "0x608060405234801561001057600080fd5b50611129806100206000396000f3fe608060405234801561001057600080fd5b506004361061004c5760003560e01c806313a451e2146100515780637407c3d614610081578063897b4972146100b1578063a9aff072146100e1575b600080fd5b61006b600480360381019061006691906107f5565b6100fd565b604051610078919061083d565b60405180910390f35b61009b6004803603810190610096919061099e565b610153565b6040516100a8919061083d565b60405180910390f35b6100cb60048036038101906100c691906107f5565b6101ec565b6040516100d89190610b13565b60405180910390f35b6100fb60048036038101906100f69190610b35565b6104e2565b005b6000600160008373ffffffffffffffffffffffffffffffffffffffff1673ffffffffffffffffffffffffffffffffffffffff16815260200190815260200160002060009054906101000a900460ff169050919050565b60008060008473ffffffffffffffffffffffffffffffffffffffff1673ffffffffffffffffffffffffffffffffffffffff1681526020019081526020016000206004016040516020016101a69190610d23565b60405160208183030381529060405280519060200120826040516020016101cd9190610d6b565b6040516020818303038152906040528051906020012014905092915050565b6101f461073e565b6000808373ffffffffffffffffffffffffffffffffffffffff1673ffffffffffffffffffffffffffffffffffffffff1681526020019081526020016000206040518060a00160405290816000820160009054906101000a900473ffffffffffffffffffffffffffffffffffffffff1673ffffffffffffffffffffffffffffffffffffffff1673ffffffffffffffffffffffffffffffffffffffff1681526020016001820180546102a390610c4f565b80601f01602080910402602001604051908101604052809291908181526020018280546102cf90610c4f565b801561031c5780601f106102f15761010080835404028352916020019161031c565b820191906000526020600020905b8154815290600101906020018083116102ff57829003601f168201915b5050505050815260200160028201805461033590610c4f565b80601f016020809104026020016040519081016040528092919081815260200182805461036190610c4f565b80156103ae5780601f10610383576101008083540402835291602001916103ae565b820191906000526020600020905b81548152906001019060200180831161039157829003601f168201915b505050505081526020016003820180546103c790610c4f565b80601f01602080910402602001604051908101604052809291908181526020018280546103f390610c4f565b80156104405780601f1061041557610100808354040283529160200191610440565b820191906000526020600020905b81548152906001019060200180831161042357829003601f168201915b5050505050815260200160048201805461045990610c4f565b80601f016020809104026020016040519081016040528092919081815260200182805461048590610c4f565b80156104d25780601f106104a7576101008083540402835291602001916104d2565b820191906000526020600020905b8154815290600101906020018083116104b557829003601f168201915b5050505050815250509050919050565b600160008673ffffffffffffffffffffffffffffffffffffffff1673ffffffffffffffffffffffffffffffffffffffff16815260200190815260200160002060009054906101000a900460ff161561056f576040517f08c379a000000000000000000000000000000000000000000000000000000000815260040161056690610e05565b60405180910390fd5b60006040518060a001604052808773ffffffffffffffffffffffffffffffffffffffff168152602001868152602001858152602001848152602001838152509050806000808873ffffffffffffffffffffffffffffffffffffffff1673ffffffffffffffffffffffffffffffffffffffff16815260200190815260200160002060008201518160000160006101000a81548173ffffffffffffffffffffffffffffffffffffffff021916908373ffffffffffffffffffffffffffffffffffffffff160217905550602082015181600101908161064b9190610fc6565b5060408201518160020190816106619190610fc6565b5060608201518160030190816106779190610fc6565b50608082015181600401908161068d9190610fc6565b5090505060018060008873ffffffffffffffffffffffffffffffffffffffff1673ffffffffffffffffffffffffffffffffffffffff16815260200190815260200160002060006101000a81548160ff0219169083151502179055508573ffffffffffffffffffffffffffffffffffffffff167f21c7a12bc08470531455a7bd824f8b494cba89967f9bc5e9096ef09d25c8ae798660405161072e91906110d1565b60405180910390a2505050505050565b6040518060a00160405280600073ffffffffffffffffffffffffffffffffffffffff168152602001606081526020016060815260200160608152602001606081525090565b6000604051905090565b600080fd5b600080fd5b600073ffffffffffffffffffffffffffffffffffffffff82169050919050565b60006107c282610797565b9050919050565b6107d2816107b7565b81146107dd57600080fd5b50565b6000813590506107ef816107c9565b92915050565b60006020828403121561080b5761080a61078d565b5b6000610819848285016107e0565b91505092915050565b60008115159050919050565b61083781610822565b82525050565b6000602082019050610852600083018461082e565b92915050565b600080fd5b600080fd5b6000601f19601f8301169050919050565b7f4e487b7100000000000000000000000000000000000000000000000000000000600052604160045260246000fd5b6108ab82610862565b810181811067ffffffffffffffff821117156108ca576108c9610873565b5b80604052505050565b60006108dd610783565b90506108e982826108a2565b919050565b600067ffffffffffffffff82111561090957610908610873565b5b61091282610862565b9050602081019050919050565b82818337600083830152505050565b600061094161093c846108ee565b6108d3565b90508281526020810184848401111561095d5761095c61085d565b5b61096884828561091f565b509392505050565b600082601f83011261098557610984610858565b5b813561099584826020860161092e565b91505092915050565b600080604083850312156109b5576109b461078d565b5b60006109c3858286016107e0565b925050602083013567ffffffffffffffff8111156109e4576109e3610792565b5b6109f085828601610970565b9150509250929050565b610a03816107b7565b82525050565b600081519050919050565b600082825260208201905092915050565b60005b83811015610a43578082015181840152602081019050610a28565b60008484015250505050565b6000610a5a82610a09565b610a648185610a14565b9350610a74818560208601610a25565b610a7d81610862565b840191505092915050565b600060a083016000830151610aa060008601826109fa565b5060208301518482036020860152610ab88282610a4f565b91505060408301518482036040860152610ad28282610a4f565b91505060608301518482036060860152610aec8282610a4f565b91505060808301518482036080860152610b068282610a4f565b9150508091505092915050565b60006020820190508181036000830152610b2d8184610a88565b905092915050565b600080600080600060a08688031215610b5157610b5061078d565b5b6000610b5f888289016107e0565b955050602086013567ffffffffffffffff811115610b8057610b7f610792565b5b610b8c88828901610970565b945050604086013567ffffffffffffffff811115610bad57610bac610792565b5b610bb988828901610970565b935050606086013567ffffffffffffffff811115610bda57610bd9610792565b5b610be688828901610970565b925050608086013567ffffffffffffffff811115610c0757610c06610792565b5b610c1388828901610970565b9150509295509295909350565b7f4e487b7100000000000000000000000000000000000000000000000000000000600052602260045260246000fd5b60006002820490506001821680610c6757607f821691505b602082108103610c7a57610c79610c20565b5b50919050565b600081905092915050565b60008190508160005260206000209050919050565b60008154610cad81610c4f565b610cb78186610c80565b94506001821660008114610cd25760018114610ce757610d1a565b60ff1983168652811515820286019350610d1a565b610cf085610c8b565b60005b83811015610d1257815481890152600182019150602081019050610cf3565b838801955050505b50505092915050565b6000610d2f8284610ca0565b915081905092915050565b6000610d4582610a09565b610d4f8185610c80565b9350610d5f818560208601610a25565b80840191505092915050565b6000610d778284610d3a565b915081905092915050565b600082825260208201905092915050565b7f446961676e6f737469632063656e74657220616c72656164792072656769737460008201527f6572656400000000000000000000000000000000000000000000000000000000602082015250565b6000610def602483610d82565b9150610dfa82610d93565b604082019050919050565b60006020820190508181036000830152610e1e81610de2565b9050919050565b60006020601f8301049050919050565b600082821b905092915050565b600060088302610e727fffffffffffffffffffffffffffffffffffffffffffffffffffffffffffffffff82610e35565b610e7c8683610e35565b95508019841693508086168417925050509392505050565b6000819050919050565b6000819050919050565b6000610ec3610ebe610eb984610e94565b610e9e565b610e94565b9050919050565b6000819050919050565b610edd83610ea8565b610ef1610ee982610eca565b848454610e42565b825550505050565b600090565b610f06610ef9565b610f11818484610ed4565b505050565b5b81811015610f3557610f2a600082610efe565b600181019050610f17565b5050565b601f821115610f7a57610f4b81610c8b565b610f5484610e25565b81016020851015610f63578190505b610f77610f6f85610e25565b830182610f16565b50505b505050565b600082821c905092915050565b6000610f9d60001984600802610f7f565b1980831691505092915050565b6000610fb68383610f8c565b9150826002028217905092915050565b610fcf82610a09565b67ffffffffffffffff811115610fe857610fe7610873565b5b610ff28254610c4f565b610ffd828285610f39565b600060209050601f831160018114611030576000841561101e578287015190505b6110288582610faa565b865550611090565b601f19841661103e86610c8b565b60005b8281101561106657848901518255600182019150602085019450602081019050611041565b86831015611083578489015161107f601f891682610f8c565b8355505b6001600288020188555050505b505050505050565b60006110a382610a09565b6110ad8185610d82565b93506110bd818560208601610a25565b6110c681610862565b840191505092915050565b600060208201905081810360008301526110eb8184611098565b90509291505056fea26469706673582212208df4a7e59358f12a8660f36746542b3b5b39a10558edc1bb9a30a436d1d6370e64736f6c63430008130033",
  "immutableReferences": {},
  "source": "// SPDX-License-Identifier: MIT\npragma solidity ^0.8.19;\n\ncontract DiagnosticRegistration {\n    struct DiagnosticCenter {\n        address diagnosticAddress;\n        string diagnosticCenterName;\n        string phoneNumber;\n        string personalAddress; // Renamed variable from 'address' to 'personalAddress'\n        string password;\n    }\n\n    mapping(address => DiagnosticCenter) private diagnosticCenters;\n    mapping(address => bool) private isDiagnosticCenterRegistered;\n\n    event DiagnosticCenterRegistered(address indexed diagnosticAddress, string diagnosticCenterName);\n\n    function registerDiagnostic(\n        address _diagnosticAddress,\n        string memory _diagnosticCenterName,\n        string memory _phoneNumber,\n        string memory _personalAddress, // Renamed variable from 'address' to 'personalAddress'\n        string memory _password\n    ) external {\n        require(!isDiagnosticCenterRegistered[_diagnosticAddress], \"Diagnostic center already registered\");\n\n        DiagnosticCenter memory newDiagnosticCenter = DiagnosticCenter({\n            diagnosticAddress: _diagnosticAddress,\n            diagnosticCenterName: _diagnosticCenterName,\n            phoneNumber: _phoneNumber,\n            personalAddress: _personalAddress, // Renamed variable from 'address' to 'personalAddress'\n            password: _password\n        });\n\n        diagnosticCenters[_diagnosticAddress] = newDiagnosticCenter;\n        isDiagnosticCenterRegistered[_diagnosticAddress] = true;\n\n        emit DiagnosticCenterRegistered(_diagnosticAddress, _diagnosticCenterName);\n    }\n\n    function validateDiagnosticPassword(address _diagnosticAddress, string memory _password) external view returns (bool) {\n        return keccak256(abi.encodePacked(_password)) == keccak256(abi.encodePacked(diagnosticCenters[_diagnosticAddress].password));\n    }\n\n    function getDiagnosticCenterDetails(address _diagnosticAddress) external view returns (DiagnosticCenter memory) {\n        return diagnosticCenters[_diagnosticAddress];\n    }\n\n    function isRegisteredDiagnostic(address _diagnosticAddress) external view returns (bool) {\n        return isDiagnosticCenterRegistered[_diagnosticAddress];\n    }\n}",
  "sourcePath": "/Users/sonupradhan/Desktop/EHR/src/contracts/DiagnosticRegistration.sol",
  "compiler": {
    "name": "solc",
    "version": "0.8.19+commit.7dd6d404.Emscripten.clang"
  },
  "schemaVersion": "3.4.16",
  "updatedAt": "2024-04-21T16:18:36.108Z",
  "networkType": "ethereum",
  "devdoc": {
    "kind": "dev",
    "methods": {},
    "version": 1
  },
  "userdoc": {
    "kind": "user",
    "methods": {},
    "version": 1
  }
}