{
  "contractName": "DiagnosticRegistration",
  "abi": [
    {
      "anonymous": false,
      "inputs": [
        {
          "indexed": false,
          "internalType": "string",
          "name": "phoneNumber",
          "type": "string"
        },
        {
          "indexed": false,
          "internalType": "string",
          "name": "diagnosticName",
          "type": "string"
        },
        {
          "indexed": false,
          "internalType": "address",
          "name": "walletAddress",
          "type": "address"
        }
      ],
      "name": "DiagnosticRegistered",
      "type": "event"
    },
    {
      "inputs": [
        {
          "internalType": "string",
          "name": "_diagnosticName",
          "type": "string"
        },
        {
          "internalType": "string",
          "name": "_hospitalName",
          "type": "string"
        },
        {
          "internalType": "string",
          "name": "_diagnosticLocation",
          "type": "string"
        },
        {
          "internalType": "string",
          "name": "_email",
          "type": "string"
        },
        {
          "internalType": "string",
          "name": "_phoneNumber",
          "type": "string"
        },
        {
          "internalType": "string",
          "name": "_password",
          "type": "string"
        }
      ],
      "name": "registerDiagnostic",
      "outputs": [],
      "stateMutability": "nonpayable",
      "type": "function"
    },
    {
      "inputs": [
        {
          "internalType": "string",
          "name": "_phoneNumber",
          "type": "string"
        }
      ],
      "name": "isRegisteredDiagnostic",
      "outputs": [
        {
          "internalType": "bool",
          "name": "",
          "type": "bool"
        }
      ],
      "stateMutability": "view",
      "type": "function",
      "constant": true
    },
    {
      "inputs": [
        {
          "internalType": "string",
          "name": "_phoneNumber",
          "type": "string"
        }
      ],
      "name": "getDiagnosticDetails",
      "outputs": [
        {
          "internalType": "address",
          "name": "_walletAddress",
          "type": "address"
        },
        {
          "internalType": "string",
          "name": "_diagnosticName",
          "type": "string"
        },
        {
          "internalType": "string",
          "name": "_hospitalName",
          "type": "string"
        },
        {
          "internalType": "string",
          "name": "_diagnosticLocation",
          "type": "string"
        },
        {
          "internalType": "string",
          "name": "_email",
          "type": "string"
        }
      ],
      "stateMutability": "view",
      "type": "function",
      "constant": true
    },
    {
      "inputs": [
        {
          "internalType": "string",
          "name": "_phoneNumber",
          "type": "string"
        },
        {
          "internalType": "string",
          "name": "_password",
          "type": "string"
        }
      ],
      "name": "validatePassword",
      "outputs": [
        {
          "internalType": "bool",
          "name": "",
          "type": "bool"
        }
      ],
      "stateMutability": "view",
      "type": "function",
      "constant": true
    }
  ],
  "bytecode": "0x608060405234801561001057600080fd5b506113d3806100206000396000f3fe608060405234801561001057600080fd5b506004361061004c5760003560e01c80631462b5a81461005157806325b4c9c71461006d5780637babdb26146100a1578063cf9ff022146100d1575b600080fd5b61006b60048036038101906100669190610b50565b610101565b005b61008760048036038101906100829190610c85565b610389565b604051610098959493929190610d8e565b60405180910390f35b6100bb60048036038101906100b69190610dfd565b61085a565b6040516100c89190610e90565b60405180910390f35b6100eb60048036038101906100e69190610c85565b61097f565b6040516100f89190610e90565b60405180910390f35b600073ffffffffffffffffffffffffffffffffffffffff166000836040516101299190610ee7565b908152602001604051809103902060009054906101000a900473ffffffffffffffffffffffffffffffffffffffff1673ffffffffffffffffffffffffffffffffffffffff16146101ae576040517f08c379a00000000000000000000000000000000000000000000000000000000081526004016101a590610f4a565b60405180910390fd5b60006040518060e001604052803373ffffffffffffffffffffffffffffffffffffffff1681526020018881526020018781526020018681526020018581526020018481526020018381525090508060018460405161020c9190610ee7565b908152602001604051809103902060008201518160000160006101000a81548173ffffffffffffffffffffffffffffffffffffffff021916908373ffffffffffffffffffffffffffffffffffffffff16021790555060208201518160010190816102769190611180565b50604082015181600201908161028c9190611180565b5060608201518160030190816102a29190611180565b5060808201518160040190816102b89190611180565b5060a08201518160050190816102ce9190611180565b5060c08201518160060190816102e49190611180565b50905050336000846040516102f99190610ee7565b908152602001604051809103902060006101000a81548173ffffffffffffffffffffffffffffffffffffffff021916908373ffffffffffffffffffffffffffffffffffffffff1602179055507f018b729007b12778ed503e400556113a91191a1cd9f17a22387db8e25fa67d5583883360405161037893929190611252565b60405180910390a150505050505050565b6000606080606080600073ffffffffffffffffffffffffffffffffffffffff166000876040516103b99190610ee7565b908152602001604051809103902060009054906101000a900473ffffffffffffffffffffffffffffffffffffffff1673ffffffffffffffffffffffffffffffffffffffff160361043e576040517f08c379a0000000000000000000000000000000000000000000000000000000008152600401610435906112e3565b60405180910390fd5b60006001876040516104509190610ee7565b90815260200160405180910390206040518060e00160405290816000820160009054906101000a900473ffffffffffffffffffffffffffffffffffffffff1673ffffffffffffffffffffffffffffffffffffffff1673ffffffffffffffffffffffffffffffffffffffff1681526020016001820180546104cf90610f99565b80601f01602080910402602001604051908101604052809291908181526020018280546104fb90610f99565b80156105485780601f1061051d57610100808354040283529160200191610548565b820191906000526020600020905b81548152906001019060200180831161052b57829003601f168201915b5050505050815260200160028201805461056190610f99565b80601f016020809104026020016040519081016040528092919081815260200182805461058d90610f99565b80156105da5780601f106105af576101008083540402835291602001916105da565b820191906000526020600020905b8154815290600101906020018083116105bd57829003601f168201915b505050505081526020016003820180546105f390610f99565b80601f016020809104026020016040519081016040528092919081815260200182805461061f90610f99565b801561066c5780601f106106415761010080835404028352916020019161066c565b820191906000526020600020905b81548152906001019060200180831161064f57829003601f168201915b5050505050815260200160048201805461068590610f99565b80601f01602080910402602001604051908101604052809291908181526020018280546106b190610f99565b80156106fe5780601f106106d3576101008083540402835291602001916106fe565b820191906000526020600020905b8154815290600101906020018083116106e157829003601f168201915b5050505050815260200160058201805461071790610f99565b80601f016020809104026020016040519081016040528092919081815260200182805461074390610f99565b80156107905780601f1061076557610100808354040283529160200191610790565b820191906000526020600020905b81548152906001019060200180831161077357829003601f168201915b505050505081526020016006820180546107a990610f99565b80601f01602080910402602001604051908101604052809291908181526020018280546107d590610f99565b80156108225780601f106107f757610100808354040283529160200191610822565b820191906000526020600020905b81548152906001019060200180831161080557829003601f168201915b505050505081525050905080600001518160200151826040015183606001518460800151955095509550955095505091939590929450565b60008073ffffffffffffffffffffffffffffffffffffffff166000846040516108839190610ee7565b908152602001604051809103902060009054906101000a900473ffffffffffffffffffffffffffffffffffffffff1673ffffffffffffffffffffffffffffffffffffffff1603610908576040517f08c379a00000000000000000000000000000000000000000000000000000000081526004016108ff906112e3565b60405180910390fd5b6001836040516109189190610ee7565b90815260200160405180910390206006016040516020016109399190611386565b60405160208183030381529060405280519060200120826040516020016109609190610ee7565b6040516020818303038152906040528051906020012014905092915050565b60008073ffffffffffffffffffffffffffffffffffffffff166000836040516109a89190610ee7565b908152602001604051809103902060009054906101000a900473ffffffffffffffffffffffffffffffffffffffff1673ffffffffffffffffffffffffffffffffffffffff1614159050919050565b6000604051905090565b600080fd5b600080fd5b600080fd5b600080fd5b6000601f19601f8301169050919050565b7f4e487b7100000000000000000000000000000000000000000000000000000000600052604160045260246000fd5b610a5d82610a14565b810181811067ffffffffffffffff82111715610a7c57610a7b610a25565b5b80604052505050565b6000610a8f6109f6565b9050610a9b8282610a54565b919050565b600067ffffffffffffffff821115610abb57610aba610a25565b5b610ac482610a14565b9050602081019050919050565b82818337600083830152505050565b6000610af3610aee84610aa0565b610a85565b905082815260208101848484011115610b0f57610b0e610a0f565b5b610b1a848285610ad1565b509392505050565b600082601f830112610b3757610b36610a0a565b5b8135610b47848260208601610ae0565b91505092915050565b60008060008060008060c08789031215610b6d57610b6c610a00565b5b600087013567ffffffffffffffff811115610b8b57610b8a610a05565b5b610b9789828a01610b22565b965050602087013567ffffffffffffffff811115610bb857610bb7610a05565b5b610bc489828a01610b22565b955050604087013567ffffffffffffffff811115610be557610be4610a05565b5b610bf189828a01610b22565b945050606087013567ffffffffffffffff811115610c1257610c11610a05565b5b610c1e89828a01610b22565b935050608087013567ffffffffffffffff811115610c3f57610c3e610a05565b5b610c4b89828a01610b22565b92505060a087013567ffffffffffffffff811115610c6c57610c6b610a05565b5b610c7889828a01610b22565b9150509295509295509295565b600060208284031215610c9b57610c9a610a00565b5b600082013567ffffffffffffffff811115610cb957610cb8610a05565b5b610cc584828501610b22565b91505092915050565b600073ffffffffffffffffffffffffffffffffffffffff82169050919050565b6000610cf982610cce565b9050919050565b610d0981610cee565b82525050565b600081519050919050565b600082825260208201905092915050565b60005b83811015610d49578082015181840152602081019050610d2e565b60008484015250505050565b6000610d6082610d0f565b610d6a8185610d1a565b9350610d7a818560208601610d2b565b610d8381610a14565b840191505092915050565b600060a082019050610da36000830188610d00565b8181036020830152610db58187610d55565b90508181036040830152610dc98186610d55565b90508181036060830152610ddd8185610d55565b90508181036080830152610df18184610d55565b90509695505050505050565b60008060408385031215610e1457610e13610a00565b5b600083013567ffffffffffffffff811115610e3257610e31610a05565b5b610e3e85828601610b22565b925050602083013567ffffffffffffffff811115610e5f57610e5e610a05565b5b610e6b85828601610b22565b9150509250929050565b60008115159050919050565b610e8a81610e75565b82525050565b6000602082019050610ea56000830184610e81565b92915050565b600081905092915050565b6000610ec182610d0f565b610ecb8185610eab565b9350610edb818560208601610d2b565b80840191505092915050565b6000610ef38284610eb6565b915081905092915050565b7f446961676e6f7374696320616c72656164792072656769737465726564000000600082015250565b6000610f34601d83610d1a565b9150610f3f82610efe565b602082019050919050565b60006020820190508181036000830152610f6381610f27565b9050919050565b7f4e487b7100000000000000000000000000000000000000000000000000000000600052602260045260246000fd5b60006002820490506001821680610fb157607f821691505b602082108103610fc457610fc3610f6a565b5b50919050565b60008190508160005260206000209050919050565b60006020601f8301049050919050565b600082821b905092915050565b60006008830261102c7fffffffffffffffffffffffffffffffffffffffffffffffffffffffffffffffff82610fef565b6110368683610fef565b95508019841693508086168417925050509392505050565b6000819050919050565b6000819050919050565b600061107d6110786110738461104e565b611058565b61104e565b9050919050565b6000819050919050565b61109783611062565b6110ab6110a382611084565b848454610ffc565b825550505050565b600090565b6110c06110b3565b6110cb81848461108e565b505050565b5b818110156110ef576110e46000826110b8565b6001810190506110d1565b5050565b601f8211156111345761110581610fca565b61110e84610fdf565b8101602085101561111d578190505b61113161112985610fdf565b8301826110d0565b50505b505050565b600082821c905092915050565b600061115760001984600802611139565b1980831691505092915050565b60006111708383611146565b9150826002028217905092915050565b61118982610d0f565b67ffffffffffffffff8111156111a2576111a1610a25565b5b6111ac8254610f99565b6111b78282856110f3565b600060209050601f8311600181146111ea57600084156111d8578287015190505b6111e28582611164565b86555061124a565b601f1984166111f886610fca565b60005b82811015611220578489015182556001820191506020850194506020810190506111fb565b8683101561123d5784890151611239601f891682611146565b8355505b6001600288020188555050505b505050505050565b6000606082019050818103600083015261126c8186610d55565b905081810360208301526112808185610d55565b905061128f6040830184610d00565b949350505050565b7f446961676e6f73746963206e6f74207265676973746572656400000000000000600082015250565b60006112cd601983610d1a565b91506112d882611297565b602082019050919050565b600060208201905081810360008301526112fc816112c0565b9050919050565b6000815461131081610f99565b61131a8186610eab565b94506001821660008114611335576001811461134a5761137d565b60ff198316865281151582028601935061137d565b61135385610fca565b60005b8381101561137557815481890152600182019150602081019050611356565b838801955050505b50505092915050565b60006113928284611303565b91508190509291505056fea264697066735822122008a71b7f95de1bf82d520e07b9c9ffd4cee5aec0dd0e80d8233d57f0f9d781a064736f6c63430008130033",
  "immutableReferences": {},
  "source": "// SPDX-License-Identifier: MIT\r\npragma solidity ^0.8.19;\r\n\r\ncontract DiagnosticRegistration {\r\n    struct Diagnostic {\r\n        address walletAddress;\r\n        string diagnosticName;\r\n        string hospitalName;\r\n        string diagnosticLocation;\r\n        string email;\r\n        string phoneNumber;\r\n        string password;\r\n    }\r\n\r\n    mapping(string => address) private diagnosticAddresses;\r\n    mapping(string => Diagnostic) private diagnostics;\r\n\r\n    event DiagnosticRegistered(string phoneNumber, string diagnosticName, address walletAddress);\r\n\r\n    function registerDiagnostic(\r\n        string memory _diagnosticName,\r\n        string memory _hospitalName,\r\n        string memory _diagnosticLocation,\r\n        string memory _email,\r\n        string memory _phoneNumber,\r\n        string memory _password\r\n    ) external {\r\n        require(diagnosticAddresses[_phoneNumber] == address(0), \"Diagnostic already registered\");\r\n\r\n        Diagnostic memory newDiagnostic = Diagnostic({\r\n            walletAddress: msg.sender,\r\n            diagnosticName: _diagnosticName,\r\n            hospitalName: _hospitalName,\r\n            diagnosticLocation: _diagnosticLocation,\r\n            email: _email,\r\n            phoneNumber: _phoneNumber,\r\n            password: _password\r\n        });\r\n\r\n        diagnostics[_phoneNumber] = newDiagnostic;\r\n        diagnosticAddresses[_phoneNumber] = msg.sender;\r\n        emit DiagnosticRegistered(_phoneNumber, _diagnosticName, msg.sender);\r\n    }\r\n\r\n    function isRegisteredDiagnostic(string memory _phoneNumber) external view returns (bool) {\r\n        return diagnosticAddresses[_phoneNumber] != address(0);\r\n    }\r\n\r\n    function getDiagnosticDetails(string memory _phoneNumber) external view returns (\r\n        address _walletAddress,\r\n        string memory _diagnosticName,\r\n        string memory _hospitalName,\r\n        string memory _diagnosticLocation,\r\n        string memory _email\r\n    ) {\r\n        require(diagnosticAddresses[_phoneNumber] != address(0), \"Diagnostic not registered\");\r\n        Diagnostic memory diagnostic = diagnostics[_phoneNumber];\r\n        return (\r\n            diagnostic.walletAddress,\r\n            diagnostic.diagnosticName,\r\n            diagnostic.hospitalName,\r\n            diagnostic.diagnosticLocation,\r\n            diagnostic.email\r\n        );\r\n    }\r\n\r\n    function validatePassword(string memory _phoneNumber, string memory _password) external view returns (bool) {\r\n        require(diagnosticAddresses[_phoneNumber] != address(0), \"Diagnostic not registered\");\r\n        return keccak256(abi.encodePacked(_password)) == keccak256(abi.encodePacked(diagnostics[_phoneNumber].password));\r\n    }\r\n}\r\n",
  "sourcePath": "D:\\LY Project\\EHR_management_using_blockchain\\src\\contracts\\DiagnosticRegistration.sol",
  "compiler": {
    "name": "solc",
    "version": "0.8.19+commit.7dd6d404.Emscripten.clang"
  },
  "schemaVersion": "3.4.16",
  "updatedAt": "2024-04-27T04:38:21.017Z",
  "networkType": "ethereum",
  "devdoc": {
    "kind": "dev",
    "methods": {},
    "version": 1
  },
  "userdoc": {
    "kind": "user",
    "methods": {},
    "version": 1
  }
}