{
  "contractName": "DiagnosticForm",
  "abi": [
    {
      "inputs": [
        {
          "internalType": "string",
          "name": "_recordId",
          "type": "string"
        },
        {
          "internalType": "string",
          "name": "_doctorName",
          "type": "string"
        },
        {
          "internalType": "string",
          "name": "_patientName",
          "type": "string"
        },
        {
          "internalType": "uint256",
          "name": "_age",
          "type": "uint256"
        },
        {
          "internalType": "string",
          "name": "_gender",
          "type": "string"
        },
        {
          "internalType": "string",
          "name": "_bloodGroup",
          "type": "string"
        },
        {
          "internalType": "address",
          "name": "_diagnosticAddress",
          "type": "address"
        },
        {
          "internalType": "address",
          "name": "_patientAddress",
          "type": "address"
        },
        {
          "internalType": "string",
          "name": "_cid",
          "type": "string"
        }
      ],
      "name": "createEHR",
      "outputs": [],
      "stateMutability": "nonpayable",
      "type": "function"
    },
    {
      "inputs": [],
      "name": "getRecords",
      "outputs": [
        {
          "components": [
            {
              "internalType": "string",
              "name": "recordId",
              "type": "string"
            },
            {
              "internalType": "string",
              "name": "doctorName",
              "type": "string"
            },
            {
              "internalType": "string",
              "name": "patientName",
              "type": "string"
            },
            {
              "internalType": "uint256",
              "name": "age",
              "type": "uint256"
            },
            {
              "internalType": "string",
              "name": "gender",
              "type": "string"
            },
            {
              "internalType": "string",
              "name": "bloodGroup",
              "type": "string"
            },
            {
              "internalType": "address",
              "name": "diagnosticAddress",
              "type": "address"
            },
            {
              "internalType": "address",
              "name": "patientAddress",
              "type": "address"
            },
            {
              "internalType": "string",
              "name": "cid",
              "type": "string"
            }
          ],
          "internalType": "struct DiagnosticForm.Record[]",
          "name": "",
          "type": "tuple[]"
        }
      ],
      "stateMutability": "view",
      "type": "function",
      "constant": true
    }
  ],
  "bytecode": "0x608060405234801561001057600080fd5b50611013806100206000396000f3fe608060405234801561001057600080fd5b50600436106100365760003560e01c80638eff3c291461003b5780639ff606f414610059575b600080fd5b610043610075565b60405161005091906109ca565b60405180910390f35b610073600480360381019061006e9190610b8d565b610533565b005b60606000803373ffffffffffffffffffffffffffffffffffffffff1673ffffffffffffffffffffffffffffffffffffffff168152602001908152602001600020805480602002602001604051908101604052809291908181526020016000905b8282101561052a57838290600052602060002090600902016040518061012001604052908160008201805461010990610d2e565b80601f016020809104026020016040519081016040528092919081815260200182805461013590610d2e565b80156101825780601f1061015757610100808354040283529160200191610182565b820191906000526020600020905b81548152906001019060200180831161016557829003601f168201915b5050505050815260200160018201805461019b90610d2e565b80601f01602080910402602001604051908101604052809291908181526020018280546101c790610d2e565b80156102145780601f106101e957610100808354040283529160200191610214565b820191906000526020600020905b8154815290600101906020018083116101f757829003601f168201915b5050505050815260200160028201805461022d90610d2e565b80601f016020809104026020016040519081016040528092919081815260200182805461025990610d2e565b80156102a65780601f1061027b576101008083540402835291602001916102a6565b820191906000526020600020905b81548152906001019060200180831161028957829003601f168201915b50505050508152602001600382015481526020016004820180546102c990610d2e565b80601f01602080910402602001604051908101604052809291908181526020018280546102f590610d2e565b80156103425780601f1061031757610100808354040283529160200191610342565b820191906000526020600020905b81548152906001019060200180831161032557829003601f168201915b5050505050815260200160058201805461035b90610d2e565b80601f016020809104026020016040519081016040528092919081815260200182805461038790610d2e565b80156103d45780601f106103a9576101008083540402835291602001916103d4565b820191906000526020600020905b8154815290600101906020018083116103b757829003601f168201915b505050505081526020016006820160009054906101000a900473ffffffffffffffffffffffffffffffffffffffff1673ffffffffffffffffffffffffffffffffffffffff1673ffffffffffffffffffffffffffffffffffffffff1681526020016007820160009054906101000a900473ffffffffffffffffffffffffffffffffffffffff1673ffffffffffffffffffffffffffffffffffffffff1673ffffffffffffffffffffffffffffffffffffffff16815260200160088201805461049990610d2e565b80601f01602080910402602001604051908101604052809291908181526020018280546104c590610d2e565b80156105125780601f106104e757610100808354040283529160200191610512565b820191906000526020600020905b8154815290600101906020018083116104f557829003601f168201915b505050505081525050815260200190600101906100d5565b50505050905090565b60006040518061012001604052808b81526020018a81526020018981526020018881526020018781526020018681526020018573ffffffffffffffffffffffffffffffffffffffff1681526020018473ffffffffffffffffffffffffffffffffffffffff1681526020018381525090506000803373ffffffffffffffffffffffffffffffffffffffff1673ffffffffffffffffffffffffffffffffffffffff16815260200190815260200160002081908060018154018082558091505060019003906000526020600020906009020160009091909190915060008201518160000190816106209190610f0b565b5060208201518160010190816106369190610f0b565b50604082015181600201908161064c9190610f0b565b5060608201518160030155608082015181600401908161066c9190610f0b565b5060a08201518160050190816106829190610f0b565b5060c08201518160060160006101000a81548173ffffffffffffffffffffffffffffffffffffffff021916908373ffffffffffffffffffffffffffffffffffffffff16021790555060e08201518160070160006101000a81548173ffffffffffffffffffffffffffffffffffffffff021916908373ffffffffffffffffffffffffffffffffffffffff1602179055506101008201518160080190816107279190610f0b565b50505050505050505050505050565b600081519050919050565b600082825260208201905092915050565b6000819050602082019050919050565b600081519050919050565b600082825260208201905092915050565b60005b8381101561079c578082015181840152602081019050610781565b60008484015250505050565b6000601f19601f8301169050919050565b60006107c482610762565b6107ce818561076d565b93506107de81856020860161077e565b6107e7816107a8565b840191505092915050565b6000819050919050565b610805816107f2565b82525050565b600073ffffffffffffffffffffffffffffffffffffffff82169050919050565b60006108368261080b565b9050919050565b6108468161082b565b82525050565b600061012083016000830151848203600086015261086a82826107b9565b9150506020830151848203602086015261088482826107b9565b9150506040830151848203604086015261089e82826107b9565b91505060608301516108b360608601826107fc565b50608083015184820360808601526108cb82826107b9565b91505060a083015184820360a08601526108e582826107b9565b91505060c08301516108fa60c086018261083d565b5060e083015161090d60e086018261083d565b5061010083015184820361010086015261092782826107b9565b9150508091505092915050565b6000610940838361084c565b905092915050565b6000602082019050919050565b600061096082610736565b61096a8185610741565b93508360208202850161097c85610752565b8060005b858110156109b857848403895281516109998582610934565b94506109a483610948565b925060208a01995050600181019050610980565b50829750879550505050505092915050565b600060208201905081810360008301526109e48184610955565b905092915050565b6000604051905090565b600080fd5b600080fd5b600080fd5b600080fd5b7f4e487b7100000000000000000000000000000000000000000000000000000000600052604160045260246000fd5b610a42826107a8565b810181811067ffffffffffffffff82111715610a6157610a60610a0a565b5b80604052505050565b6000610a746109ec565b9050610a808282610a39565b919050565b600067ffffffffffffffff821115610aa057610a9f610a0a565b5b610aa9826107a8565b9050602081019050919050565b82818337600083830152505050565b6000610ad8610ad384610a85565b610a6a565b905082815260208101848484011115610af457610af3610a05565b5b610aff848285610ab6565b509392505050565b600082601f830112610b1c57610b1b610a00565b5b8135610b2c848260208601610ac5565b91505092915050565b610b3e816107f2565b8114610b4957600080fd5b50565b600081359050610b5b81610b35565b92915050565b610b6a8161082b565b8114610b7557600080fd5b50565b600081359050610b8781610b61565b92915050565b60008060008060008060008060006101208a8c031215610bb057610baf6109f6565b5b60008a013567ffffffffffffffff811115610bce57610bcd6109fb565b5b610bda8c828d01610b07565b99505060208a013567ffffffffffffffff811115610bfb57610bfa6109fb565b5b610c078c828d01610b07565b98505060408a013567ffffffffffffffff811115610c2857610c276109fb565b5b610c348c828d01610b07565b9750506060610c458c828d01610b4c565b96505060808a013567ffffffffffffffff811115610c6657610c656109fb565b5b610c728c828d01610b07565b95505060a08a013567ffffffffffffffff811115610c9357610c926109fb565b5b610c9f8c828d01610b07565b94505060c0610cb08c828d01610b78565b93505060e0610cc18c828d01610b78565b9250506101008a013567ffffffffffffffff811115610ce357610ce26109fb565b5b610cef8c828d01610b07565b9150509295985092959850929598565b7f4e487b7100000000000000000000000000000000000000000000000000000000600052602260045260246000fd5b60006002820490506001821680610d4657607f821691505b602082108103610d5957610d58610cff565b5b50919050565b60008190508160005260206000209050919050565b60006020601f8301049050919050565b600082821b905092915050565b600060088302610dc17fffffffffffffffffffffffffffffffffffffffffffffffffffffffffffffffff82610d84565b610dcb8683610d84565b95508019841693508086168417925050509392505050565b6000819050919050565b6000610e08610e03610dfe846107f2565b610de3565b6107f2565b9050919050565b6000819050919050565b610e2283610ded565b610e36610e2e82610e0f565b848454610d91565b825550505050565b600090565b610e4b610e3e565b610e56818484610e19565b505050565b5b81811015610e7a57610e6f600082610e43565b600181019050610e5c565b5050565b601f821115610ebf57610e9081610d5f565b610e9984610d74565b81016020851015610ea8578190505b610ebc610eb485610d74565b830182610e5b565b50505b505050565b600082821c905092915050565b6000610ee260001984600802610ec4565b1980831691505092915050565b6000610efb8383610ed1565b9150826002028217905092915050565b610f1482610762565b67ffffffffffffffff811115610f2d57610f2c610a0a565b5b610f378254610d2e565b610f42828285610e7e565b600060209050601f831160018114610f755760008415610f63578287015190505b610f6d8582610eef565b865550610fd5565b601f198416610f8386610d5f565b60005b82811015610fab57848901518255600182019150602085019450602081019050610f86565b86831015610fc85784890151610fc4601f891682610ed1565b8355505b6001600288020188555050505b50505050505056fea26469706673582212201c352244359dd2119bc3da2f7416048dda630807ce4dc3979fb53e28e4066b2964736f6c63430008130033",
  "immutableReferences": {},
  "source": "// SPDX-License-Identifier: MIT\r\npragma solidity ^0.8.19;\r\n\r\ncontract DiagnosticForm {\r\n    struct Record {\r\n        string recordId;\r\n        string doctorName;\r\n        string patientName;\r\n        uint256 age;\r\n        string gender;\r\n        string bloodGroup;\r\n        address diagnosticAddress;\r\n        address patientAddress;\r\n        string cid;\r\n    }\r\n    mapping(address => Record[]) private records;\r\n\r\n    function createEHR(\r\n        string memory _recordId,\r\n        string memory _doctorName,\r\n        string memory _patientName,\r\n        uint256 _age,\r\n        string memory _gender,\r\n        string memory _bloodGroup,\r\n        address _diagnosticAddress,\r\n        address _patientAddress,\r\n        string memory _cid\r\n    ) public {\r\n        Record memory newRecord = Record(\r\n            _recordId,\r\n            _doctorName,\r\n            _patientName,\r\n            _age,\r\n            _gender,\r\n            _bloodGroup,\r\n            _diagnosticAddress,\r\n            _patientAddress,\r\n            _cid\r\n        );\r\n        records[msg.sender].push(newRecord);\r\n    }\r\n\r\n    function getRecords() public view returns (Record[] memory) {\r\n        return records[msg.sender];\r\n    }\r\n}\r\n",
  "sourcePath": "/Users/sonupradhan/Desktop/EHR/src/contracts/DiagnosticForm.sol",
  "compiler": {
    "name": "solc",
    "version": "0.8.19+commit.7dd6d404.Emscripten.clang"
  },
  "schemaVersion": "3.4.16",
  "updatedAt": "2024-05-25T15:28:18.692Z",
  "networkType": "ethereum",
  "devdoc": {
    "kind": "dev",
    "methods": {},
    "version": 1
  },
  "userdoc": {
    "kind": "user",
    "methods": {},
    "version": 1
  }
}