{
  "contractName": "DoctorForm",
  "abi": [
    {
      "inputs": [
        {
          "internalType": "string",
          "name": "_recordId",
          "type": "string"
        },
        {
          "internalType": "string",
          "name": "_patientName",
          "type": "string"
        },
        {
          "internalType": "address",
          "name": "_patientAddress",
          "type": "address"
        },
        {
          "internalType": "string",
          "name": "_gender",
          "type": "string"
        },
        {
          "internalType": "string",
          "name": "_diagnosis",
          "type": "string"
        },
        {
          "internalType": "string",
          "name": "_prescription",
          "type": "string"
        }
      ],
      "name": "createEHR",
      "outputs": [],
      "stateMutability": "nonpayable",
      "type": "function"
    },
    {
      "inputs": [],
      "name": "getRecords",
      "outputs": [
        {
          "components": [
            {
              "internalType": "string",
              "name": "recordId",
              "type": "string"
            },
            {
              "internalType": "string",
              "name": "patientName",
              "type": "string"
            },
            {
              "internalType": "address",
              "name": "patientAddress",
              "type": "address"
            },
            {
              "internalType": "string",
              "name": "gender",
              "type": "string"
            },
            {
              "internalType": "string",
              "name": "diagnosis",
              "type": "string"
            },
            {
              "internalType": "string",
              "name": "prescription",
              "type": "string"
            }
          ],
          "internalType": "struct DoctorForm.Record[]",
          "name": "",
          "type": "tuple[]"
        }
      ],
      "stateMutability": "view",
      "type": "function"
    }
  ],
  "bytecode": "0x608060405234801561001057600080fd5b50610db5806100206000396000f3fe608060405234801561001057600080fd5b50600436106100365760003560e01c806343a899c51461003b5780638eff3c2914610057575b600080fd5b61005560048036038101906100509190610767565b610075565b005b61005f6101e4565b60405161006c9190610a75565b60405180910390f35b60006040518060c001604052808881526020018781526020018673ffffffffffffffffffffffffffffffffffffffff1681526020018581526020018481526020018381525090506000803373ffffffffffffffffffffffffffffffffffffffff1673ffffffffffffffffffffffffffffffffffffffff16815260200190815260200160002081908060018154018082558091505060019003906000526020600020906006020160009091909190915060008201518160000190816101399190610cad565b50602082015181600101908161014f9190610cad565b5060408201518160020160006101000a81548173ffffffffffffffffffffffffffffffffffffffff021916908373ffffffffffffffffffffffffffffffffffffffff16021790555060608201518160030190816101ac9190610cad565b5060808201518160040190816101c29190610cad565b5060a08201518160050190816101d89190610cad565b50505050505050505050565b60606000803373ffffffffffffffffffffffffffffffffffffffff1673ffffffffffffffffffffffffffffffffffffffff168152602001908152602001600020805480602002602001604051908101604052809291908181526020016000905b828210156105a657838290600052602060002090600602016040518060c001604052908160008201805461027790610ac6565b80601f01602080910402602001604051908101604052809291908181526020018280546102a390610ac6565b80156102f05780601f106102c5576101008083540402835291602001916102f0565b820191906000526020600020905b8154815290600101906020018083116102d357829003601f168201915b5050505050815260200160018201805461030990610ac6565b80601f016020809104026020016040519081016040528092919081815260200182805461033590610ac6565b80156103825780601f1061035757610100808354040283529160200191610382565b820191906000526020600020905b81548152906001019060200180831161036557829003601f168201915b505050505081526020016002820160009054906101000a900473ffffffffffffffffffffffffffffffffffffffff1673ffffffffffffffffffffffffffffffffffffffff1673ffffffffffffffffffffffffffffffffffffffff1681526020016003820180546103f190610ac6565b80601f016020809104026020016040519081016040528092919081815260200182805461041d90610ac6565b801561046a5780601f1061043f5761010080835404028352916020019161046a565b820191906000526020600020905b81548152906001019060200180831161044d57829003601f168201915b5050505050815260200160048201805461048390610ac6565b80601f01602080910402602001604051908101604052809291908181526020018280546104af90610ac6565b80156104fc5780601f106104d1576101008083540402835291602001916104fc565b820191906000526020600020905b8154815290600101906020018083116104df57829003601f168201915b5050505050815260200160058201805461051590610ac6565b80601f016020809104026020016040519081016040528092919081815260200182805461054190610ac6565b801561058e5780601f106105635761010080835404028352916020019161058e565b820191906000526020600020905b81548152906001019060200180831161057157829003601f168201915b50505050508152505081526020019060010190610244565b50505050905090565b6000604051905090565b600080fd5b600080fd5b600080fd5b600080fd5b6000601f19601f8301169050919050565b7f4e487b7100000000000000000000000000000000000000000000000000000000600052604160045260246000fd5b610616826105cd565b810181811067ffffffffffffffff82111715610635576106346105de565b5b80604052505050565b60006106486105af565b9050610654828261060d565b919050565b600067ffffffffffffffff821115610674576106736105de565b5b61067d826105cd565b9050602081019050919050565b82818337600083830152505050565b60006106ac6106a784610659565b61063e565b9050828152602081018484840111156106c8576106c76105c8565b5b6106d384828561068a565b509392505050565b600082601f8301126106f0576106ef6105c3565b5b8135610700848260208601610699565b91505092915050565b600073ffffffffffffffffffffffffffffffffffffffff82169050919050565b600061073482610709565b9050919050565b61074481610729565b811461074f57600080fd5b50565b6000813590506107618161073b565b92915050565b60008060008060008060c08789031215610784576107836105b9565b5b600087013567ffffffffffffffff8111156107a2576107a16105be565b5b6107ae89828a016106db565b965050602087013567ffffffffffffffff8111156107cf576107ce6105be565b5b6107db89828a016106db565b95505060406107ec89828a01610752565b945050606087013567ffffffffffffffff81111561080d5761080c6105be565b5b61081989828a016106db565b935050608087013567ffffffffffffffff81111561083a576108396105be565b5b61084689828a016106db565b92505060a087013567ffffffffffffffff811115610867576108666105be565b5b61087389828a016106db565b9150509295509295509295565b600081519050919050565b600082825260208201905092915050565b6000819050602082019050919050565b600081519050919050565b600082825260208201905092915050565b60005b838110156108e65780820151818401526020810190506108cb565b60008484015250505050565b60006108fd826108ac565b61090781856108b7565b93506109178185602086016108c8565b610920816105cd565b840191505092915050565b61093481610729565b82525050565b600060c083016000830151848203600086015261095782826108f2565b9150506020830151848203602086015261097182826108f2565b9150506040830151610986604086018261092b565b506060830151848203606086015261099e82826108f2565b915050608083015184820360808601526109b882826108f2565b91505060a083015184820360a08601526109d282826108f2565b9150508091505092915050565b60006109eb838361093a565b905092915050565b6000602082019050919050565b6000610a0b82610880565b610a15818561088b565b935083602082028501610a278561089c565b8060005b85811015610a635784840389528151610a4485826109df565b9450610a4f836109f3565b925060208a01995050600181019050610a2b565b50829750879550505050505092915050565b60006020820190508181036000830152610a8f8184610a00565b905092915050565b7f4e487b7100000000000000000000000000000000000000000000000000000000600052602260045260246000fd5b60006002820490506001821680610ade57607f821691505b602082108103610af157610af0610a97565b5b50919050565b60008190508160005260206000209050919050565b60006020601f8301049050919050565b600082821b905092915050565b600060088302610b597fffffffffffffffffffffffffffffffffffffffffffffffffffffffffffffffff82610b1c565b610b638683610b1c565b95508019841693508086168417925050509392505050565b6000819050919050565b6000819050919050565b6000610baa610ba5610ba084610b7b565b610b85565b610b7b565b9050919050565b6000819050919050565b610bc483610b8f565b610bd8610bd082610bb1565b848454610b29565b825550505050565b600090565b610bed610be0565b610bf8818484610bbb565b505050565b5b81811015610c1c57610c11600082610be5565b600181019050610bfe565b5050565b601f821115610c6157610c3281610af7565b610c3b84610b0c565b81016020851015610c4a578190505b610c5e610c5685610b0c565b830182610bfd565b50505b505050565b600082821c905092915050565b6000610c8460001984600802610c66565b1980831691505092915050565b6000610c9d8383610c73565b9150826002028217905092915050565b610cb6826108ac565b67ffffffffffffffff811115610ccf57610cce6105de565b5b610cd98254610ac6565b610ce4828285610c20565b600060209050601f831160018114610d175760008415610d05578287015190505b610d0f8582610c91565b865550610d77565b601f198416610d2586610af7565b60005b82811015610d4d57848901518255600182019150602085019450602081019050610d28565b86831015610d6a5784890151610d66601f891682610c73565b8355505b6001600288020188555050505b50505050505056fea26469706673582212206d4ab57fcb6b124c1f69f63fa8ecd36b5029658d60cb9384d04a8243a5efa14764736f6c63430008130033",
  "immutableReferences": {},
  "source": "// SPDX-License-Identifier: MIT\npragma solidity ^0.8.19;\n\ncontract DoctorForm {\n    struct Record {\n        string recordId;\n        string patientName;\n        address patientAddress;\n        string gender;\n        string diagnosis;\n        string prescription;\n    }\n    mapping(address => Record[]) private records;\n\n    function createEHR(\n        string memory _recordId,\n        string memory _patientName,\n        address _patientAddress,\n        string memory _gender,\n        string memory _diagnosis,\n        string memory _prescription\n    ) public {\n        Record memory newRecord = Record(\n            _recordId,\n            _patientName,\n            _patientAddress,\n            _gender,\n            _diagnosis,\n            _prescription\n        );\n        records[msg.sender].push(newRecord);\n    }\n\n    function getRecords() public view returns (Record[] memory) {\n        return records[msg.sender];\n    }\n}\n",
  "sourcePath": "/Users/sonupradhan/Desktop/EHR/src/contracts/DoctorForm.sol",
  "compiler": {
    "name": "solc",
    "version": "0.8.19+commit.7dd6d404.Emscripten.clang"
  },
  "schemaVersion": "3.4.16",
  "updatedAt": "2024-05-20T10:49:05.733Z",
  "devdoc": {
    "kind": "dev",
    "methods": {},
    "version": 1
  },
  "userdoc": {
    "kind": "user",
    "methods": {},
    "version": 1
  }
}