{
  "contractName": "DoctorRegistration",
  "abi": [
    {
      "anonymous": false,
      "inputs": [
        {
          "indexed": false,
          "internalType": "string",
          "name": "hhNumber",
          "type": "string"
        },
        {
          "indexed": false,
          "internalType": "string",
          "name": "doctorName",
          "type": "string"
        },
        {
          "indexed": false,
          "internalType": "address",
          "name": "walletAddress",
          "type": "address"
        }
      ],
      "name": "DoctorRegistered",
      "type": "event"
    },
    {
      "inputs": [
        {
          "internalType": "string",
          "name": "",
          "type": "string"
        },
        {
          "internalType": "string",
          "name": "",
          "type": "string"
        }
      ],
      "name": "doctorPermissions",
      "outputs": [
        {
          "internalType": "bool",
          "name": "",
          "type": "bool"
        }
      ],
      "stateMutability": "view",
      "type": "function",
      "constant": true
    },
    {
      "inputs": [
        {
          "internalType": "string",
          "name": "_doctorName",
          "type": "string"
        },
        {
          "internalType": "string",
          "name": "_hospitalName",
          "type": "string"
        },
        {
          "internalType": "string",
          "name": "_dateOfBirth",
          "type": "string"
        },
        {
          "internalType": "string",
          "name": "_gender",
          "type": "string"
        },
        {
          "internalType": "string",
          "name": "_email",
          "type": "string"
        },
        {
          "internalType": "string",
          "name": "_hhNumber",
          "type": "string"
        },
        {
          "internalType": "string",
          "name": "_specialization",
          "type": "string"
        },
        {
          "internalType": "string",
          "name": "_department",
          "type": "string"
        },
        {
          "internalType": "string",
          "name": "_designation",
          "type": "string"
        },
        {
          "internalType": "string",
          "name": "_workExperience",
          "type": "string"
        },
        {
          "internalType": "string",
          "name": "_password",
          "type": "string"
        }
      ],
      "name": "registerDoctor",
      "outputs": [],
      "stateMutability": "nonpayable",
      "type": "function"
    },
    {
      "inputs": [
        {
          "internalType": "string",
          "name": "_hhNumber",
          "type": "string"
        }
      ],
      "name": "isRegisteredDoctor",
      "outputs": [
        {
          "internalType": "bool",
          "name": "",
          "type": "bool"
        }
      ],
      "stateMutability": "view",
      "type": "function",
      "constant": true
    },
    {
      "inputs": [
        {
          "internalType": "string",
          "name": "_hhNumber",
          "type": "string"
        }
      ],
      "name": "getDoctorDetails",
      "outputs": [
        {
          "internalType": "address",
          "name": "_walletAddress",
          "type": "address"
        },
        {
          "internalType": "string",
          "name": "_doctorName",
          "type": "string"
        },
        {
          "internalType": "string",
          "name": "_hospitalName",
          "type": "string"
        },
        {
          "internalType": "string",
          "name": "_dateOfBirth",
          "type": "string"
        },
        {
          "internalType": "string",
          "name": "_gender",
          "type": "string"
        },
        {
          "internalType": "string",
          "name": "_email",
          "type": "string"
        },
        {
          "internalType": "string",
          "name": "_specialization",
          "type": "string"
        },
        {
          "internalType": "string",
          "name": "_department",
          "type": "string"
        },
        {
          "internalType": "string",
          "name": "_designation",
          "type": "string"
        },
        {
          "internalType": "string",
          "name": "_workExperience",
          "type": "string"
        }
      ],
      "stateMutability": "view",
      "type": "function",
      "constant": true
    },
    {
      "inputs": [
        {
          "internalType": "string",
          "name": "_hhNumber",
          "type": "string"
        },
        {
          "internalType": "string",
          "name": "_password",
          "type": "string"
        }
      ],
      "name": "validatePassword",
      "outputs": [
        {
          "internalType": "bool",
          "name": "",
          "type": "bool"
        }
      ],
      "stateMutability": "view",
      "type": "function",
      "constant": true
    },
    {
      "inputs": [
        {
          "internalType": "string",
          "name": "_patientNumber",
          "type": "string"
        },
        {
          "internalType": "string",
          "name": "_doctorNumber",
          "type": "string"
        },
        {
          "internalType": "string",
          "name": "_patientName",
          "type": "string"
        }
      ],
      "name": "grantPermission",
      "outputs": [],
      "stateMutability": "nonpayable",
      "type": "function"
    },
    {
      "inputs": [
        {
          "internalType": "string",
          "name": "_patientNumber",
          "type": "string"
        },
        {
          "internalType": "string",
          "name": "_doctorNumber",
          "type": "string"
        }
      ],
      "name": "isPermissionGranted",
      "outputs": [
        {
          "internalType": "bool",
          "name": "",
          "type": "bool"
        }
      ],
      "stateMutability": "view",
      "type": "function",
      "constant": true
    },
    {
      "inputs": [
        {
          "internalType": "string",
          "name": "_patientNumber",
          "type": "string"
        },
        {
          "internalType": "string",
          "name": "_doctorNumber",
          "type": "string"
        }
      ],
      "name": "revokePermission",
      "outputs": [],
      "stateMutability": "nonpayable",
      "type": "function"
    },
    {
      "inputs": [
        {
          "internalType": "string",
          "name": "_doctorNumber",
          "type": "string"
        }
      ],
      "name": "getPatientList",
      "outputs": [
        {
          "components": [
            {
              "internalType": "string",
              "name": "patient_number",
              "type": "string"
            },
            {
              "internalType": "string",
              "name": "patient_name",
              "type": "string"
            }
          ],
          "internalType": "struct DoctorRegistration.PatientList[]",
          "name": "",
          "type": "tuple[]"
        }
      ],
      "stateMutability": "view",
      "type": "function",
      "constant": true
    }
  ],
  "bytecode": "0x608060405234801561001057600080fd5b5061246a806100206000396000f3fe608060405234801561001057600080fd5b50600436106100935760003560e01c80637babdb26116100665780637babdb261461013957806391c12f7614610169578063a46bef1514610199578063ac5f9fd0146101c9578063d120c10c146101e557610093565b80631cd1bd58146100985780633e769767146100b457806344334733146100ed5780635df670401461011d575b600080fd5b6100b260048036038101906100ad9190611634565b610215565b005b6100ce60048036038101906100c9919061185c565b610533565b6040516100e49a99989796959493929190611965565b60405180910390f35b61010760048036038101906101029190611a40565b610d11565b6040516101149190611ad3565b60405180910390f35b61013760048036038101906101329190611aee565b610d6c565b005b610153600480360381019061014e9190611a40565b610e54565b6040516101609190611ad3565b60405180910390f35b610183600480360381019061017e919061185c565b610f79565b6040516101909190611ce5565b60405180910390f35b6101b360048036038101906101ae919061185c565b61111a565b6040516101c09190611ad3565b60405180910390f35b6101e360048036038101906101de9190611a40565b611191565b005b6101ff60048036038101906101fa9190611a40565b61142b565b60405161020c9190611ad3565b60405180910390f35b600073ffffffffffffffffffffffffffffffffffffffff1660008760405161023d9190611d43565b908152602001604051809103902060009054906101000a900473ffffffffffffffffffffffffffffffffffffffff1673ffffffffffffffffffffffffffffffffffffffff16146102c2576040517f08c379a00000000000000000000000000000000000000000000000000000000081526004016102b990611da6565b60405180910390fd5b60006040518061018001604052803373ffffffffffffffffffffffffffffffffffffffff1681526020018d81526020018c81526020018b81526020018a81526020018981526020018881526020018781526020018681526020018581526020018481526020018381525090508060018860405161033f9190611d43565b908152602001604051809103902060008201518160000160006101000a81548173ffffffffffffffffffffffffffffffffffffffff021916908373ffffffffffffffffffffffffffffffffffffffff16021790555060208201518160010190816103a99190611fdc565b5060408201518160020190816103bf9190611fdc565b5060608201518160030190816103d59190611fdc565b5060808201518160040190816103eb9190611fdc565b5060a08201518160050190816104019190611fdc565b5060c08201518160060190816104179190611fdc565b5060e082015181600701908161042d9190611fdc565b506101008201518160080190816104449190611fdc565b5061012082015181600901908161045b9190611fdc565b5061014082015181600a0190816104729190611fdc565b5061016082015181600b0190816104899190611fdc565b509050503360008860405161049e9190611d43565b908152602001604051809103902060006101000a81548173ffffffffffffffffffffffffffffffffffffffff021916908373ffffffffffffffffffffffffffffffffffffffff1602179055507f8d3f9c8a09dcd94bc9c847110caac40824996b777a45809b38b82b9aa3f71ec8878d3360405161051d939291906120ae565b60405180910390a1505050505050505050505050565b60006060806060806060806060806060600073ffffffffffffffffffffffffffffffffffffffff1660008c60405161056b9190611d43565b908152602001604051809103902060009054906101000a900473ffffffffffffffffffffffffffffffffffffffff1673ffffffffffffffffffffffffffffffffffffffff16036105f0576040517f08c379a00000000000000000000000000000000000000000000000000000000081526004016105e79061213f565b60405180910390fd5b600060018c6040516106029190611d43565b9081526020016040518091039020604051806101800160405290816000820160009054906101000a900473ffffffffffffffffffffffffffffffffffffffff1673ffffffffffffffffffffffffffffffffffffffff1673ffffffffffffffffffffffffffffffffffffffff16815260200160018201805461068290611df5565b80601f01602080910402602001604051908101604052809291908181526020018280546106ae90611df5565b80156106fb5780601f106106d0576101008083540402835291602001916106fb565b820191906000526020600020905b8154815290600101906020018083116106de57829003601f168201915b5050505050815260200160028201805461071490611df5565b80601f016020809104026020016040519081016040528092919081815260200182805461074090611df5565b801561078d5780601f106107625761010080835404028352916020019161078d565b820191906000526020600020905b81548152906001019060200180831161077057829003601f168201915b505050505081526020016003820180546107a690611df5565b80601f01602080910402602001604051908101604052809291908181526020018280546107d290611df5565b801561081f5780601f106107f45761010080835404028352916020019161081f565b820191906000526020600020905b81548152906001019060200180831161080257829003601f168201915b5050505050815260200160048201805461083890611df5565b80601f016020809104026020016040519081016040528092919081815260200182805461086490611df5565b80156108b15780601f10610886576101008083540402835291602001916108b1565b820191906000526020600020905b81548152906001019060200180831161089457829003601f168201915b505050505081526020016005820180546108ca90611df5565b80601f01602080910402602001604051908101604052809291908181526020018280546108f690611df5565b80156109435780601f1061091857610100808354040283529160200191610943565b820191906000526020600020905b81548152906001019060200180831161092657829003601f168201915b5050505050815260200160068201805461095c90611df5565b80601f016020809104026020016040519081016040528092919081815260200182805461098890611df5565b80156109d55780601f106109aa576101008083540402835291602001916109d5565b820191906000526020600020905b8154815290600101906020018083116109b857829003601f168201915b505050505081526020016007820180546109ee90611df5565b80601f0160208091040260200160405190810160405280929190818152602001828054610a1a90611df5565b8015610a675780601f10610a3c57610100808354040283529160200191610a67565b820191906000526020600020905b815481529060010190602001808311610a4a57829003601f168201915b50505050508152602001600882018054610a8090611df5565b80601f0160208091040260200160405190810160405280929190818152602001828054610aac90611df5565b8015610af95780601f10610ace57610100808354040283529160200191610af9565b820191906000526020600020905b815481529060010190602001808311610adc57829003601f168201915b50505050508152602001600982018054610b1290611df5565b80601f0160208091040260200160405190810160405280929190818152602001828054610b3e90611df5565b8015610b8b5780601f10610b6057610100808354040283529160200191610b8b565b820191906000526020600020905b815481529060010190602001808311610b6e57829003601f168201915b50505050508152602001600a82018054610ba490611df5565b80601f0160208091040260200160405190810160405280929190818152602001828054610bd090611df5565b8015610c1d5780601f10610bf257610100808354040283529160200191610c1d565b820191906000526020600020905b815481529060010190602001808311610c0057829003601f168201915b50505050508152602001600b82018054610c3690611df5565b80601f0160208091040260200160405190810160405280929190818152602001828054610c6290611df5565b8015610caf5780601f10610c8457610100808354040283529160200191610caf565b820191906000526020600020905b815481529060010190602001808311610c9257829003601f168201915b5050505050815250509050806000015181602001518260400151836060015184608001518560a001518660e001518761010001518861012001518961014001519a509a509a509a509a509a509a509a509a509a50509193959799509193959799565b600382805160208101820180518482526020830160208501208183528095505050505050818051602081018201805184825260208301602085012081835280955050505050506000915091509054906101000a900460ff1681565b60006040518060400160405280858152602001838152509050600283604051610d959190611d43565b90815260200160405180910390208190806001815401808255809150506001900390600052602060002090600202016000909190919091506000820151816000019081610de29190611fdc565b506020820151816001019081610df89190611fdc565b5050506001600385604051610e0d9190611d43565b908152602001604051809103902084604051610e299190611d43565b908152602001604051809103902060006101000a81548160ff02191690831515021790555050505050565b60008073ffffffffffffffffffffffffffffffffffffffff16600084604051610e7d9190611d43565b908152602001604051809103902060009054906101000a900473ffffffffffffffffffffffffffffffffffffffff1673ffffffffffffffffffffffffffffffffffffffff1603610f02576040517f08c379a0000000000000000000000000000000000000000000000000000000008152600401610ef99061213f565b60405180910390fd5b600183604051610f129190611d43565b9081526020016040518091039020600b01604051602001610f3391906121e2565b6040516020818303038152906040528051906020012082604051602001610f5a9190611d43565b6040516020818303038152906040528051906020012014905092915050565b6060600282604051610f8b9190611d43565b9081526020016040518091039020805480602002602001604051908101604052809291908181526020016000905b8282101561110f5783829060005260206000209060020201604051806040016040529081600082018054610fec90611df5565b80601f016020809104026020016040519081016040528092919081815260200182805461101890611df5565b80156110655780601f1061103a57610100808354040283529160200191611065565b820191906000526020600020905b81548152906001019060200180831161104857829003601f168201915b5050505050815260200160018201805461107e90611df5565b80601f01602080910402602001604051908101604052809291908181526020018280546110aa90611df5565b80156110f75780601f106110cc576101008083540402835291602001916110f7565b820191906000526020600020905b8154815290600101906020018083116110da57829003601f168201915b50505050508152505081526020019060010190610fb9565b505050509050919050565b60008073ffffffffffffffffffffffffffffffffffffffff166000836040516111439190611d43565b908152602001604051809103902060009054906101000a900473ffffffffffffffffffffffffffffffffffffffff1673ffffffffffffffffffffffffffffffffffffffff1614159050919050565b60006003836040516111a39190611d43565b9081526020016040518091039020826040516111bf9190611d43565b908152602001604051809103902060006101000a81548160ff02191690831515021790555060005b6002826040516111f79190611d43565b90815260200160405180910390208054905081101561142657826040516020016112219190611d43565b604051602081830303815290604052805190602001206002836040516112479190611d43565b90815260200160405180910390208281548110611267576112666121f9565b5b906000526020600020906002020160000160405160200161128891906121e2565b60405160208183030381529060405280519060200120036114135760008190505b60016002846040516112bb9190611d43565b9081526020016040518091039020805490506112d79190612257565b8110156113a6576002836040516112ee9190611d43565b9081526020016040518091039020600182611309919061228b565b8154811061131a576113196121f9565b5b90600052602060002090600202016002846040516113389190611d43565b90815260200160405180910390208281548110611358576113576121f9565b5b90600052602060002090600202016000820181600001908161137a91906122d5565b506001820181600101908161138f91906122d5565b50905050808061139e906123bd565b9150506112a9565b506002826040516113b79190611d43565b90815260200160405180910390208054806113d5576113d4612405565b5b6001900381819060005260206000209060020201600080820160006113fa919061147d565b60018201600061140a919061147d565b50509055611426565b808061141e906123bd565b9150506111e7565b505050565b600060038360405161143d9190611d43565b9081526020016040518091039020826040516114599190611d43565b908152602001604051809103902060009054906101000a900460ff16905092915050565b50805461148990611df5565b6000825580601f1061149b57506114ba565b601f0160209004906000526020600020908101906114b991906114bd565b5b50565b5b808211156114d65760008160009055506001016114be565b5090565b6000604051905090565b600080fd5b600080fd5b600080fd5b600080fd5b6000601f19601f8301169050919050565b7f4e487b7100000000000000000000000000000000000000000000000000000000600052604160045260246000fd5b611541826114f8565b810181811067ffffffffffffffff821117156115605761155f611509565b5b80604052505050565b60006115736114da565b905061157f8282611538565b919050565b600067ffffffffffffffff82111561159f5761159e611509565b5b6115a8826114f8565b9050602081019050919050565b82818337600083830152505050565b60006115d76115d284611584565b611569565b9050828152602081018484840111156115f3576115f26114f3565b5b6115fe8482856115b5565b509392505050565b600082601f83011261161b5761161a6114ee565b5b813561162b8482602086016115c4565b91505092915050565b60008060008060008060008060008060006101608c8e03121561165a576116596114e4565b5b60008c013567ffffffffffffffff811115611678576116776114e9565b5b6116848e828f01611606565b9b505060208c013567ffffffffffffffff8111156116a5576116a46114e9565b5b6116b18e828f01611606565b9a505060408c013567ffffffffffffffff8111156116d2576116d16114e9565b5b6116de8e828f01611606565b99505060608c013567ffffffffffffffff8111156116ff576116fe6114e9565b5b61170b8e828f01611606565b98505060808c013567ffffffffffffffff81111561172c5761172b6114e9565b5b6117388e828f01611606565b97505060a08c013567ffffffffffffffff811115611759576117586114e9565b5b6117658e828f01611606565b96505060c08c013567ffffffffffffffff811115611786576117856114e9565b5b6117928e828f01611606565b95505060e08c013567ffffffffffffffff8111156117b3576117b26114e9565b5b6117bf8e828f01611606565b9450506101008c013567ffffffffffffffff8111156117e1576117e06114e9565b5b6117ed8e828f01611606565b9350506101208c013567ffffffffffffffff81111561180f5761180e6114e9565b5b61181b8e828f01611606565b9250506101408c013567ffffffffffffffff81111561183d5761183c6114e9565b5b6118498e828f01611606565b9150509295989b509295989b9093969950565b600060208284031215611872576118716114e4565b5b600082013567ffffffffffffffff8111156118905761188f6114e9565b5b61189c84828501611606565b91505092915050565b600073ffffffffffffffffffffffffffffffffffffffff82169050919050565b60006118d0826118a5565b9050919050565b6118e0816118c5565b82525050565b600081519050919050565b600082825260208201905092915050565b60005b83811015611920578082015181840152602081019050611905565b60008484015250505050565b6000611937826118e6565b61194181856118f1565b9350611951818560208601611902565b61195a816114f8565b840191505092915050565b60006101408201905061197b600083018d6118d7565b818103602083015261198d818c61192c565b905081810360408301526119a1818b61192c565b905081810360608301526119b5818a61192c565b905081810360808301526119c9818961192c565b905081810360a08301526119dd818861192c565b905081810360c08301526119f1818761192c565b905081810360e0830152611a05818661192c565b9050818103610100830152611a1a818561192c565b9050818103610120830152611a2f818461192c565b90509b9a5050505050505050505050565b60008060408385031215611a5757611a566114e4565b5b600083013567ffffffffffffffff811115611a7557611a746114e9565b5b611a8185828601611606565b925050602083013567ffffffffffffffff811115611aa257611aa16114e9565b5b611aae85828601611606565b9150509250929050565b60008115159050919050565b611acd81611ab8565b82525050565b6000602082019050611ae86000830184611ac4565b92915050565b600080600060608486031215611b0757611b066114e4565b5b600084013567ffffffffffffffff811115611b2557611b246114e9565b5b611b3186828701611606565b935050602084013567ffffffffffffffff811115611b5257611b516114e9565b5b611b5e86828701611606565b925050604084013567ffffffffffffffff811115611b7f57611b7e6114e9565b5b611b8b86828701611606565b9150509250925092565b600081519050919050565b600082825260208201905092915050565b6000819050602082019050919050565b600082825260208201905092915050565b6000611bdd826118e6565b611be78185611bc1565b9350611bf7818560208601611902565b611c00816114f8565b840191505092915050565b60006040830160008301518482036000860152611c288282611bd2565b91505060208301518482036020860152611c428282611bd2565b9150508091505092915050565b6000611c5b8383611c0b565b905092915050565b6000602082019050919050565b6000611c7b82611b95565b611c858185611ba0565b935083602082028501611c9785611bb1565b8060005b85811015611cd35784840389528151611cb48582611c4f565b9450611cbf83611c63565b925060208a01995050600181019050611c9b565b50829750879550505050505092915050565b60006020820190508181036000830152611cff8184611c70565b905092915050565b600081905092915050565b6000611d1d826118e6565b611d278185611d07565b9350611d37818560208601611902565b80840191505092915050565b6000611d4f8284611d12565b915081905092915050565b7f446f63746f7220616c7265616479207265676973746572656400000000000000600082015250565b6000611d906019836118f1565b9150611d9b82611d5a565b602082019050919050565b60006020820190508181036000830152611dbf81611d83565b9050919050565b7f4e487b7100000000000000000000000000000000000000000000000000000000600052602260045260246000fd5b60006002820490506001821680611e0d57607f821691505b602082108103611e2057611e1f611dc6565b5b50919050565b60008190508160005260206000209050919050565b60006020601f8301049050919050565b600082821b905092915050565b600060088302611e887fffffffffffffffffffffffffffffffffffffffffffffffffffffffffffffffff82611e4b565b611e928683611e4b565b95508019841693508086168417925050509392505050565b6000819050919050565b6000819050919050565b6000611ed9611ed4611ecf84611eaa565b611eb4565b611eaa565b9050919050565b6000819050919050565b611ef383611ebe565b611f07611eff82611ee0565b848454611e58565b825550505050565b600090565b611f1c611f0f565b611f27818484611eea565b505050565b5b81811015611f4b57611f40600082611f14565b600181019050611f2d565b5050565b601f821115611f9057611f6181611e26565b611f6a84611e3b565b81016020851015611f79578190505b611f8d611f8585611e3b565b830182611f2c565b50505b505050565b600082821c905092915050565b6000611fb360001984600802611f95565b1980831691505092915050565b6000611fcc8383611fa2565b9150826002028217905092915050565b611fe5826118e6565b67ffffffffffffffff811115611ffe57611ffd611509565b5b6120088254611df5565b612013828285611f4f565b600060209050601f8311600181146120465760008415612034578287015190505b61203e8582611fc0565b8655506120a6565b601f19841661205486611e26565b60005b8281101561207c57848901518255600182019150602085019450602081019050612057565b868310156120995784890151612095601f891682611fa2565b8355505b6001600288020188555050505b505050505050565b600060608201905081810360008301526120c8818661192c565b905081810360208301526120dc818561192c565b90506120eb60408301846118d7565b949350505050565b7f446f63746f72206e6f7420726567697374657265640000000000000000000000600082015250565b60006121296015836118f1565b9150612134826120f3565b602082019050919050565b600060208201905081810360008301526121588161211c565b9050919050565b6000815461216c81611df5565b6121768186611d07565b9450600182166000811461219157600181146121a6576121d9565b60ff19831686528115158202860193506121d9565b6121af85611e26565b60005b838110156121d1578154818901526001820191506020810190506121b2565b838801955050505b50505092915050565b60006121ee828461215f565b915081905092915050565b7f4e487b7100000000000000000000000000000000000000000000000000000000600052603260045260246000fd5b7f4e487b7100000000000000000000000000000000000000000000000000000000600052601160045260246000fd5b600061226282611eaa565b915061226d83611eaa565b925082820390508181111561228557612284612228565b5b92915050565b600061229682611eaa565b91506122a183611eaa565b92508282019050808211156122b9576122b8612228565b5b92915050565b6000815490506122ce81611df5565b9050919050565b8181036122e35750506123bb565b6122ec826122bf565b67ffffffffffffffff81111561230557612304611509565b5b61230f8254611df5565b61231a828285611f4f565b6000601f8311600181146123495760008415612337578287015490505b6123418582611fc0565b8655506123b4565b601f19841661235787611e26565b965061236286611e26565b60005b8281101561238a57848901548255600182019150600185019450602081019050612365565b868310156123a757848901546123a3601f891682611fa2565b8355505b6001600288020188555050505b5050505050505b565b60006123c882611eaa565b91507fffffffffffffffffffffffffffffffffffffffffffffffffffffffffffffffff82036123fa576123f9612228565b5b600182019050919050565b7f4e487b7100000000000000000000000000000000000000000000000000000000600052603160045260246000fdfea26469706673582212208d779cc4afa9cc318a238b98a0417265d78563d27e357f8f84155d5e3dd0a75764736f6c63430008130033",
  "immutableReferences": {},
  "source": "// SPDX-License-Identifier: MIT\r\npragma solidity ^0.8.19;\r\n\r\ncontract DoctorRegistration {\r\n    struct Doctor {\r\n        address walletAddress;\r\n        string doctorName;\r\n        string hospitalName;\r\n        string dateOfBirth;\r\n        string gender;\r\n        string email;\r\n        string hhNumber;\r\n        string specialization;\r\n        string department;\r\n        string designation;\r\n        string workExperience;\r\n        string password;\r\n    }\r\n\r\n    struct PatientList{\r\n        string patient_number;\r\n        string patient_name;\r\n    }\r\n\r\n    mapping(string => address) private doctorAddresses;\r\n    mapping(string => Doctor) private doctors;\r\n    mapping(string => PatientList[]) private Dpermission;\r\n    mapping(string => mapping(string => bool)) public doctorPermissions;\r\n\r\n    event DoctorRegistered(string hhNumber, string doctorName, address walletAddress);\r\n\r\n    function registerDoctor(\r\n        string memory _doctorName,\r\n        string memory _hospitalName,\r\n        string memory _dateOfBirth,\r\n        string memory _gender,\r\n        string memory _email,\r\n        string memory _hhNumber,\r\n        string memory _specialization,\r\n        string memory _department,\r\n        string memory _designation,\r\n        string memory _workExperience,\r\n        string memory _password\r\n    ) external {\r\n        require(doctorAddresses[_hhNumber] == address(0), \"Doctor already registered\");\r\n\r\n        Doctor memory newDoctor = Doctor({\r\n            walletAddress: msg.sender,\r\n            doctorName: _doctorName,\r\n            hospitalName: _hospitalName,\r\n            dateOfBirth: _dateOfBirth,\r\n            gender: _gender,\r\n            email: _email,\r\n            hhNumber: _hhNumber,\r\n            specialization: _specialization,\r\n            department: _department,\r\n            designation: _designation,\r\n            workExperience: _workExperience,\r\n            password: _password\r\n        });\r\n\r\n        doctors[_hhNumber] = newDoctor;\r\n        doctorAddresses[_hhNumber] = msg.sender;\r\n        emit DoctorRegistered(_hhNumber, _doctorName, msg.sender);\r\n    }\r\n\r\n    function isRegisteredDoctor(string memory _hhNumber) external view returns (bool) {\r\n        return doctorAddresses[_hhNumber] != address(0);\r\n    }\r\n\r\n    function getDoctorDetails(string memory _hhNumber) external view returns (\r\n        address _walletAddress,\r\n        string memory _doctorName,\r\n        string memory _hospitalName,\r\n        string memory _dateOfBirth,\r\n        string memory _gender,\r\n        string memory _email,\r\n        string memory _specialization,\r\n        string memory _department,\r\n        string memory _designation,\r\n        string memory _workExperience\r\n    ) {\r\n        require(doctorAddresses[_hhNumber] != address(0), \"Doctor not registered\");\r\n        Doctor memory doctor = doctors[_hhNumber];\r\n        return (\r\n            doctor.walletAddress,\r\n            doctor.doctorName,\r\n            doctor.hospitalName,\r\n            doctor.dateOfBirth,\r\n            doctor.gender,\r\n            doctor.email,\r\n            doctor.specialization,\r\n            doctor.department,\r\n            doctor.designation,\r\n            doctor.workExperience\r\n        );\r\n    }\r\n\r\n    function validatePassword(string memory _hhNumber, string memory _password) external view returns (bool) {\r\n        require(doctorAddresses[_hhNumber] != address(0), \"Doctor not registered\");\r\n        return keccak256(abi.encodePacked(_password)) == keccak256(abi.encodePacked(doctors[_hhNumber].password));\r\n    }\r\n\r\n    function grantPermission(\r\n        string memory _patientNumber,\r\n        string memory _doctorNumber,\r\n        string memory _patientName\r\n    ) external {\r\n            PatientList memory newRecord = PatientList(\r\n                _patientNumber,\r\n                _patientName\r\n            );\r\n            Dpermission[_doctorNumber].push(newRecord);\r\n        doctorPermissions[_patientNumber][_doctorNumber] = true;\r\n    }\r\n\r\n    function isPermissionGranted(string memory _patientNumber,string memory _doctorNumber) external view returns (bool) {\r\n        return doctorPermissions[_patientNumber][_doctorNumber];\r\n    }\r\n\r\n    function revokePermission(string memory _patientNumber, string memory _doctorNumber) public {\r\n        doctorPermissions[_patientNumber][_doctorNumber] = false;\r\n\r\n        // Remove the patient's record from the list\r\n        for (uint i = 0; i < Dpermission[_doctorNumber].length; i++) {\r\n            if (keccak256(abi.encodePacked(Dpermission[_doctorNumber][i].patient_number)) == keccak256(abi.encodePacked(_patientNumber))) {\r\n                // Delete the patient's record by shifting elements\r\n                for (uint j = i; j < Dpermission[_doctorNumber].length - 1; j++) {\r\n                    Dpermission[_doctorNumber][j] = Dpermission[_doctorNumber][j + 1];\r\n                }\r\n                Dpermission[_doctorNumber].pop();\r\n                break;\r\n            }\r\n        }\r\n    }\r\n\r\n\r\n    function getPatientList(string memory _doctorNumber) public view returns (PatientList[] memory) {\r\n        return Dpermission[_doctorNumber];\r\n    }\r\n\r\n}\r\n",
  "sourcePath": "/Users/sonupradhan/Desktop/sonu/Projects/EHR github/src/contracts/DoctorRegistration.sol",
  "compiler": {
    "name": "solc",
    "version": "0.8.19+commit.7dd6d404.Emscripten.clang"
  },
  "schemaVersion": "3.4.16",
  "updatedAt": "2024-05-28T10:15:23.581Z",
  "networkType": "ethereum",
  "devdoc": {
    "kind": "dev",
    "methods": {},
    "version": 1
  },
  "userdoc": {
    "kind": "user",
    "methods": {},
    "version": 1
  }
}