{
  "contractName": "doctor",
  "abi": [
    {
      "inputs": [
        {
          "internalType": "address",
          "name": "_walletaddress",
          "type": "address"
        },
        {
          "internalType": "string",
          "name": "_doctorname",
          "type": "string"
        },
        {
          "internalType": "string",
          "name": "_dob",
          "type": "string"
        },
        {
          "internalType": "string",
          "name": "_gender",
          "type": "string"
        },
        {
          "internalType": "string",
          "name": "_currentaddress",
          "type": "string"
        },
        {
          "internalType": "string",
          "name": "_phonenumber",
          "type": "string"
        },
        {
          "internalType": "string",
          "name": "_department",
          "type": "string"
        },
        {
          "internalType": "string",
          "name": "_designation",
          "type": "string"
        },
        {
          "internalType": "string",
          "name": "_workex",
          "type": "string"
        }
      ],
      "name": "AddDoctor",
      "outputs": [],
      "stateMutability": "nonpayable",
      "type": "function"
    },
    {
      "inputs": [],
      "name": "isdoctor",
      "outputs": [
        {
          "internalType": "bool",
          "name": "",
          "type": "bool"
        }
      ],
      "stateMutability": "view",
      "type": "function",
      "constant": true
    },
    {
      "inputs": [],
      "name": "getdoctor",
      "outputs": [
        {
          "components": [
            {
              "internalType": "address",
              "name": "walletaddress",
              "type": "address"
            },
            {
              "internalType": "string",
              "name": "doctorname",
              "type": "string"
            },
            {
              "internalType": "string",
              "name": "dob",
              "type": "string"
            },
            {
              "internalType": "string",
              "name": "gender",
              "type": "string"
            },
            {
              "internalType": "string",
              "name": "currentaddress",
              "type": "string"
            },
            {
              "internalType": "string",
              "name": "phonenumber",
              "type": "string"
            },
            {
              "internalType": "string",
              "name": "department",
              "type": "string"
            },
            {
              "internalType": "string",
              "name": "designation",
              "type": "string"
            },
            {
              "internalType": "string",
              "name": "workex",
              "type": "string"
            }
          ],
          "internalType": "struct doctor.Doctors",
          "name": "",
          "type": "tuple"
        }
      ],
      "stateMutability": "view",
      "type": "function",
      "constant": true
    }
  ],
  "bytecode": "0x608060405234801561001057600080fd5b506111f4806100206000396000f3fe608060405234801561001057600080fd5b50600436106100415760003560e01c806303c53b0d146100465780633c340c9414610064578063508ea46914610082575b600080fd5b61004e61009e565b60405161005b9190610ae2565b60405180910390f35b61006c6105db565b6040516100799190610b1f565b60405180910390f35b61009c60048036038101906100979190610caf565b61062f565b005b6100a66108b9565b6000803373ffffffffffffffffffffffffffffffffffffffff1673ffffffffffffffffffffffffffffffffffffffff168152602001908152602001600020604051806101200160405290816000820160009054906101000a900473ffffffffffffffffffffffffffffffffffffffff1673ffffffffffffffffffffffffffffffffffffffff1673ffffffffffffffffffffffffffffffffffffffff16815260200160018201805461015690610e88565b80601f016020809104026020016040519081016040528092919081815260200182805461018290610e88565b80156101cf5780601f106101a4576101008083540402835291602001916101cf565b820191906000526020600020905b8154815290600101906020018083116101b257829003601f168201915b505050505081526020016002820180546101e890610e88565b80601f016020809104026020016040519081016040528092919081815260200182805461021490610e88565b80156102615780601f1061023657610100808354040283529160200191610261565b820191906000526020600020905b81548152906001019060200180831161024457829003601f168201915b5050505050815260200160038201805461027a90610e88565b80601f01602080910402602001604051908101604052809291908181526020018280546102a690610e88565b80156102f35780601f106102c8576101008083540402835291602001916102f3565b820191906000526020600020905b8154815290600101906020018083116102d657829003601f168201915b5050505050815260200160048201805461030c90610e88565b80601f016020809104026020016040519081016040528092919081815260200182805461033890610e88565b80156103855780601f1061035a57610100808354040283529160200191610385565b820191906000526020600020905b81548152906001019060200180831161036857829003601f168201915b5050505050815260200160058201805461039e90610e88565b80601f01602080910402602001604051908101604052809291908181526020018280546103ca90610e88565b80156104175780601f106103ec57610100808354040283529160200191610417565b820191906000526020600020905b8154815290600101906020018083116103fa57829003601f168201915b5050505050815260200160068201805461043090610e88565b80601f016020809104026020016040519081016040528092919081815260200182805461045c90610e88565b80156104a95780601f1061047e576101008083540402835291602001916104a9565b820191906000526020600020905b81548152906001019060200180831161048c57829003601f168201915b505050505081526020016007820180546104c290610e88565b80601f01602080910402602001604051908101604052809291908181526020018280546104ee90610e88565b801561053b5780601f106105105761010080835404028352916020019161053b565b820191906000526020600020905b81548152906001019060200180831161051e57829003601f168201915b5050505050815260200160088201805461055490610e88565b80601f016020809104026020016040519081016040528092919081815260200182805461058090610e88565b80156105cd5780601f106105a2576101008083540402835291602001916105cd565b820191906000526020600020905b8154815290600101906020018083116105b057829003601f168201915b505050505081525050905090565b6000600160003373ffffffffffffffffffffffffffffffffffffffff1673ffffffffffffffffffffffffffffffffffffffff16815260200190815260200160002060009054906101000a900460ff16905090565b60001515600160003373ffffffffffffffffffffffffffffffffffffffff1673ffffffffffffffffffffffffffffffffffffffff16815260200190815260200160002060009054906101000a900460ff161515146106c2576040517f08c379a00000000000000000000000000000000000000000000000000000000081526004016106b990610f16565b60405180910390fd5b60006040518061012001604052808b73ffffffffffffffffffffffffffffffffffffffff1681526020018a8152602001898152602001888152602001878152602001868152602001858152602001848152602001838152509050806000803373ffffffffffffffffffffffffffffffffffffffff1673ffffffffffffffffffffffffffffffffffffffff16815260200190815260200160002060008201518160000160006101000a81548173ffffffffffffffffffffffffffffffffffffffff021916908373ffffffffffffffffffffffffffffffffffffffff16021790555060208201518160010190816107b791906110ec565b5060408201518160020190816107cd91906110ec565b5060608201518160030190816107e391906110ec565b5060808201518160040190816107f991906110ec565b5060a082015181600501908161080f91906110ec565b5060c082015181600601908161082591906110ec565b5060e082015181600701908161083b91906110ec565b5061010082015181600801908161085291906110ec565b5090505060018060003373ffffffffffffffffffffffffffffffffffffffff1673ffffffffffffffffffffffffffffffffffffffff16815260200190815260200160002060006101000a81548160ff02191690831515021790555050505050505050505050565b604051806101200160405280600073ffffffffffffffffffffffffffffffffffffffff16815260200160608152602001606081526020016060815260200160608152602001606081526020016060815260200160608152602001606081525090565b600073ffffffffffffffffffffffffffffffffffffffff82169050919050565b60006109468261091b565b9050919050565b6109568161093b565b82525050565b600081519050919050565b600082825260208201905092915050565b60005b8381101561099657808201518184015260208101905061097b565b60008484015250505050565b6000601f19601f8301169050919050565b60006109be8261095c565b6109c88185610967565b93506109d8818560208601610978565b6109e1816109a2565b840191505092915050565b600061012083016000830151610a05600086018261094d565b5060208301518482036020860152610a1d82826109b3565b91505060408301518482036040860152610a3782826109b3565b91505060608301518482036060860152610a5182826109b3565b91505060808301518482036080860152610a6b82826109b3565b91505060a083015184820360a0860152610a8582826109b3565b91505060c083015184820360c0860152610a9f82826109b3565b91505060e083015184820360e0860152610ab982826109b3565b915050610100830151848203610100860152610ad582826109b3565b9150508091505092915050565b60006020820190508181036000830152610afc81846109ec565b905092915050565b60008115159050919050565b610b1981610b04565b82525050565b6000602082019050610b346000830184610b10565b92915050565b6000604051905090565b600080fd5b600080fd5b610b578161093b565b8114610b6257600080fd5b50565b600081359050610b7481610b4e565b92915050565b600080fd5b600080fd5b7f4e487b7100000000000000000000000000000000000000000000000000000000600052604160045260246000fd5b610bbc826109a2565b810181811067ffffffffffffffff82111715610bdb57610bda610b84565b5b80604052505050565b6000610bee610b3a565b9050610bfa8282610bb3565b919050565b600067ffffffffffffffff821115610c1a57610c19610b84565b5b610c23826109a2565b9050602081019050919050565b82818337600083830152505050565b6000610c52610c4d84610bff565b610be4565b905082815260208101848484011115610c6e57610c6d610b7f565b5b610c79848285610c30565b509392505050565b600082601f830112610c9657610c95610b7a565b5b8135610ca6848260208601610c3f565b91505092915050565b60008060008060008060008060006101208a8c031215610cd257610cd1610b44565b5b6000610ce08c828d01610b65565b99505060208a013567ffffffffffffffff811115610d0157610d00610b49565b5b610d0d8c828d01610c81565b98505060408a013567ffffffffffffffff811115610d2e57610d2d610b49565b5b610d3a8c828d01610c81565b97505060608a013567ffffffffffffffff811115610d5b57610d5a610b49565b5b610d678c828d01610c81565b96505060808a013567ffffffffffffffff811115610d8857610d87610b49565b5b610d948c828d01610c81565b95505060a08a013567ffffffffffffffff811115610db557610db4610b49565b5b610dc18c828d01610c81565b94505060c08a013567ffffffffffffffff811115610de257610de1610b49565b5b610dee8c828d01610c81565b93505060e08a013567ffffffffffffffff811115610e0f57610e0e610b49565b5b610e1b8c828d01610c81565b9250506101008a013567ffffffffffffffff811115610e3d57610e3c610b49565b5b610e498c828d01610c81565b9150509295985092959850929598565b7f4e487b7100000000000000000000000000000000000000000000000000000000600052602260045260246000fd5b60006002820490506001821680610ea057607f821691505b602082108103610eb357610eb2610e59565b5b50919050565b600082825260208201905092915050565b7f416c7265616479206120646f63746f7200000000000000000000000000000000600082015250565b6000610f00601083610eb9565b9150610f0b82610eca565b602082019050919050565b60006020820190508181036000830152610f2f81610ef3565b9050919050565b60008190508160005260206000209050919050565b60006020601f8301049050919050565b600082821b905092915050565b600060088302610f987fffffffffffffffffffffffffffffffffffffffffffffffffffffffffffffffff82610f5b565b610fa28683610f5b565b95508019841693508086168417925050509392505050565b6000819050919050565b6000819050919050565b6000610fe9610fe4610fdf84610fba565b610fc4565b610fba565b9050919050565b6000819050919050565b61100383610fce565b61101761100f82610ff0565b848454610f68565b825550505050565b600090565b61102c61101f565b611037818484610ffa565b505050565b5b8181101561105b57611050600082611024565b60018101905061103d565b5050565b601f8211156110a05761107181610f36565b61107a84610f4b565b81016020851015611089578190505b61109d61109585610f4b565b83018261103c565b50505b505050565b600082821c905092915050565b60006110c3600019846008026110a5565b1980831691505092915050565b60006110dc83836110b2565b9150826002028217905092915050565b6110f58261095c565b67ffffffffffffffff81111561110e5761110d610b84565b5b6111188254610e88565b61112382828561105f565b600060209050601f8311600181146111565760008415611144578287015190505b61114e85826110d0565b8655506111b6565b601f19841661116486610f36565b60005b8281101561118c57848901518255600182019150602085019450602081019050611167565b868310156111a957848901516111a5601f8916826110b2565b8355505b6001600288020188555050505b50505050505056fea2646970667358221220e2e6f3f46f2aa1eb53ff7e915311c19d8797b5c2956819fc44a7c99095e1752364736f6c63430008130033",
  "immutableReferences": {},
  "source": "// SPDX-License-Identifier: MIT\r\npragma solidity ^0.8.12;\r\n\r\ncontract doctor {\r\n    struct Doctors {\r\n        address walletaddress;\r\n        string doctorname;\r\n        string dob;\r\n        string gender;\r\n        string currentaddress;\r\n        string phonenumber;\r\n        string department;\r\n        string designation;\r\n        string workex;\r\n    }\r\n    mapping(address => Doctors) private doctors;\r\n    mapping(address => bool) private doctorsbool;\r\n\r\n    function AddDoctor(\r\n        address _walletaddress,\r\n        string memory _doctorname,\r\n        string memory _dob,\r\n        string memory _gender,\r\n        string memory _currentaddress,\r\n        string memory _phonenumber,\r\n        string memory _department,\r\n        string memory _designation,\r\n        string memory _workex\r\n    ) public {\r\n        require(doctorsbool[msg.sender] == false, \"Already a doctor\");\r\n        Doctors memory newdoc = Doctors(\r\n            _walletaddress,\r\n            _doctorname,\r\n            _dob,\r\n            _gender,\r\n            _currentaddress,\r\n            _phonenumber,\r\n            _department,\r\n            _designation,\r\n            _workex\r\n        );\r\n        doctors[msg.sender] = newdoc;\r\n        doctorsbool[msg.sender] = true;\r\n    }\r\n\r\n    function isdoctor() public view returns (bool) {\r\n        return doctorsbool[msg.sender];\r\n    }\r\n\r\n    function getdoctor() public view returns (Doctors memory) {\r\n        return doctors[msg.sender];\r\n    }\r\n}\r\n",
  "sourcePath": "C:\\gautham per\\PES\\capstone\\project\\test1\\src\\contracts\\doctor.sol",
  "compiler": {
    "name": "solc",
    "version": "0.8.19+commit.7dd6d404.Emscripten.clang"
  },
  "schemaVersion": "3.4.15",
  "updatedAt": "2023-08-20T10:40:17.698Z",
  "networkType": "ethereum",
  "devdoc": {
    "kind": "dev",
    "methods": {},
    "version": 1
  },
  "userdoc": {
    "kind": "user",
    "methods": {},
    "version": 1
  }
}