{
  "contractName": "DoctorRegistration",
  "abi": [
    {
      "anonymous": false,
      "inputs": [
        {
          "indexed": true,
          "internalType": "address",
          "name": "doctorAddress",
          "type": "address"
        },
        {
          "indexed": false,
          "internalType": "string",
          "name": "doctorName",
          "type": "string"
        }
      ],
      "name": "DoctorRegistered",
      "type": "event"
    },
    {
      "inputs": [
        {
          "internalType": "address",
          "name": "_doctorAddress",
          "type": "address"
        },
        {
          "internalType": "string",
          "name": "_doctorName",
          "type": "string"
        },
        {
          "internalType": "string",
          "name": "_hospitalName",
          "type": "string"
        },
        {
          "internalType": "string",
          "name": "_dateOfBirth",
          "type": "string"
        },
        {
          "internalType": "string",
          "name": "_gender",
          "type": "string"
        },
        {
          "internalType": "string",
          "name": "_phoneNumber",
          "type": "string"
        },
        {
          "internalType": "string",
          "name": "_specialization",
          "type": "string"
        },
        {
          "internalType": "string",
          "name": "_department",
          "type": "string"
        },
        {
          "internalType": "string",
          "name": "_designation",
          "type": "string"
        },
        {
          "internalType": "string",
          "name": "_workExperience",
          "type": "string"
        },
        {
          "internalType": "string",
          "name": "_password",
          "type": "string"
        }
      ],
      "name": "registerDoctor",
      "outputs": [],
      "stateMutability": "nonpayable",
      "type": "function"
    },
    {
      "inputs": [
        {
          "internalType": "address",
          "name": "_doctorAddress",
          "type": "address"
        },
        {
          "internalType": "string",
          "name": "_password",
          "type": "string"
        }
      ],
      "name": "validateDoctorPassword",
      "outputs": [
        {
          "internalType": "bool",
          "name": "",
          "type": "bool"
        }
      ],
      "stateMutability": "view",
      "type": "function",
      "constant": true
    },
    {
      "inputs": [
        {
          "internalType": "address",
          "name": "_doctorAddress",
          "type": "address"
        }
      ],
      "name": "getDoctorDetails",
      "outputs": [
        {
          "components": [
            {
              "internalType": "address",
              "name": "doctorAddress",
              "type": "address"
            },
            {
              "internalType": "string",
              "name": "doctorName",
              "type": "string"
            },
            {
              "internalType": "string",
              "name": "hospitalName",
              "type": "string"
            },
            {
              "internalType": "string",
              "name": "dateOfBirth",
              "type": "string"
            },
            {
              "internalType": "string",
              "name": "gender",
              "type": "string"
            },
            {
              "internalType": "string",
              "name": "phoneNumber",
              "type": "string"
            },
            {
              "internalType": "string",
              "name": "specialization",
              "type": "string"
            },
            {
              "internalType": "string",
              "name": "department",
              "type": "string"
            },
            {
              "internalType": "string",
              "name": "designation",
              "type": "string"
            },
            {
              "internalType": "string",
              "name": "workExperience",
              "type": "string"
            },
            {
              "internalType": "string",
              "name": "password",
              "type": "string"
            }
          ],
          "internalType": "struct DoctorRegistration.Doctor",
          "name": "",
          "type": "tuple"
        }
      ],
      "stateMutability": "view",
      "type": "function",
      "constant": true
    },
    {
      "inputs": [
        {
          "internalType": "address",
          "name": "_doctorAddress",
          "type": "address"
        }
      ],
      "name": "isRegisteredDoctor",
      "outputs": [
        {
          "internalType": "bool",
          "name": "",
          "type": "bool"
        }
      ],
      "stateMutability": "view",
      "type": "function",
      "constant": true
    }
  ],
  "bytecode": "0x608060405234801561001057600080fd5b50611711806100206000396000f3fe608060405234801561001057600080fd5b506004361061004c5760003560e01c8063157e9fb11461005157806397bff3381461006d578063bab90dbd1461009d578063e2ad335e146100cd575b600080fd5b61006b60048036038101906100669190610d85565b6100fd565b005b61008760048036038101906100829190610f91565b61040b565b6040516100949190610fd9565b60405180910390f35b6100b760048036038101906100b29190610f91565b610461565b6040516100c491906111b0565b60405180910390f35b6100e760048036038101906100e291906111d2565b610ac4565b6040516100f49190610fd9565b60405180910390f35b600160008c73ffffffffffffffffffffffffffffffffffffffff1673ffffffffffffffffffffffffffffffffffffffff16815260200190815260200160002060009054906101000a900460ff161561018a576040517f08c379a00000000000000000000000000000000000000000000000000000000081526004016101819061128b565b60405180910390fd5b60006040518061016001604052808d73ffffffffffffffffffffffffffffffffffffffff1681526020018c81526020018b81526020018a8152602001898152602001888152602001878152602001868152602001858152602001848152602001838152509050806000808e73ffffffffffffffffffffffffffffffffffffffff1673ffffffffffffffffffffffffffffffffffffffff16815260200190815260200160002060008201518160000160006101000a81548173ffffffffffffffffffffffffffffffffffffffff021916908373ffffffffffffffffffffffffffffffffffffffff160217905550602082015181600101908161028b91906114c1565b5060408201518160020190816102a191906114c1565b5060608201518160030190816102b791906114c1565b5060808201518160040190816102cd91906114c1565b5060a08201518160050190816102e391906114c1565b5060c08201518160060190816102f991906114c1565b5060e082015181600701908161030f91906114c1565b5061010082015181600801908161032691906114c1565b5061012082015181600901908161033d91906114c1565b5061014082015181600a01908161035491906114c1565b5090505060018060008e73ffffffffffffffffffffffffffffffffffffffff1673ffffffffffffffffffffffffffffffffffffffff16815260200190815260200160002060006101000a81548160ff0219169083151502179055508b73ffffffffffffffffffffffffffffffffffffffff167f20481b8112b5bf4734f45a473c373db9df6a79ce946cdc0e7dbc22b4f7d7f9868c6040516103f591906115cc565b60405180910390a2505050505050505050505050565b6000600160008373ffffffffffffffffffffffffffffffffffffffff1673ffffffffffffffffffffffffffffffffffffffff16815260200190815260200160002060009054906101000a900460ff169050919050565b610469610b5d565b6000808373ffffffffffffffffffffffffffffffffffffffff1673ffffffffffffffffffffffffffffffffffffffff168152602001908152602001600020604051806101600160405290816000820160009054906101000a900473ffffffffffffffffffffffffffffffffffffffff1673ffffffffffffffffffffffffffffffffffffffff1673ffffffffffffffffffffffffffffffffffffffff168152602001600182018054610519906112da565b80601f0160208091040260200160405190810160405280929190818152602001828054610545906112da565b80156105925780601f1061056757610100808354040283529160200191610592565b820191906000526020600020905b81548152906001019060200180831161057557829003601f168201915b505050505081526020016002820180546105ab906112da565b80601f01602080910402602001604051908101604052809291908181526020018280546105d7906112da565b80156106245780601f106105f957610100808354040283529160200191610624565b820191906000526020600020905b81548152906001019060200180831161060757829003601f168201915b5050505050815260200160038201805461063d906112da565b80601f0160208091040260200160405190810160405280929190818152602001828054610669906112da565b80156106b65780601f1061068b576101008083540402835291602001916106b6565b820191906000526020600020905b81548152906001019060200180831161069957829003601f168201915b505050505081526020016004820180546106cf906112da565b80601f01602080910402602001604051908101604052809291908181526020018280546106fb906112da565b80156107485780601f1061071d57610100808354040283529160200191610748565b820191906000526020600020905b81548152906001019060200180831161072b57829003601f168201915b50505050508152602001600582018054610761906112da565b80601f016020809104026020016040519081016040528092919081815260200182805461078d906112da565b80156107da5780601f106107af576101008083540402835291602001916107da565b820191906000526020600020905b8154815290600101906020018083116107bd57829003601f168201915b505050505081526020016006820180546107f3906112da565b80601f016020809104026020016040519081016040528092919081815260200182805461081f906112da565b801561086c5780601f106108415761010080835404028352916020019161086c565b820191906000526020600020905b81548152906001019060200180831161084f57829003601f168201915b50505050508152602001600782018054610885906112da565b80601f01602080910402602001604051908101604052809291908181526020018280546108b1906112da565b80156108fe5780601f106108d3576101008083540402835291602001916108fe565b820191906000526020600020905b8154815290600101906020018083116108e157829003601f168201915b50505050508152602001600882018054610917906112da565b80601f0160208091040260200160405190810160405280929190818152602001828054610943906112da565b80156109905780601f1061096557610100808354040283529160200191610990565b820191906000526020600020905b81548152906001019060200180831161097357829003601f168201915b505050505081526020016009820180546109a9906112da565b80601f01602080910402602001604051908101604052809291908181526020018280546109d5906112da565b8015610a225780601f106109f757610100808354040283529160200191610a22565b820191906000526020600020905b815481529060010190602001808311610a0557829003601f168201915b50505050508152602001600a82018054610a3b906112da565b80601f0160208091040260200160405190810160405280929190818152602001828054610a67906112da565b8015610ab45780601f10610a8957610100808354040283529160200191610ab4565b820191906000526020600020905b815481529060010190602001808311610a9757829003601f168201915b5050505050815250509050919050565b60008060008473ffffffffffffffffffffffffffffffffffffffff1673ffffffffffffffffffffffffffffffffffffffff168152602001908152602001600020600a01604051602001610b17919061167c565b6040516020818303038152906040528051906020012082604051602001610b3e91906116c4565b6040516020818303038152906040528051906020012014905092915050565b604051806101600160405280600073ffffffffffffffffffffffffffffffffffffffff168152602001606081526020016060815260200160608152602001606081526020016060815260200160608152602001606081526020016060815260200160608152602001606081525090565b6000604051905090565b600080fd5b600080fd5b600073ffffffffffffffffffffffffffffffffffffffff82169050919050565b6000610c0c82610be1565b9050919050565b610c1c81610c01565b8114610c2757600080fd5b50565b600081359050610c3981610c13565b92915050565b600080fd5b600080fd5b6000601f19601f8301169050919050565b7f4e487b7100000000000000000000000000000000000000000000000000000000600052604160045260246000fd5b610c9282610c49565b810181811067ffffffffffffffff82111715610cb157610cb0610c5a565b5b80604052505050565b6000610cc4610bcd565b9050610cd08282610c89565b919050565b600067ffffffffffffffff821115610cf057610cef610c5a565b5b610cf982610c49565b9050602081019050919050565b82818337600083830152505050565b6000610d28610d2384610cd5565b610cba565b905082815260208101848484011115610d4457610d43610c44565b5b610d4f848285610d06565b509392505050565b600082601f830112610d6c57610d6b610c3f565b5b8135610d7c848260208601610d15565b91505092915050565b60008060008060008060008060008060006101608c8e031215610dab57610daa610bd7565b5b6000610db98e828f01610c2a565b9b505060208c013567ffffffffffffffff811115610dda57610dd9610bdc565b5b610de68e828f01610d57565b9a505060408c013567ffffffffffffffff811115610e0757610e06610bdc565b5b610e138e828f01610d57565b99505060608c013567ffffffffffffffff811115610e3457610e33610bdc565b5b610e408e828f01610d57565b98505060808c013567ffffffffffffffff811115610e6157610e60610bdc565b5b610e6d8e828f01610d57565b97505060a08c013567ffffffffffffffff811115610e8e57610e8d610bdc565b5b610e9a8e828f01610d57565b96505060c08c013567ffffffffffffffff811115610ebb57610eba610bdc565b5b610ec78e828f01610d57565b95505060e08c013567ffffffffffffffff811115610ee857610ee7610bdc565b5b610ef48e828f01610d57565b9450506101008c013567ffffffffffffffff811115610f1657610f15610bdc565b5b610f228e828f01610d57565b9350506101208c013567ffffffffffffffff811115610f4457610f43610bdc565b5b610f508e828f01610d57565b9250506101408c013567ffffffffffffffff811115610f7257610f71610bdc565b5b610f7e8e828f01610d57565b9150509295989b509295989b9093969950565b600060208284031215610fa757610fa6610bd7565b5b6000610fb584828501610c2a565b91505092915050565b60008115159050919050565b610fd381610fbe565b82525050565b6000602082019050610fee6000830184610fca565b92915050565b610ffd81610c01565b82525050565b600081519050919050565b600082825260208201905092915050565b60005b8381101561103d578082015181840152602081019050611022565b60008484015250505050565b600061105482611003565b61105e818561100e565b935061106e81856020860161101f565b61107781610c49565b840191505092915050565b60006101608301600083015161109b6000860182610ff4565b50602083015184820360208601526110b38282611049565b915050604083015184820360408601526110cd8282611049565b915050606083015184820360608601526110e78282611049565b915050608083015184820360808601526111018282611049565b91505060a083015184820360a086015261111b8282611049565b91505060c083015184820360c08601526111358282611049565b91505060e083015184820360e086015261114f8282611049565b91505061010083015184820361010086015261116b8282611049565b9150506101208301518482036101208601526111878282611049565b9150506101408301518482036101408601526111a38282611049565b9150508091505092915050565b600060208201905081810360008301526111ca8184611082565b905092915050565b600080604083850312156111e9576111e8610bd7565b5b60006111f785828601610c2a565b925050602083013567ffffffffffffffff81111561121857611217610bdc565b5b61122485828601610d57565b9150509250929050565b600082825260208201905092915050565b7f446f63746f7220616c7265616479207265676973746572656400000000000000600082015250565b600061127560198361122e565b91506112808261123f565b602082019050919050565b600060208201905081810360008301526112a481611268565b9050919050565b7f4e487b7100000000000000000000000000000000000000000000000000000000600052602260045260246000fd5b600060028204905060018216806112f257607f821691505b602082108103611305576113046112ab565b5b50919050565b60008190508160005260206000209050919050565b60006020601f8301049050919050565b600082821b905092915050565b60006008830261136d7fffffffffffffffffffffffffffffffffffffffffffffffffffffffffffffffff82611330565b6113778683611330565b95508019841693508086168417925050509392505050565b6000819050919050565b6000819050919050565b60006113be6113b96113b48461138f565b611399565b61138f565b9050919050565b6000819050919050565b6113d8836113a3565b6113ec6113e4826113c5565b84845461133d565b825550505050565b600090565b6114016113f4565b61140c8184846113cf565b505050565b5b81811015611430576114256000826113f9565b600181019050611412565b5050565b601f821115611475576114468161130b565b61144f84611320565b8101602085101561145e578190505b61147261146a85611320565b830182611411565b50505b505050565b600082821c905092915050565b60006114986000198460080261147a565b1980831691505092915050565b60006114b18383611487565b9150826002028217905092915050565b6114ca82611003565b67ffffffffffffffff8111156114e3576114e2610c5a565b5b6114ed82546112da565b6114f8828285611434565b600060209050601f83116001811461152b5760008415611519578287015190505b61152385826114a5565b86555061158b565b601f1984166115398661130b565b60005b828110156115615784890151825560018201915060208501945060208101905061153c565b8683101561157e578489015161157a601f891682611487565b8355505b6001600288020188555050505b505050505050565b600061159e82611003565b6115a8818561122e565b93506115b881856020860161101f565b6115c181610c49565b840191505092915050565b600060208201905081810360008301526115e68184611593565b905092915050565b600081905092915050565b60008154611606816112da565b61161081866115ee565b9450600182166000811461162b576001811461164057611673565b60ff1983168652811515820286019350611673565b6116498561130b565b60005b8381101561166b5781548189015260018201915060208101905061164c565b838801955050505b50505092915050565b600061168882846115f9565b915081905092915050565b600061169e82611003565b6116a881856115ee565b93506116b881856020860161101f565b80840191505092915050565b60006116d08284611693565b91508190509291505056fea264697066735822122084e7228930f30ceefbcade1dac1e290c7d5564c6c540e80f69aadfdd53d165ad64736f6c63430008130033",
  "immutableReferences": {},
  "source": "pragma solidity ^0.8.19;\r\n\r\ncontract DoctorRegistration {\r\n    struct Doctor {\r\n        address doctorAddress;\r\n        string doctorName;\r\n        string hospitalName;\r\n        string dateOfBirth;\r\n        string gender;\r\n        string phoneNumber;\r\n        string specialization;\r\n        string department;\r\n        string designation;\r\n        string workExperience;\r\n        string password;\r\n    }\r\n\r\n    mapping(address => Doctor) private doctors;\r\n    mapping(address => bool) private isDoctorRegistered;\r\n\r\n    event DoctorRegistered(address indexed doctorAddress, string doctorName);\r\n\r\n    function registerDoctor(\r\n        address _doctorAddress,\r\n        string memory _doctorName,\r\n        string memory _hospitalName,\r\n        string memory _dateOfBirth,\r\n        string memory _gender,\r\n        string memory _phoneNumber,\r\n        string memory _specialization,\r\n        string memory _department,\r\n        string memory _designation,\r\n        string memory _workExperience,\r\n        string memory _password\r\n    ) external {\r\n        require(!isDoctorRegistered[_doctorAddress], \"Doctor already registered\");\r\n\r\n        Doctor memory newDoctor = Doctor({\r\n            doctorAddress: _doctorAddress,\r\n            doctorName: _doctorName,\r\n            hospitalName: _hospitalName,\r\n            dateOfBirth: _dateOfBirth,\r\n            gender: _gender,\r\n            phoneNumber: _phoneNumber,\r\n            specialization: _specialization,\r\n            department: _department,\r\n            designation: _designation,\r\n            workExperience: _workExperience,\r\n            password: _password\r\n        });\r\n\r\n        doctors[_doctorAddress] = newDoctor;\r\n        isDoctorRegistered[_doctorAddress] = true;\r\n\r\n        emit DoctorRegistered(_doctorAddress, _doctorName);\r\n    }\r\n\r\n    function validateDoctorPassword(address _doctorAddress, string memory _password) external view returns (bool) {\r\n        return keccak256(abi.encodePacked(_password)) == keccak256(abi.encodePacked(doctors[_doctorAddress].password));\r\n    }\r\n\r\n    function getDoctorDetails(address _doctorAddress) external view returns (Doctor memory) {\r\n        return doctors[_doctorAddress];\r\n    }\r\n\r\n    function isRegisteredDoctor(address _doctorAddress) external view returns (bool) {\r\n        return isDoctorRegistered[_doctorAddress];\r\n    }\r\n}\r\n",
  "sourcePath": "/Users/sonupradhan/Desktop/EHR/src/contracts/DoctorRegistration.sol",
  "compiler": {
    "name": "solc",
    "version": "0.8.19+commit.7dd6d404.Emscripten.clang"
  },
  "schemaVersion": "3.4.16",
  "updatedAt": "2024-04-20T19:38:12.797Z",
  "networkType": "ethereum",
  "devdoc": {
    "kind": "dev",
    "methods": {},
    "version": 1
  },
  "userdoc": {
    "kind": "user",
    "methods": {},
    "version": 1
  }
}