{
  "contractName": "MedicalRegistry",
  "abi": [
    {
      "inputs": [
        {
          "internalType": "address",
          "name": "",
          "type": "address"
        }
      ],
      "name": "isDoctor",
      "outputs": [
        {
          "internalType": "bool",
          "name": "",
          "type": "bool"
        }
      ],
      "stateMutability": "view",
      "type": "function",
      "constant": true
    },
    {
      "inputs": [
        {
          "internalType": "address",
          "name": "",
          "type": "address"
        }
      ],
      "name": "isPatient",
      "outputs": [
        {
          "internalType": "bool",
          "name": "",
          "type": "bool"
        }
      ],
      "stateMutability": "view",
      "type": "function",
      "constant": true
    },
    {
      "inputs": [],
      "name": "registerDoctor",
      "outputs": [],
      "stateMutability": "nonpayable",
      "type": "function"
    },
    {
      "inputs": [],
      "name": "registerPatient",
      "outputs": [],
      "stateMutability": "nonpayable",
      "type": "function"
    },
    {
      "inputs": [
        {
          "internalType": "address",
          "name": "user",
          "type": "address"
        }
      ],
      "name": "isRegistered",
      "outputs": [
        {
          "internalType": "string",
          "name": "",
          "type": "string"
        }
      ],
      "stateMutability": "view",
      "type": "function",
      "constant": true
    }
  ],
  "bytecode": "0x608060405234801561001057600080fd5b506104fd806100206000396000f3fe608060405234801561001057600080fd5b50600436106100575760003560e01c80631a1984de1461005c578063822d3885146100665780638f9c79ed14610070578063996440c6146100a0578063c3c5a547146100d0575b600080fd5b610064610100565b005b61006e610159565b005b61008a600480360381019061008591906103b2565b6101b2565b60405161009791906103fa565b60405180910390f35b6100ba60048036038101906100b591906103b2565b6101d2565b6040516100c791906103fa565b60405180910390f35b6100ea60048036038101906100e591906103b2565b6101f2565b6040516100f791906104a5565b60405180910390f35b60016000803373ffffffffffffffffffffffffffffffffffffffff1673ffffffffffffffffffffffffffffffffffffffff16815260200190815260200160002060006101000a81548160ff021916908315150217905550565b60018060003373ffffffffffffffffffffffffffffffffffffffff1673ffffffffffffffffffffffffffffffffffffffff16815260200190815260200160002060006101000a81548160ff021916908315150217905550565b60016020528060005260406000206000915054906101000a900460ff1681565b60006020528060005260406000206000915054906101000a900460ff1681565b60606000808373ffffffffffffffffffffffffffffffffffffffff1673ffffffffffffffffffffffffffffffffffffffff16815260200190815260200160002060009054906101000a900460ff1615610282576040518060400160405280600681526020017f446f63746f720000000000000000000000000000000000000000000000000000815250905061034a565b600160008373ffffffffffffffffffffffffffffffffffffffff1673ffffffffffffffffffffffffffffffffffffffff16815260200190815260200160002060009054906101000a900460ff1615610311576040518060400160405280600781526020017f50617469656e7400000000000000000000000000000000000000000000000000815250905061034a565b6040518060400160405280600e81526020017f4e6f74207265676973746572656400000000000000000000000000000000000081525090505b919050565b600080fd5b600073ffffffffffffffffffffffffffffffffffffffff82169050919050565b600061037f82610354565b9050919050565b61038f81610374565b811461039a57600080fd5b50565b6000813590506103ac81610386565b92915050565b6000602082840312156103c8576103c761034f565b5b60006103d68482850161039d565b91505092915050565b60008115159050919050565b6103f4816103df565b82525050565b600060208201905061040f60008301846103eb565b92915050565b600081519050919050565b600082825260208201905092915050565b60005b8381101561044f578082015181840152602081019050610434565b60008484015250505050565b6000601f19601f8301169050919050565b600061047782610415565b6104818185610420565b9350610491818560208601610431565b61049a8161045b565b840191505092915050565b600060208201905081810360008301526104bf818461046c565b90509291505056fea2646970667358221220ca197d8cd23786a8699cb87e0a4f52c37db9a837495ae87c00175307c45b284364736f6c63430008130033",
  "immutableReferences": {},
  "source": "// SPDX-License-Identifier: MIT\r\npragma solidity ^0.8.19;\r\n\r\ncontract MedicalRegistry {\r\n    mapping(address => bool) public isDoctor;\r\n    mapping(address => bool) public isPatient;\r\n\r\n    function registerDoctor() external {\r\n        isDoctor[msg.sender] = true;\r\n    }\r\n\r\n    function registerPatient() external {\r\n        isPatient[msg.sender] = true;\r\n    }\r\n\r\n    function isRegistered(address user) external view returns (string memory) {\r\n        if (isDoctor[user]) {\r\n            return \"Doctor\";\r\n        } else if (isPatient[user]) {\r\n            return \"Patient\";\r\n        } else {\r\n            return \"Not registered\";\r\n        }\r\n    }\r\n}\r\n",
  "sourcePath": "C:\\gautham per\\PES\\capstone\\project\\test1\\src\\contracts\\MedicalRegistry.sol",
  "compiler": {
    "name": "solc",
    "version": "0.8.19+commit.7dd6d404.Emscripten.clang"
  },
  "schemaVersion": "3.4.15",
  "updatedAt": "2023-08-20T09:26:52.390Z",
  "networkType": "ethereum",
  "devdoc": {
    "kind": "dev",
    "methods": {},
    "version": 1
  },
  "userdoc": {
    "kind": "user",
    "methods": {},
    "version": 1
  }
}