{
  "contractName": "patient",
  "abi": [
    {
      "inputs": [],
      "stateMutability": "nonpayable",
      "type": "constructor"
    },
    {
      "inputs": [
        {
          "internalType": "address",
          "name": "writer",
          "type": "address"
        }
      ],
      "name": "giveWritePermission",
      "outputs": [],
      "stateMutability": "nonpayable",
      "type": "function"
    },
    {
      "inputs": [
        {
          "internalType": "address",
          "name": "writer",
          "type": "address"
        }
      ],
      "name": "revokeWritePermission",
      "outputs": [],
      "stateMutability": "nonpayable",
      "type": "function"
    },
    {
      "inputs": [
        {
          "internalType": "address",
          "name": "writer",
          "type": "address"
        }
      ],
      "name": "canCreateRecords",
      "outputs": [
        {
          "internalType": "bool",
          "name": "",
          "type": "bool"
        }
      ],
      "stateMutability": "view",
      "type": "function"
    }
  ],
  "bytecode": "0x608060405234801561001057600080fd5b50336000806101000a81548173ffffffffffffffffffffffffffffffffffffffff021916908373ffffffffffffffffffffffffffffffffffffffff16021790555061054d806100606000396000f3fe608060405234801561001057600080fd5b50600436106100415760003560e01c80636ca883e014610046578063d5357e0c14610062578063e77f98711461007e575b600080fd5b610060600480360381019061005b91906103cb565b6100ae565b005b61007c600480360381019061007791906103cb565b610196565b005b610098600480360381019061009391906103cb565b610312565b6040516100a59190610413565b60405180910390f35b60008054906101000a900473ffffffffffffffffffffffffffffffffffffffff1673ffffffffffffffffffffffffffffffffffffffff163373ffffffffffffffffffffffffffffffffffffffff161461013c576040517f08c379a00000000000000000000000000000000000000000000000000000000081526004016101339061048b565b60405180910390fd5b60018060008373ffffffffffffffffffffffffffffffffffffffff1673ffffffffffffffffffffffffffffffffffffffff16815260200190815260200160002060006101000a81548160ff02191690831515021790555050565b60008054906101000a900473ffffffffffffffffffffffffffffffffffffffff1673ffffffffffffffffffffffffffffffffffffffff163373ffffffffffffffffffffffffffffffffffffffff1614610224576040517f08c379a000000000000000000000000000000000000000000000000000000000815260040161021b9061048b565b60405180910390fd5b60011515600160008373ffffffffffffffffffffffffffffffffffffffff1673ffffffffffffffffffffffffffffffffffffffff16815260200190815260200160002060009054906101000a900460ff161515146102b7576040517f08c379a00000000000000000000000000000000000000000000000000000000081526004016102ae906104f7565b60405180910390fd5b6000600160008373ffffffffffffffffffffffffffffffffffffffff1673ffffffffffffffffffffffffffffffffffffffff16815260200190815260200160002060006101000a81548160ff02191690831515021790555050565b6000600160008373ffffffffffffffffffffffffffffffffffffffff1673ffffffffffffffffffffffffffffffffffffffff16815260200190815260200160002060009054906101000a900460ff169050919050565b600080fd5b600073ffffffffffffffffffffffffffffffffffffffff82169050919050565b60006103988261036d565b9050919050565b6103a88161038d565b81146103b357600080fd5b50565b6000813590506103c58161039f565b92915050565b6000602082840312156103e1576103e0610368565b5b60006103ef848285016103b6565b91505092915050565b60008115159050919050565b61040d816103f8565b82525050565b60006020820190506104286000830184610404565b92915050565b600082825260208201905092915050565b7f596f7520646f6e27742068617665207269676874732121000000000000000000600082015250565b600061047560178361042e565b91506104808261043f565b602082019050919050565b600060208201905081810360008301526104a481610468565b9050919050565b7f4e6f206e65656420746f207265766f6b65207065726d697373696f6e21210000600082015250565b60006104e1601e8361042e565b91506104ec826104ab565b602082019050919050565b60006020820190508181036000830152610510816104d4565b905091905056fea2646970667358221220ec588bf0393bd2c2bd93594b97d67eb39d816742c05e99f22b294714df78c47164736f6c634300080c0033",
  "immutableReferences": {},
  "source": "// SPDX-License-Identifier: MIT\r\npragma solidity ^0.8.12;\r\n\r\ncontract patient {\r\n    address patientAddress;\r\n\r\n    mapping(address => bool) canCreate;\r\n\r\n    constructor() public {\r\n        patientAddress = msg.sender;\r\n    }\r\n\r\n    function giveWritePermission(address writer) public {\r\n        require(msg.sender == patientAddress, \"You don't have rights!!\");\r\n        canCreate[writer] = true;\r\n    }\r\n\r\n    function revokeWritePermission(address writer) public {\r\n        require(msg.sender == patientAddress, \"You don't have rights!!\");\r\n        require(canCreate[writer] == true, \"No need to revoke permission!!\");\r\n        canCreate[writer] = false;\r\n    }\r\n\r\n    function canCreateRecords(address writer) public view returns (bool) {\r\n        return canCreate[writer];\r\n    }\r\n}\r\n",
  "sourcePath": "C:\\gautham per\\PES\\capstone\\project\\test1\\src\\contracts\\patient.sol",
  "compiler": {
    "name": "solc",
    "version": "0.8.12+commit.f00d7308.Emscripten.clang"
  },
  "schemaVersion": "3.4.15",
  "updatedAt": "2023-08-20T09:22:31.841Z",
  "devdoc": {
    "kind": "dev",
    "methods": {},
    "version": 1
  },
  "userdoc": {
    "kind": "user",
    "methods": {},
    "version": 1
  }
}