{
  "contractName": "PatientRegistry",
  "abi": [
    {
      "anonymous": false,
      "inputs": [
        {
          "indexed": true,
          "internalType": "address",
          "name": "patientAddress",
          "type": "address"
        },
        {
          "indexed": false,
          "internalType": "string",
          "name": "name",
          "type": "string"
        },
        {
          "indexed": false,
          "internalType": "string",
          "name": "bloodGroup",
          "type": "string"
        }
      ],
      "name": "PatientRegistered",
      "type": "event"
    },
    {
      "inputs": [
        {
          "internalType": "address",
          "name": "",
          "type": "address"
        }
      ],
      "name": "isPatient",
      "outputs": [
        {
          "internalType": "bool",
          "name": "",
          "type": "bool"
        }
      ],
      "stateMutability": "view",
      "type": "function",
      "constant": true
    },
    {
      "inputs": [
        {
          "internalType": "address",
          "name": "",
          "type": "address"
        }
      ],
      "name": "patients",
      "outputs": [
        {
          "internalType": "string",
          "name": "name",
          "type": "string"
        },
        {
          "internalType": "string",
          "name": "dateOfBirth",
          "type": "string"
        },
        {
          "internalType": "string",
          "name": "homeAddress",
          "type": "string"
        },
        {
          "internalType": "string",
          "name": "phoneNumber",
          "type": "string"
        },
        {
          "internalType": "address",
          "name": "walletAddress",
          "type": "address"
        },
        {
          "internalType": "string",
          "name": "gender",
          "type": "string"
        },
        {
          "internalType": "string",
          "name": "password",
          "type": "string"
        },
        {
          "internalType": "string",
          "name": "bloodGroup",
          "type": "string"
        }
      ],
      "stateMutability": "view",
      "type": "function",
      "constant": true
    },
    {
      "inputs": [
        {
          "internalType": "string",
          "name": "_name",
          "type": "string"
        },
        {
          "internalType": "string",
          "name": "_dateOfBirth",
          "type": "string"
        },
        {
          "internalType": "string",
          "name": "_homeAddress",
          "type": "string"
        },
        {
          "internalType": "string",
          "name": "_phoneNumber",
          "type": "string"
        },
        {
          "internalType": "address",
          "name": "_walletAddress",
          "type": "address"
        },
        {
          "internalType": "string",
          "name": "_gender",
          "type": "string"
        },
        {
          "internalType": "string",
          "name": "_password",
          "type": "string"
        },
        {
          "internalType": "string",
          "name": "_bloodGroup",
          "type": "string"
        }
      ],
      "name": "registerPatient",
      "outputs": [],
      "stateMutability": "nonpayable",
      "type": "function"
    },
    {
      "inputs": [
        {
          "internalType": "address",
          "name": "_walletAddress",
          "type": "address"
        }
      ],
      "name": "isRegisteredPatient",
      "outputs": [
        {
          "internalType": "bool",
          "name": "",
          "type": "bool"
        }
      ],
      "stateMutability": "view",
      "type": "function",
      "constant": true
    }
  ],
  "bytecode": "0x608060405234801561001057600080fd5b50611126806100206000396000f3fe608060405234801561001057600080fd5b506004361061004c5760003560e01c80630869cfbc146100515780633c4f7a9d146100885780638f9c79ed146100b8578063fbe4c465146100e8575b600080fd5b61006b60048036038101906100669190610905565b610104565b60405161007f9897969594939291906109d1565b60405180910390f35b6100a2600480360381019061009d9190610905565b610524565b6040516100af9190610a9b565b60405180910390f35b6100d260048036038101906100cd9190610905565b610579565b6040516100df9190610a9b565b60405180910390f35b61010260048036038101906100fd9190610beb565b610599565b005b600160205280600052604060002060009150905080600001805461012790610d94565b80601f016020809104026020016040519081016040528092919081815260200182805461015390610d94565b80156101a05780601f10610175576101008083540402835291602001916101a0565b820191906000526020600020905b81548152906001019060200180831161018357829003601f168201915b5050505050908060010180546101b590610d94565b80601f01602080910402602001604051908101604052809291908181526020018280546101e190610d94565b801561022e5780601f106102035761010080835404028352916020019161022e565b820191906000526020600020905b81548152906001019060200180831161021157829003601f168201915b50505050509080600201805461024390610d94565b80601f016020809104026020016040519081016040528092919081815260200182805461026f90610d94565b80156102bc5780601f10610291576101008083540402835291602001916102bc565b820191906000526020600020905b81548152906001019060200180831161029f57829003601f168201915b5050505050908060030180546102d190610d94565b80601f01602080910402602001604051908101604052809291908181526020018280546102fd90610d94565b801561034a5780601f1061031f5761010080835404028352916020019161034a565b820191906000526020600020905b81548152906001019060200180831161032d57829003601f168201915b5050505050908060040160009054906101000a900473ffffffffffffffffffffffffffffffffffffffff169080600501805461038590610d94565b80601f01602080910402602001604051908101604052809291908181526020018280546103b190610d94565b80156103fe5780601f106103d3576101008083540402835291602001916103fe565b820191906000526020600020905b8154815290600101906020018083116103e157829003601f168201915b50505050509080600601805461041390610d94565b80601f016020809104026020016040519081016040528092919081815260200182805461043f90610d94565b801561048c5780601f106104615761010080835404028352916020019161048c565b820191906000526020600020905b81548152906001019060200180831161046f57829003601f168201915b5050505050908060070180546104a190610d94565b80601f01602080910402602001604051908101604052809291908181526020018280546104cd90610d94565b801561051a5780601f106104ef5761010080835404028352916020019161051a565b820191906000526020600020905b8154815290600101906020018083116104fd57829003601f168201915b5050505050905088565b60008060008373ffffffffffffffffffffffffffffffffffffffff1673ffffffffffffffffffffffffffffffffffffffff16815260200190815260200160002060009054906101000a900460ff169050919050565b60006020528060005260406000206000915054906101000a900460ff1681565b8373ffffffffffffffffffffffffffffffffffffffff16600160008673ffffffffffffffffffffffffffffffffffffffff1673ffffffffffffffffffffffffffffffffffffffff16815260200190815260200160002060040160009054906101000a900473ffffffffffffffffffffffffffffffffffffffff1673ffffffffffffffffffffffffffffffffffffffff1603610669576040517f08c379a000000000000000000000000000000000000000000000000000000000815260040161066090610e11565b60405180910390fd5b60006040518061010001604052808a81526020018981526020018881526020018781526020018673ffffffffffffffffffffffffffffffffffffffff16815260200185815260200184815260200183815250905080600160008773ffffffffffffffffffffffffffffffffffffffff1673ffffffffffffffffffffffffffffffffffffffff16815260200190815260200160002060008201518160000190816107129190610fe7565b5060208201518160010190816107289190610fe7565b50604082015181600201908161073e9190610fe7565b5060608201518160030190816107549190610fe7565b5060808201518160040160006101000a81548173ffffffffffffffffffffffffffffffffffffffff021916908373ffffffffffffffffffffffffffffffffffffffff16021790555060a08201518160050190816107b19190610fe7565b5060c08201518160060190816107c79190610fe7565b5060e08201518160070190816107dd9190610fe7565b5090505060016000808773ffffffffffffffffffffffffffffffffffffffff1673ffffffffffffffffffffffffffffffffffffffff16815260200190815260200160002060006101000a81548160ff0219169083151502179055508473ffffffffffffffffffffffffffffffffffffffff167f5aad8bc7ad9861b16c6d01a65f54118dfe585a51e408ac2e7b9499148d515c418a846040516108809291906110b9565b60405180910390a2505050505050505050565b6000604051905090565b600080fd5b600080fd5b600073ffffffffffffffffffffffffffffffffffffffff82169050919050565b60006108d2826108a7565b9050919050565b6108e2816108c7565b81146108ed57600080fd5b50565b6000813590506108ff816108d9565b92915050565b60006020828403121561091b5761091a61089d565b5b6000610929848285016108f0565b91505092915050565b600081519050919050565b600082825260208201905092915050565b60005b8381101561096c578082015181840152602081019050610951565b60008484015250505050565b6000601f19601f8301169050919050565b600061099482610932565b61099e818561093d565b93506109ae81856020860161094e565b6109b781610978565b840191505092915050565b6109cb816108c7565b82525050565b60006101008201905081810360008301526109ec818b610989565b90508181036020830152610a00818a610989565b90508181036040830152610a148189610989565b90508181036060830152610a288188610989565b9050610a3760808301876109c2565b81810360a0830152610a498186610989565b905081810360c0830152610a5d8185610989565b905081810360e0830152610a718184610989565b90509998505050505050505050565b60008115159050919050565b610a9581610a80565b82525050565b6000602082019050610ab06000830184610a8c565b92915050565b600080fd5b600080fd5b7f4e487b7100000000000000000000000000000000000000000000000000000000600052604160045260246000fd5b610af882610978565b810181811067ffffffffffffffff82111715610b1757610b16610ac0565b5b80604052505050565b6000610b2a610893565b9050610b368282610aef565b919050565b600067ffffffffffffffff821115610b5657610b55610ac0565b5b610b5f82610978565b9050602081019050919050565b82818337600083830152505050565b6000610b8e610b8984610b3b565b610b20565b905082815260208101848484011115610baa57610ba9610abb565b5b610bb5848285610b6c565b509392505050565b600082601f830112610bd257610bd1610ab6565b5b8135610be2848260208601610b7b565b91505092915050565b600080600080600080600080610100898b031215610c0c57610c0b61089d565b5b600089013567ffffffffffffffff811115610c2a57610c296108a2565b5b610c368b828c01610bbd565b985050602089013567ffffffffffffffff811115610c5757610c566108a2565b5b610c638b828c01610bbd565b975050604089013567ffffffffffffffff811115610c8457610c836108a2565b5b610c908b828c01610bbd565b965050606089013567ffffffffffffffff811115610cb157610cb06108a2565b5b610cbd8b828c01610bbd565b9550506080610cce8b828c016108f0565b94505060a089013567ffffffffffffffff811115610cef57610cee6108a2565b5b610cfb8b828c01610bbd565b93505060c089013567ffffffffffffffff811115610d1c57610d1b6108a2565b5b610d288b828c01610bbd565b92505060e089013567ffffffffffffffff811115610d4957610d486108a2565b5b610d558b828c01610bbd565b9150509295985092959890939650565b7f4e487b7100000000000000000000000000000000000000000000000000000000600052602260045260246000fd5b60006002820490506001821680610dac57607f821691505b602082108103610dbf57610dbe610d65565b5b50919050565b7f50617469656e7420616c72656164792072656769737465726564000000000000600082015250565b6000610dfb601a8361093d565b9150610e0682610dc5565b602082019050919050565b60006020820190508181036000830152610e2a81610dee565b9050919050565b60008190508160005260206000209050919050565b60006020601f8301049050919050565b600082821b905092915050565b600060088302610e937fffffffffffffffffffffffffffffffffffffffffffffffffffffffffffffffff82610e56565b610e9d8683610e56565b95508019841693508086168417925050509392505050565b6000819050919050565b6000819050919050565b6000610ee4610edf610eda84610eb5565b610ebf565b610eb5565b9050919050565b6000819050919050565b610efe83610ec9565b610f12610f0a82610eeb565b848454610e63565b825550505050565b600090565b610f27610f1a565b610f32818484610ef5565b505050565b5b81811015610f5657610f4b600082610f1f565b600181019050610f38565b5050565b601f821115610f9b57610f6c81610e31565b610f7584610e46565b81016020851015610f84578190505b610f98610f9085610e46565b830182610f37565b50505b505050565b600082821c905092915050565b6000610fbe60001984600802610fa0565b1980831691505092915050565b6000610fd78383610fad565b9150826002028217905092915050565b610ff082610932565b67ffffffffffffffff81111561100957611008610ac0565b5b6110138254610d94565b61101e828285610f5a565b600060209050601f831160018114611051576000841561103f578287015190505b6110498582610fcb565b8655506110b1565b601f19841661105f86610e31565b60005b8281101561108757848901518255600182019150602085019450602081019050611062565b868310156110a457848901516110a0601f891682610fad565b8355505b6001600288020188555050505b505050505050565b600060408201905081810360008301526110d38185610989565b905081810360208301526110e78184610989565b9050939250505056fea2646970667358221220e22e8dd3680abcfe9daa4b73054aebc987b3a4f4bed0dac860688883fb3873e364736f6c63430008130033",
  "immutableReferences": {},
  "source": "pragma solidity ^0.8.19;\r\n\r\ncontract PatientRegistry {\r\n    struct Patient {\r\n        string name;\r\n        string dateOfBirth;\r\n        string homeAddress;\r\n        string phoneNumber;\r\n        address walletAddress;\r\n        string gender;\r\n        string password;\r\n        string bloodGroup; // Added blood group field\r\n    }\r\n\r\n    mapping(address => bool) public isPatient;\r\n    mapping(address => Patient) public patients;\r\n    mapping(address => mapping(address => bool)) private canCreate;\r\n    event PatientRegistered(address indexed patientAddress, string name, string bloodGroup); // Updated event with blood group\r\n\r\n    function registerPatient(\r\n        string memory _name,\r\n        string memory _dateOfBirth,\r\n        string memory _homeAddress,\r\n        string memory _phoneNumber,\r\n        address _walletAddress,\r\n        string memory _gender,\r\n        string memory _password,\r\n        string memory _bloodGroup // Include blood group parameter\r\n    ) external {\r\n        require(\r\n            patients[_walletAddress].walletAddress != _walletAddress,\r\n            \"Patient already registered\"\r\n        );\r\n\r\n        Patient memory newPatient = Patient({\r\n            name: _name,\r\n            dateOfBirth: _dateOfBirth,\r\n            homeAddress: _homeAddress,\r\n            phoneNumber: _phoneNumber,\r\n            walletAddress: _walletAddress,\r\n            gender: _gender,\r\n            password: _password,\r\n            bloodGroup: _bloodGroup // Store blood group in the struct\r\n        });\r\n\r\n        patients[_walletAddress] = newPatient;\r\n        isPatient[_walletAddress] = true;\r\n        emit PatientRegistered(_walletAddress, _name, _bloodGroup); // Emit blood group\r\n    }\r\n\r\n    function isRegisteredPatient(address _walletAddress) external view returns (bool) {\r\n        return isPatient[_walletAddress];\r\n    }\r\n\r\n    // Other functions remain the same with changes for blood group\r\n}\r\n",
  "sourcePath": "/Users/sonupradhan/Desktop/EHR/src/contracts/PatientRegistry.sol",
  "compiler": {
    "name": "solc",
    "version": "0.8.19+commit.7dd6d404.Emscripten.clang"
  },
  "schemaVersion": "3.4.16",
  "updatedAt": "2024-04-20T21:14:30.841Z",
  "networkType": "ethereum",
  "devdoc": {
    "kind": "dev",
    "methods": {},
    "version": 1
  },
  "userdoc": {
    "kind": "user",
    "methods": {},
    "version": 1
  }
}