{
  "contractName": "PatientRegistry",
  "abi": [
    {
      "anonymous": false,
      "inputs": [
        {
          "indexed": true,
          "internalType": "address",
          "name": "patientAddress",
          "type": "address"
        },
        {
          "indexed": false,
          "internalType": "string",
          "name": "name",
          "type": "string"
        }
      ],
      "name": "PatientRegistered",
      "type": "event"
    },
    {
      "inputs": [
        {
          "internalType": "address",
          "name": "",
          "type": "address"
        }
      ],
      "name": "isPatient",
      "outputs": [
        {
          "internalType": "bool",
          "name": "",
          "type": "bool"
        }
      ],
      "stateMutability": "view",
      "type": "function",
      "constant": true
    },
    {
      "inputs": [
        {
          "internalType": "address",
          "name": "",
          "type": "address"
        }
      ],
      "name": "patients",
      "outputs": [
        {
          "internalType": "string",
          "name": "name",
          "type": "string"
        },
        {
          "internalType": "string",
          "name": "dateOfBirth",
          "type": "string"
        },
        {
          "internalType": "string",
          "name": "homeAddress",
          "type": "string"
        },
        {
          "internalType": "string",
          "name": "phoneNumber",
          "type": "string"
        },
        {
          "internalType": "address",
          "name": "walletAddress",
          "type": "address"
        },
        {
          "internalType": "string",
          "name": "gender",
          "type": "string"
        },
        {
          "internalType": "string",
          "name": "password",
          "type": "string"
        }
      ],
      "stateMutability": "view",
      "type": "function",
      "constant": true
    },
    {
      "inputs": [
        {
          "internalType": "string",
          "name": "_name",
          "type": "string"
        },
        {
          "internalType": "string",
          "name": "_dateOfBirth",
          "type": "string"
        },
        {
          "internalType": "string",
          "name": "_homeAddress",
          "type": "string"
        },
        {
          "internalType": "string",
          "name": "_phoneNumber",
          "type": "string"
        },
        {
          "internalType": "address",
          "name": "_walletAddress",
          "type": "address"
        },
        {
          "internalType": "string",
          "name": "_gender",
          "type": "string"
        },
        {
          "internalType": "string",
          "name": "_password",
          "type": "string"
        }
      ],
      "name": "registerPatient",
      "outputs": [],
      "stateMutability": "nonpayable",
      "type": "function"
    },
    {
      "inputs": [
        {
          "internalType": "address",
          "name": "_walletAddress",
          "type": "address"
        }
      ],
      "name": "isRegisteredPatient",
      "outputs": [
        {
          "internalType": "bool",
          "name": "",
          "type": "bool"
        }
      ],
      "stateMutability": "view",
      "type": "function",
      "constant": true
    },
    {
      "inputs": [
        {
          "internalType": "address",
          "name": "_walletAddress",
          "type": "address"
        },
        {
          "internalType": "string",
          "name": "_password",
          "type": "string"
        }
      ],
      "name": "validatePatientPassword",
      "outputs": [
        {
          "internalType": "bool",
          "name": "",
          "type": "bool"
        }
      ],
      "stateMutability": "view",
      "type": "function",
      "constant": true
    },
    {
      "inputs": [
        {
          "internalType": "address",
          "name": "_walletAddress",
          "type": "address"
        }
      ],
      "name": "givepermissioncreate",
      "outputs": [],
      "stateMutability": "nonpayable",
      "type": "function"
    },
    {
      "inputs": [
        {
          "internalType": "address",
          "name": "_walletAddress",
          "type": "address"
        }
      ],
      "name": "revokepermissioncreate",
      "outputs": [],
      "stateMutability": "nonpayable",
      "type": "function"
    },
    {
      "inputs": [
        {
          "internalType": "address",
          "name": "patientaddress",
          "type": "address"
        },
        {
          "internalType": "address",
          "name": "_walletAddress",
          "type": "address"
        }
      ],
      "name": "haspermission",
      "outputs": [
        {
          "internalType": "bool",
          "name": "",
          "type": "bool"
        }
      ],
      "stateMutability": "view",
      "type": "function",
      "constant": true
    }
  ],
  "bytecode": "0x608060405234801561001057600080fd5b506114d7806100206000396000f3fe608060405234801561001057600080fd5b50600436106100885760003560e01c80633c4f7a9d1161005b5780633c4f7a9d1461012b5780638f9c79ed1461015b57806396da57511461018b578063ab3ac4ab146101bb57610088565b806303efe6921461008d5780630869cfbc146100a957806321d61124146100df5780632d2760d8146100fb575b600080fd5b6100a760048036038101906100a29190610b88565b6101d7565b005b6100c360048036038101906100be9190610b88565b61026f565b6040516100d69796959493929190610c54565b60405180910390f35b6100f960048036038101906100f49190610e22565b610601565b005b61011560048036038101906101109190610f6c565b6108db565b6040516101229190610fc7565b60405180910390f35b61014560048036038101906101409190610b88565b61096f565b6040516101529190610fc7565b60405180910390f35b61017560048036038101906101709190610b88565b6109c4565b6040516101829190610fc7565b60405180910390f35b6101a560048036038101906101a09190610fe2565b6109e4565b6040516101b29190610fc7565b60405180910390f35b6101d560048036038101906101d09190610b88565b610a7e565b005b6001600260003373ffffffffffffffffffffffffffffffffffffffff1673ffffffffffffffffffffffffffffffffffffffff16815260200190815260200160002060008373ffffffffffffffffffffffffffffffffffffffff1673ffffffffffffffffffffffffffffffffffffffff16815260200190815260200160002060006101000a81548160ff02191690831515021790555050565b60016020528060005260406000206000915090508060000180546102929061106d565b80601f01602080910402602001604051908101604052809291908181526020018280546102be9061106d565b801561030b5780601f106102e05761010080835404028352916020019161030b565b820191906000526020600020905b8154815290600101906020018083116102ee57829003601f168201915b5050505050908060010180546103209061106d565b80601f016020809104026020016040519081016040528092919081815260200182805461034c9061106d565b80156103995780601f1061036e57610100808354040283529160200191610399565b820191906000526020600020905b81548152906001019060200180831161037c57829003601f168201915b5050505050908060020180546103ae9061106d565b80601f01602080910402602001604051908101604052809291908181526020018280546103da9061106d565b80156104275780601f106103fc57610100808354040283529160200191610427565b820191906000526020600020905b81548152906001019060200180831161040a57829003601f168201915b50505050509080600301805461043c9061106d565b80601f01602080910402602001604051908101604052809291908181526020018280546104689061106d565b80156104b55780601f1061048a576101008083540402835291602001916104b5565b820191906000526020600020905b81548152906001019060200180831161049857829003601f168201915b5050505050908060040160009054906101000a900473ffffffffffffffffffffffffffffffffffffffff16908060050180546104f09061106d565b80601f016020809104026020016040519081016040528092919081815260200182805461051c9061106d565b80156105695780601f1061053e57610100808354040283529160200191610569565b820191906000526020600020905b81548152906001019060200180831161054c57829003601f168201915b50505050509080600601805461057e9061106d565b80601f01602080910402602001604051908101604052809291908181526020018280546105aa9061106d565b80156105f75780601f106105cc576101008083540402835291602001916105f7565b820191906000526020600020905b8154815290600101906020018083116105da57829003601f168201915b5050505050905087565b8273ffffffffffffffffffffffffffffffffffffffff16600160008573ffffffffffffffffffffffffffffffffffffffff1673ffffffffffffffffffffffffffffffffffffffff16815260200190815260200160002060040160009054906101000a900473ffffffffffffffffffffffffffffffffffffffff1673ffffffffffffffffffffffffffffffffffffffff16036106d1576040517f08c379a00000000000000000000000000000000000000000000000000000000081526004016106c8906110ea565b60405180910390fd5b60006040518060e001604052808981526020018881526020018781526020018681526020018573ffffffffffffffffffffffffffffffffffffffff16815260200184815260200183815250905080600160008673ffffffffffffffffffffffffffffffffffffffff1673ffffffffffffffffffffffffffffffffffffffff168152602001908152602001600020600082015181600001908161077391906112c0565b50602082015181600101908161078991906112c0565b50604082015181600201908161079f91906112c0565b5060608201518160030190816107b591906112c0565b5060808201518160040160006101000a81548173ffffffffffffffffffffffffffffffffffffffff021916908373ffffffffffffffffffffffffffffffffffffffff16021790555060a082015181600501908161081291906112c0565b5060c082015181600601908161082891906112c0565b5090505060016000808673ffffffffffffffffffffffffffffffffffffffff1673ffffffffffffffffffffffffffffffffffffffff16815260200190815260200160002060006101000a81548160ff0219169083151502179055508373ffffffffffffffffffffffffffffffffffffffff167fc85b128388b9c331a2a5485dce4cd0f3db9f7c279d327ce95d6d39d6c94644c7896040516108c99190611392565b60405180910390a25050505050505050565b6000600260008473ffffffffffffffffffffffffffffffffffffffff1673ffffffffffffffffffffffffffffffffffffffff16815260200190815260200160002060008373ffffffffffffffffffffffffffffffffffffffff1673ffffffffffffffffffffffffffffffffffffffff16815260200190815260200160002060009054906101000a900460ff16905092915050565b60008060008373ffffffffffffffffffffffffffffffffffffffff1673ffffffffffffffffffffffffffffffffffffffff16815260200190815260200160002060009054906101000a900460ff169050919050565b60006020528060005260406000206000915054906101000a900460ff1681565b6000600160008473ffffffffffffffffffffffffffffffffffffffff1673ffffffffffffffffffffffffffffffffffffffff168152602001908152602001600020600601604051602001610a389190611442565b6040516020818303038152906040528051906020012082604051602001610a5f919061148a565b6040516020818303038152906040528051906020012014905092915050565b6000600260003373ffffffffffffffffffffffffffffffffffffffff1673ffffffffffffffffffffffffffffffffffffffff16815260200190815260200160002060008373ffffffffffffffffffffffffffffffffffffffff1673ffffffffffffffffffffffffffffffffffffffff16815260200190815260200160002060006101000a81548160ff02191690831515021790555050565b6000604051905090565b600080fd5b600080fd5b600073ffffffffffffffffffffffffffffffffffffffff82169050919050565b6000610b5582610b2a565b9050919050565b610b6581610b4a565b8114610b7057600080fd5b50565b600081359050610b8281610b5c565b92915050565b600060208284031215610b9e57610b9d610b20565b5b6000610bac84828501610b73565b91505092915050565b600081519050919050565b600082825260208201905092915050565b60005b83811015610bef578082015181840152602081019050610bd4565b60008484015250505050565b6000601f19601f8301169050919050565b6000610c1782610bb5565b610c218185610bc0565b9350610c31818560208601610bd1565b610c3a81610bfb565b840191505092915050565b610c4e81610b4a565b82525050565b600060e0820190508181036000830152610c6e818a610c0c565b90508181036020830152610c828189610c0c565b90508181036040830152610c968188610c0c565b90508181036060830152610caa8187610c0c565b9050610cb96080830186610c45565b81810360a0830152610ccb8185610c0c565b905081810360c0830152610cdf8184610c0c565b905098975050505050505050565b600080fd5b600080fd5b7f4e487b7100000000000000000000000000000000000000000000000000000000600052604160045260246000fd5b610d2f82610bfb565b810181811067ffffffffffffffff82111715610d4e57610d4d610cf7565b5b80604052505050565b6000610d61610b16565b9050610d6d8282610d26565b919050565b600067ffffffffffffffff821115610d8d57610d8c610cf7565b5b610d9682610bfb565b9050602081019050919050565b82818337600083830152505050565b6000610dc5610dc084610d72565b610d57565b905082815260208101848484011115610de157610de0610cf2565b5b610dec848285610da3565b509392505050565b600082601f830112610e0957610e08610ced565b5b8135610e19848260208601610db2565b91505092915050565b600080600080600080600060e0888a031215610e4157610e40610b20565b5b600088013567ffffffffffffffff811115610e5f57610e5e610b25565b5b610e6b8a828b01610df4565b975050602088013567ffffffffffffffff811115610e8c57610e8b610b25565b5b610e988a828b01610df4565b965050604088013567ffffffffffffffff811115610eb957610eb8610b25565b5b610ec58a828b01610df4565b955050606088013567ffffffffffffffff811115610ee657610ee5610b25565b5b610ef28a828b01610df4565b9450506080610f038a828b01610b73565b93505060a088013567ffffffffffffffff811115610f2457610f23610b25565b5b610f308a828b01610df4565b92505060c088013567ffffffffffffffff811115610f5157610f50610b25565b5b610f5d8a828b01610df4565b91505092959891949750929550565b60008060408385031215610f8357610f82610b20565b5b6000610f9185828601610b73565b9250506020610fa285828601610b73565b9150509250929050565b60008115159050919050565b610fc181610fac565b82525050565b6000602082019050610fdc6000830184610fb8565b92915050565b60008060408385031215610ff957610ff8610b20565b5b600061100785828601610b73565b925050602083013567ffffffffffffffff81111561102857611027610b25565b5b61103485828601610df4565b9150509250929050565b7f4e487b7100000000000000000000000000000000000000000000000000000000600052602260045260246000fd5b6000600282049050600182168061108557607f821691505b6020821081036110985761109761103e565b5b50919050565b7f50617469656e7420616c72656164792072656769737465726564000000000000600082015250565b60006110d4601a83610bc0565b91506110df8261109e565b602082019050919050565b60006020820190508181036000830152611103816110c7565b9050919050565b60008190508160005260206000209050919050565b60006020601f8301049050919050565b600082821b905092915050565b60006008830261116c7fffffffffffffffffffffffffffffffffffffffffffffffffffffffffffffffff8261112f565b611176868361112f565b95508019841693508086168417925050509392505050565b6000819050919050565b6000819050919050565b60006111bd6111b86111b38461118e565b611198565b61118e565b9050919050565b6000819050919050565b6111d7836111a2565b6111eb6111e3826111c4565b84845461113c565b825550505050565b600090565b6112006111f3565b61120b8184846111ce565b505050565b5b8181101561122f576112246000826111f8565b600181019050611211565b5050565b601f821115611274576112458161110a565b61124e8461111f565b8101602085101561125d578190505b6112716112698561111f565b830182611210565b50505b505050565b600082821c905092915050565b600061129760001984600802611279565b1980831691505092915050565b60006112b08383611286565b9150826002028217905092915050565b6112c982610bb5565b67ffffffffffffffff8111156112e2576112e1610cf7565b5b6112ec825461106d565b6112f7828285611233565b600060209050601f83116001811461132a5760008415611318578287015190505b61132285826112a4565b86555061138a565b601f1984166113388661110a565b60005b828110156113605784890151825560018201915060208501945060208101905061133b565b8683101561137d5784890151611379601f891682611286565b8355505b6001600288020188555050505b505050505050565b600060208201905081810360008301526113ac8184610c0c565b905092915050565b600081905092915050565b600081546113cc8161106d565b6113d681866113b4565b945060018216600081146113f1576001811461140657611439565b60ff1983168652811515820286019350611439565b61140f8561110a565b60005b8381101561143157815481890152600182019150602081019050611412565b838801955050505b50505092915050565b600061144e82846113bf565b915081905092915050565b600061146482610bb5565b61146e81856113b4565b935061147e818560208601610bd1565b80840191505092915050565b60006114968284611459565b91508190509291505056fea264697066735822122048b40ac845df3e8ca898ddca7039e2d63574ce3eb4e259459f94c241f6102e8664736f6c63430008130033",
  "immutableReferences": {},
  "source": "// SPDX-License-Identifier: MIT\r\npragma solidity ^0.8.19;\r\n\r\ncontract PatientRegistry {\r\n    struct Patient {\r\n        string name;\r\n        string dateOfBirth;\r\n        string homeAddress;\r\n        string phoneNumber;\r\n        address walletAddress;\r\n        string gender;\r\n        string password;\r\n    }\r\n\r\n    mapping(address => bool) public isPatient;\r\n    mapping(address => Patient) public patients;\r\n    mapping(address => mapping(address => bool)) private canCreate;\r\n    event PatientRegistered(address indexed patientAddress, string name);\r\n\r\n    function registerPatient(\r\n        string memory _name,\r\n        string memory _dateOfBirth,\r\n        string memory _homeAddress,\r\n        string memory _phoneNumber,\r\n        address _walletAddress,\r\n        string memory _gender,\r\n        string memory _password\r\n\r\n    ) external {\r\n        require(\r\n            patients[_walletAddress].walletAddress != _walletAddress,\r\n            \"Patient already registered\"\r\n        );\r\n\r\n        Patient memory newPatient = Patient({\r\n            name: _name,\r\n            dateOfBirth: _dateOfBirth,\r\n            homeAddress: _homeAddress,\r\n            phoneNumber: _phoneNumber,\r\n            walletAddress: _walletAddress,\r\n            gender: _gender,\r\n            password: _password // Store password in the struct\r\n\r\n        });\r\n\r\n        patients[_walletAddress] = newPatient;\r\n        isPatient[_walletAddress] = true;\r\n        emit PatientRegistered(_walletAddress, _name);\r\n    }\r\n\r\n    function isRegisteredPatient(\r\n        address _walletAddress\r\n    ) external view returns (bool) {\r\n        return isPatient[_walletAddress];\r\n    }\r\n// Add a function to validate patient's password\r\nfunction validatePatientPassword(address _walletAddress, string memory _password) external view returns (bool) {\r\n    return keccak256(abi.encodePacked(_password)) == keccak256(abi.encodePacked(patients[_walletAddress].password));\r\n}\r\n\r\n    function givepermissioncreate(address _walletAddress) public {\r\n        canCreate[msg.sender][_walletAddress] = true;\r\n    }\r\n\r\n    function revokepermissioncreate(address _walletAddress) public {\r\n        canCreate[msg.sender][_walletAddress] = false;\r\n    }\r\n\r\n    function haspermission(\r\n        address patientaddress,\r\n        address _walletAddress\r\n    ) external view returns (bool) {\r\n        return canCreate[patientaddress][_walletAddress];\r\n    }\r\n}\r\n",
  "sourcePath": "/Users/sonupradhan/Desktop/EHR/src/contracts/PatientRegistry.sol",
  "compiler": {
    "name": "solc",
    "version": "0.8.19+commit.7dd6d404.Emscripten.clang"
  },
  "schemaVersion": "3.4.16",
  "updatedAt": "2024-04-21T15:04:43.945Z",
  "networkType": "ethereum",
  "devdoc": {
    "kind": "dev",
    "methods": {},
    "version": 1
  },
  "userdoc": {
    "kind": "user",
    "methods": {},
    "version": 1
  }
}