{
  "contractName": "PatientRegistry",
  "abi": [
    {
      "anonymous": false,
      "inputs": [
        {
          "indexed": true,
          "internalType": "address",
          "name": "patientAddress",
          "type": "address"
        },
        {
          "indexed": false,
          "internalType": "string",
          "name": "name",
          "type": "string"
        }
      ],
      "name": "PatientRegistered",
      "type": "event"
    },
    {
      "inputs": [
        {
          "internalType": "address",
          "name": "",
          "type": "address"
        }
      ],
      "name": "isPatient",
      "outputs": [
        {
          "internalType": "bool",
          "name": "",
          "type": "bool"
        }
      ],
      "stateMutability": "view",
      "type": "function",
      "constant": true
    },
    {
      "inputs": [
        {
          "internalType": "address",
          "name": "",
          "type": "address"
        }
      ],
      "name": "patients",
      "outputs": [
        {
          "internalType": "string",
          "name": "name",
          "type": "string"
        },
        {
          "internalType": "string",
          "name": "dateOfBirth",
          "type": "string"
        },
        {
          "internalType": "string",
          "name": "homeAddress",
          "type": "string"
        },
        {
          "internalType": "string",
          "name": "phoneNumber",
          "type": "string"
        },
        {
          "internalType": "address",
          "name": "walletAddress",
          "type": "address"
        },
        {
          "internalType": "string",
          "name": "gender",
          "type": "string"
        },
        {
          "internalType": "string",
          "name": "bloodGroup",
          "type": "string"
        },
        {
          "internalType": "string",
          "name": "password",
          "type": "string"
        }
      ],
      "stateMutability": "view",
      "type": "function",
      "constant": true
    },
    {
      "inputs": [
        {
          "internalType": "string",
          "name": "_name",
          "type": "string"
        },
        {
          "internalType": "string",
          "name": "_dateOfBirth",
          "type": "string"
        },
        {
          "internalType": "string",
          "name": "_homeAddress",
          "type": "string"
        },
        {
          "internalType": "string",
          "name": "_phoneNumber",
          "type": "string"
        },
        {
          "internalType": "address",
          "name": "_walletAddress",
          "type": "address"
        },
        {
          "internalType": "string",
          "name": "_gender",
          "type": "string"
        },
        {
          "internalType": "string",
          "name": "_bloodGroup",
          "type": "string"
        },
        {
          "internalType": "string",
          "name": "_password",
          "type": "string"
        }
      ],
      "name": "registerPatient",
      "outputs": [],
      "stateMutability": "nonpayable",
      "type": "function"
    },
    {
      "inputs": [
        {
          "internalType": "address",
          "name": "_walletAddress",
          "type": "address"
        }
      ],
      "name": "isRegisteredPatient",
      "outputs": [
        {
          "internalType": "bool",
          "name": "",
          "type": "bool"
        }
      ],
      "stateMutability": "view",
      "type": "function",
      "constant": true
    },
    {
      "inputs": [
        {
          "internalType": "address",
          "name": "_walletAddress",
          "type": "address"
        },
        {
          "internalType": "string",
          "name": "_password",
          "type": "string"
        }
      ],
      "name": "validatePatientPassword",
      "outputs": [
        {
          "internalType": "bool",
          "name": "",
          "type": "bool"
        }
      ],
      "stateMutability": "view",
      "type": "function",
      "constant": true
    },
    {
      "inputs": [
        {
          "internalType": "address",
          "name": "_walletAddress",
          "type": "address"
        }
      ],
      "name": "givepermissioncreate",
      "outputs": [],
      "stateMutability": "nonpayable",
      "type": "function"
    },
    {
      "inputs": [
        {
          "internalType": "address",
          "name": "_walletAddress",
          "type": "address"
        }
      ],
      "name": "revokepermissioncreate",
      "outputs": [],
      "stateMutability": "nonpayable",
      "type": "function"
    },
    {
      "inputs": [
        {
          "internalType": "address",
          "name": "patientaddress",
          "type": "address"
        },
        {
          "internalType": "address",
          "name": "_walletAddress",
          "type": "address"
        }
      ],
      "name": "haspermission",
      "outputs": [
        {
          "internalType": "bool",
          "name": "",
          "type": "bool"
        }
      ],
      "stateMutability": "view",
      "type": "function",
      "constant": true
    }
  ],
  "bytecode": "0x608060405234801561001057600080fd5b506115ca806100206000396000f3fe608060405234801561001057600080fd5b50600436106100885760003560e01c80638f9c79ed1161005b5780638f9c79ed1461014057806396da575114610170578063ab3ac4ab146101a0578063fbe4c465146101bc57610088565b806303efe6921461008d5780630869cfbc146100a95780632d2760d8146100e05780633c4f7a9d14610110575b600080fd5b6100a760048036038101906100a29190610c35565b6101d8565b005b6100c360048036038101906100be9190610c35565b610270565b6040516100d7989796959493929190610d01565b60405180910390f35b6100fa60048036038101906100f59190610db0565b610690565b6040516101079190610e0b565b60405180910390f35b61012a60048036038101906101259190610c35565b610724565b6040516101379190610e0b565b60405180910390f35b61015a60048036038101906101559190610c35565b610779565b6040516101679190610e0b565b60405180910390f35b61018a60048036038101906101859190610f5b565b610799565b6040516101979190610e0b565b60405180910390f35b6101ba60048036038101906101b59190610c35565b610833565b005b6101d660048036038101906101d19190610fb7565b6108cb565b005b6001600260003373ffffffffffffffffffffffffffffffffffffffff1673ffffffffffffffffffffffffffffffffffffffff16815260200190815260200160002060008373ffffffffffffffffffffffffffffffffffffffff1673ffffffffffffffffffffffffffffffffffffffff16815260200190815260200160002060006101000a81548160ff02191690831515021790555050565b600160205280600052604060002060009150905080600001805461029390611160565b80601f01602080910402602001604051908101604052809291908181526020018280546102bf90611160565b801561030c5780601f106102e15761010080835404028352916020019161030c565b820191906000526020600020905b8154815290600101906020018083116102ef57829003601f168201915b50505050509080600101805461032190611160565b80601f016020809104026020016040519081016040528092919081815260200182805461034d90611160565b801561039a5780601f1061036f5761010080835404028352916020019161039a565b820191906000526020600020905b81548152906001019060200180831161037d57829003601f168201915b5050505050908060020180546103af90611160565b80601f01602080910402602001604051908101604052809291908181526020018280546103db90611160565b80156104285780601f106103fd57610100808354040283529160200191610428565b820191906000526020600020905b81548152906001019060200180831161040b57829003601f168201915b50505050509080600301805461043d90611160565b80601f016020809104026020016040519081016040528092919081815260200182805461046990611160565b80156104b65780601f1061048b576101008083540402835291602001916104b6565b820191906000526020600020905b81548152906001019060200180831161049957829003601f168201915b5050505050908060040160009054906101000a900473ffffffffffffffffffffffffffffffffffffffff16908060050180546104f190611160565b80601f016020809104026020016040519081016040528092919081815260200182805461051d90611160565b801561056a5780601f1061053f5761010080835404028352916020019161056a565b820191906000526020600020905b81548152906001019060200180831161054d57829003601f168201915b50505050509080600601805461057f90611160565b80601f01602080910402602001604051908101604052809291908181526020018280546105ab90611160565b80156105f85780601f106105cd576101008083540402835291602001916105f8565b820191906000526020600020905b8154815290600101906020018083116105db57829003601f168201915b50505050509080600701805461060d90611160565b80601f016020809104026020016040519081016040528092919081815260200182805461063990611160565b80156106865780601f1061065b57610100808354040283529160200191610686565b820191906000526020600020905b81548152906001019060200180831161066957829003601f168201915b5050505050905088565b6000600260008473ffffffffffffffffffffffffffffffffffffffff1673ffffffffffffffffffffffffffffffffffffffff16815260200190815260200160002060008373ffffffffffffffffffffffffffffffffffffffff1673ffffffffffffffffffffffffffffffffffffffff16815260200190815260200160002060009054906101000a900460ff16905092915050565b60008060008373ffffffffffffffffffffffffffffffffffffffff1673ffffffffffffffffffffffffffffffffffffffff16815260200190815260200160002060009054906101000a900460ff169050919050565b60006020528060005260406000206000915054906101000a900460ff1681565b6000600160008473ffffffffffffffffffffffffffffffffffffffff1673ffffffffffffffffffffffffffffffffffffffff1681526020019081526020016000206007016040516020016107ed9190611234565b6040516020818303038152906040528051906020012082604051602001610814919061127c565b6040516020818303038152906040528051906020012014905092915050565b6000600260003373ffffffffffffffffffffffffffffffffffffffff1673ffffffffffffffffffffffffffffffffffffffff16815260200190815260200160002060008373ffffffffffffffffffffffffffffffffffffffff1673ffffffffffffffffffffffffffffffffffffffff16815260200190815260200160002060006101000a81548160ff02191690831515021790555050565b8373ffffffffffffffffffffffffffffffffffffffff16600160008673ffffffffffffffffffffffffffffffffffffffff1673ffffffffffffffffffffffffffffffffffffffff16815260200190815260200160002060040160009054906101000a900473ffffffffffffffffffffffffffffffffffffffff1673ffffffffffffffffffffffffffffffffffffffff160361099b576040517f08c379a0000000000000000000000000000000000000000000000000000000008152600401610992906112df565b60405180910390fd5b60006040518061010001604052808a81526020018981526020018881526020018781526020018673ffffffffffffffffffffffffffffffffffffffff16815260200185815260200184815260200183815250905080600160008773ffffffffffffffffffffffffffffffffffffffff1673ffffffffffffffffffffffffffffffffffffffff1681526020019081526020016000206000820151816000019081610a4491906114a0565b506020820151816001019081610a5a91906114a0565b506040820151816002019081610a7091906114a0565b506060820151816003019081610a8691906114a0565b5060808201518160040160006101000a81548173ffffffffffffffffffffffffffffffffffffffff021916908373ffffffffffffffffffffffffffffffffffffffff16021790555060a0820151816005019081610ae391906114a0565b5060c0820151816006019081610af991906114a0565b5060e0820151816007019081610b0f91906114a0565b5090505060016000808773ffffffffffffffffffffffffffffffffffffffff1673ffffffffffffffffffffffffffffffffffffffff16815260200190815260200160002060006101000a81548160ff0219169083151502179055508473ffffffffffffffffffffffffffffffffffffffff167fc85b128388b9c331a2a5485dce4cd0f3db9f7c279d327ce95d6d39d6c94644c78a604051610bb09190611572565b60405180910390a2505050505050505050565b6000604051905090565b600080fd5b600080fd5b600073ffffffffffffffffffffffffffffffffffffffff82169050919050565b6000610c0282610bd7565b9050919050565b610c1281610bf7565b8114610c1d57600080fd5b50565b600081359050610c2f81610c09565b92915050565b600060208284031215610c4b57610c4a610bcd565b5b6000610c5984828501610c20565b91505092915050565b600081519050919050565b600082825260208201905092915050565b60005b83811015610c9c578082015181840152602081019050610c81565b60008484015250505050565b6000601f19601f8301169050919050565b6000610cc482610c62565b610cce8185610c6d565b9350610cde818560208601610c7e565b610ce781610ca8565b840191505092915050565b610cfb81610bf7565b82525050565b6000610100820190508181036000830152610d1c818b610cb9565b90508181036020830152610d30818a610cb9565b90508181036040830152610d448189610cb9565b90508181036060830152610d588188610cb9565b9050610d676080830187610cf2565b81810360a0830152610d798186610cb9565b905081810360c0830152610d8d8185610cb9565b905081810360e0830152610da18184610cb9565b90509998505050505050505050565b60008060408385031215610dc757610dc6610bcd565b5b6000610dd585828601610c20565b9250506020610de685828601610c20565b9150509250929050565b60008115159050919050565b610e0581610df0565b82525050565b6000602082019050610e206000830184610dfc565b92915050565b600080fd5b600080fd5b7f4e487b7100000000000000000000000000000000000000000000000000000000600052604160045260246000fd5b610e6882610ca8565b810181811067ffffffffffffffff82111715610e8757610e86610e30565b5b80604052505050565b6000610e9a610bc3565b9050610ea68282610e5f565b919050565b600067ffffffffffffffff821115610ec657610ec5610e30565b5b610ecf82610ca8565b9050602081019050919050565b82818337600083830152505050565b6000610efe610ef984610eab565b610e90565b905082815260208101848484011115610f1a57610f19610e2b565b5b610f25848285610edc565b509392505050565b600082601f830112610f4257610f41610e26565b5b8135610f52848260208601610eeb565b91505092915050565b60008060408385031215610f7257610f71610bcd565b5b6000610f8085828601610c20565b925050602083013567ffffffffffffffff811115610fa157610fa0610bd2565b5b610fad85828601610f2d565b9150509250929050565b600080600080600080600080610100898b031215610fd857610fd7610bcd565b5b600089013567ffffffffffffffff811115610ff657610ff5610bd2565b5b6110028b828c01610f2d565b985050602089013567ffffffffffffffff81111561102357611022610bd2565b5b61102f8b828c01610f2d565b975050604089013567ffffffffffffffff8111156110505761104f610bd2565b5b61105c8b828c01610f2d565b965050606089013567ffffffffffffffff81111561107d5761107c610bd2565b5b6110898b828c01610f2d565b955050608061109a8b828c01610c20565b94505060a089013567ffffffffffffffff8111156110bb576110ba610bd2565b5b6110c78b828c01610f2d565b93505060c089013567ffffffffffffffff8111156110e8576110e7610bd2565b5b6110f48b828c01610f2d565b92505060e089013567ffffffffffffffff81111561111557611114610bd2565b5b6111218b828c01610f2d565b9150509295985092959890939650565b7f4e487b7100000000000000000000000000000000000000000000000000000000600052602260045260246000fd5b6000600282049050600182168061117857607f821691505b60208210810361118b5761118a611131565b5b50919050565b600081905092915050565b60008190508160005260206000209050919050565b600081546111be81611160565b6111c88186611191565b945060018216600081146111e357600181146111f85761122b565b60ff198316865281151582028601935061122b565b6112018561119c565b60005b8381101561122357815481890152600182019150602081019050611204565b838801955050505b50505092915050565b600061124082846111b1565b915081905092915050565b600061125682610c62565b6112608185611191565b9350611270818560208601610c7e565b80840191505092915050565b6000611288828461124b565b915081905092915050565b7f50617469656e7420616c72656164792072656769737465726564000000000000600082015250565b60006112c9601a83610c6d565b91506112d482611293565b602082019050919050565b600060208201905081810360008301526112f8816112bc565b9050919050565b60006020601f8301049050919050565b600082821b905092915050565b60006008830261134c7fffffffffffffffffffffffffffffffffffffffffffffffffffffffffffffffff8261130f565b611356868361130f565b95508019841693508086168417925050509392505050565b6000819050919050565b6000819050919050565b600061139d6113986113938461136e565b611378565b61136e565b9050919050565b6000819050919050565b6113b783611382565b6113cb6113c3826113a4565b84845461131c565b825550505050565b600090565b6113e06113d3565b6113eb8184846113ae565b505050565b5b8181101561140f576114046000826113d8565b6001810190506113f1565b5050565b601f821115611454576114258161119c565b61142e846112ff565b8101602085101561143d578190505b611451611449856112ff565b8301826113f0565b50505b505050565b600082821c905092915050565b600061147760001984600802611459565b1980831691505092915050565b60006114908383611466565b9150826002028217905092915050565b6114a982610c62565b67ffffffffffffffff8111156114c2576114c1610e30565b5b6114cc8254611160565b6114d7828285611413565b600060209050601f83116001811461150a57600084156114f8578287015190505b6115028582611484565b86555061156a565b601f1984166115188661119c565b60005b828110156115405784890151825560018201915060208501945060208101905061151b565b8683101561155d5784890151611559601f891682611466565b8355505b6001600288020188555050505b505050505050565b6000602082019050818103600083015261158c8184610cb9565b90509291505056fea264697066735822122072dfc87598f3c568f9ba65c93538adaf20b1f8945bc05563e80dcee6e759fbb364736f6c63430008130033",
  "immutableReferences": {},
  "source": "// SPDX-License-Identifier: MIT\r\npragma solidity ^0.8.19;\r\n\r\ncontract PatientRegistry {\r\n    struct Patient {\r\n        string name;\r\n        string dateOfBirth;\r\n        string homeAddress;\r\n        string phoneNumber;\r\n        address walletAddress;\r\n        string gender;\r\n        string bloodGroup;\r\n        string password;\r\n    }\r\n\r\n    mapping(address => bool) public isPatient;\r\n    mapping(address => Patient) public patients;\r\n    mapping(address => mapping(address => bool)) private canCreate;\r\n    event PatientRegistered(address indexed patientAddress, string name);\r\n\r\n    function registerPatient(\r\n        string memory _name,\r\n        string memory _dateOfBirth,\r\n        string memory _homeAddress,\r\n        string memory _phoneNumber,\r\n        address _walletAddress,\r\n        string memory _gender,\r\n        string memory _bloodGroup,\r\n        string memory _password\r\n\r\n    ) external {\r\n        require(\r\n            patients[_walletAddress].walletAddress != _walletAddress,\r\n            \"Patient already registered\"\r\n        );\r\n\r\n        Patient memory newPatient = Patient({\r\n            name: _name,\r\n            dateOfBirth: _dateOfBirth,\r\n            homeAddress: _homeAddress,\r\n            phoneNumber: _phoneNumber,\r\n            walletAddress: _walletAddress,\r\n            gender: _gender,\r\n            bloodGroup: _bloodGroup,\r\n            password: _password // Store password in the struct\r\n\r\n        });\r\n\r\n        patients[_walletAddress] = newPatient;\r\n        isPatient[_walletAddress] = true;\r\n        emit PatientRegistered(_walletAddress, _name);\r\n    }\r\n\r\n    function isRegisteredPatient(\r\n        address _walletAddress\r\n    ) external view returns (bool) {\r\n        return isPatient[_walletAddress];\r\n    }\r\n// Add a function to validate patient's password\r\nfunction validatePatientPassword(address _walletAddress, string memory _password) external view returns (bool) {\r\n    return keccak256(abi.encodePacked(_password)) == keccak256(abi.encodePacked(patients[_walletAddress].password));\r\n}\r\n\r\n    function givepermissioncreate(address _walletAddress) public {\r\n        canCreate[msg.sender][_walletAddress] = true;\r\n    }\r\n\r\n    function revokepermissioncreate(address _walletAddress) public {\r\n        canCreate[msg.sender][_walletAddress] = false;\r\n    }\r\n\r\n    function haspermission(\r\n        address patientaddress,\r\n        address _walletAddress\r\n    ) external view returns (bool) {\r\n        return canCreate[patientaddress][_walletAddress];\r\n    }\r\n}\r\n",
  "sourcePath": "D:\\LY Project\\EHR_management_using_blockchain\\src\\contracts\\PatientRegistry.sol",
  "compiler": {
    "name": "solc",
    "version": "0.8.19+commit.7dd6d404.Emscripten.clang"
  },
  "schemaVersion": "3.4.16",
  "updatedAt": "2024-04-27T04:38:20.332Z",
  "networkType": "ethereum",
  "devdoc": {
    "kind": "dev",
    "methods": {},
    "version": 1
  },
  "userdoc": {
    "kind": "user",
    "methods": {},
    "version": 1
  }
}