{
  "contractName": "PatientRegistration",
  "abi": [
    {
      "anonymous": false,
      "inputs": [
        {
          "indexed": false,
          "internalType": "string",
          "name": "phoneNumber",
          "type": "string"
        },
        {
          "indexed": false,
          "internalType": "string",
          "name": "name",
          "type": "string"
        },
        {
          "indexed": false,
          "internalType": "address",
          "name": "walletAddress",
          "type": "address"
        }
      ],
      "name": "PatientRegistered",
      "type": "event"
    },
    {
      "inputs": [
        {
          "internalType": "string",
          "name": "",
          "type": "string"
        },
        {
          "internalType": "string",
          "name": "",
          "type": "string"
        }
      ],
      "name": "doctorPermissions",
      "outputs": [
        {
          "internalType": "bool",
          "name": "",
          "type": "bool"
        }
      ],
      "stateMutability": "view",
      "type": "function"
    },
    {
      "inputs": [
        {
          "internalType": "string",
          "name": "",
          "type": "string"
        }
      ],
      "name": "isPatientRegistered",
      "outputs": [
        {
          "internalType": "bool",
          "name": "",
          "type": "bool"
        }
      ],
      "stateMutability": "view",
      "type": "function"
    },
    {
      "inputs": [
        {
          "internalType": "string",
          "name": "",
          "type": "string"
        }
      ],
      "name": "patients",
      "outputs": [
        {
          "internalType": "address",
          "name": "walletAddress",
          "type": "address"
        },
        {
          "internalType": "string",
          "name": "name",
          "type": "string"
        },
        {
          "internalType": "string",
          "name": "dateOfBirth",
          "type": "string"
        },
        {
          "internalType": "string",
          "name": "gender",
          "type": "string"
        },
        {
          "internalType": "string",
          "name": "bloodGroup",
          "type": "string"
        },
        {
          "internalType": "string",
          "name": "homeAddress",
          "type": "string"
        },
        {
          "internalType": "string",
          "name": "email",
          "type": "string"
        },
        {
          "internalType": "string",
          "name": "phoneNumber",
          "type": "string"
        },
        {
          "internalType": "string",
          "name": "password",
          "type": "string"
        }
      ],
      "stateMutability": "view",
      "type": "function"
    },
    {
      "inputs": [
        {
          "internalType": "address",
          "name": "_walletAddress",
          "type": "address"
        },
        {
          "internalType": "string",
          "name": "_name",
          "type": "string"
        },
        {
          "internalType": "string",
          "name": "_dateOfBirth",
          "type": "string"
        },
        {
          "internalType": "string",
          "name": "_gender",
          "type": "string"
        },
        {
          "internalType": "string",
          "name": "_bloodGroup",
          "type": "string"
        },
        {
          "internalType": "string",
          "name": "_homeAddress",
          "type": "string"
        },
        {
          "internalType": "string",
          "name": "_email",
          "type": "string"
        },
        {
          "internalType": "string",
          "name": "_phoneNumber",
          "type": "string"
        },
        {
          "internalType": "string",
          "name": "_password",
          "type": "string"
        }
      ],
      "name": "registerPatient",
      "outputs": [],
      "stateMutability": "nonpayable",
      "type": "function"
    },
    {
      "inputs": [
        {
          "internalType": "string",
          "name": "_phoneNumber",
          "type": "string"
        }
      ],
      "name": "isRegisteredPatient",
      "outputs": [
        {
          "internalType": "bool",
          "name": "",
          "type": "bool"
        }
      ],
      "stateMutability": "view",
      "type": "function"
    },
    {
      "inputs": [
        {
          "internalType": "string",
          "name": "_phoneNumber",
          "type": "string"
        },
        {
          "internalType": "string",
          "name": "_password",
          "type": "string"
        }
      ],
      "name": "validatePassword",
      "outputs": [
        {
          "internalType": "bool",
          "name": "",
          "type": "bool"
        }
      ],
      "stateMutability": "view",
      "type": "function"
    },
    {
      "inputs": [
        {
          "internalType": "string",
          "name": "_phoneNumber",
          "type": "string"
        }
      ],
      "name": "getPatientDetails",
      "outputs": [
        {
          "internalType": "address",
          "name": "walletAddress",
          "type": "address"
        },
        {
          "internalType": "string",
          "name": "name",
          "type": "string"
        },
        {
          "internalType": "string",
          "name": "dateOfBirth",
          "type": "string"
        },
        {
          "internalType": "string",
          "name": "gender",
          "type": "string"
        },
        {
          "internalType": "string",
          "name": "bloodGroup",
          "type": "string"
        },
        {
          "internalType": "string",
          "name": "homeAddress",
          "type": "string"
        },
        {
          "internalType": "string",
          "name": "email",
          "type": "string"
        }
      ],
      "stateMutability": "view",
      "type": "function"
    },
    {
      "inputs": [
        {
          "internalType": "string",
          "name": "_patientNumber",
          "type": "string"
        },
        {
          "internalType": "string",
          "name": "_doctorNumber",
          "type": "string"
        },
        {
          "internalType": "string",
          "name": "_patientName",
          "type": "string"
        }
      ],
      "name": "grantPermission",
      "outputs": [],
      "stateMutability": "nonpayable",
      "type": "function"
    },
    {
      "inputs": [
        {
          "internalType": "string",
          "name": "_patientNumber",
          "type": "string"
        },
        {
          "internalType": "string",
          "name": "_doctorNumber",
          "type": "string"
        }
      ],
      "name": "isPermissionGranted",
      "outputs": [
        {
          "internalType": "bool",
          "name": "",
          "type": "bool"
        }
      ],
      "stateMutability": "view",
      "type": "function"
    },
    {
      "inputs": [
        {
          "internalType": "string",
          "name": "_doctorNumber",
          "type": "string"
        }
      ],
      "name": "getPatientList",
      "outputs": [
        {
          "components": [
            {
              "internalType": "string",
              "name": "patient_number",
              "type": "string"
            },
            {
              "internalType": "string",
              "name": "patient_name",
              "type": "string"
            }
          ],
          "internalType": "struct PatientRegistration.PatientList[]",
          "name": "",
          "type": "tuple[]"
        }
      ],
      "stateMutability": "view",
      "type": "function"
    }
  ],
  "bytecode": "0x608060405234801561001057600080fd5b506123ff806100206000396000f3fe608060405234801561001057600080fd5b506004361061009e5760003560e01c806391c12f761161006657806391c12f761461016b578063c6009d841461019b578063d120c10c146101d3578063ea977fc814610203578063f7252641146102395761009e565b806344334733146100a35780634f10c6c2146100d357806357812a08146101035780635df670401461011f5780637babdb261461013b575b600080fd5b6100bd60048036038101906100b8919061169b565b610269565b6040516100ca919061172e565b60405180910390f35b6100ed60048036038101906100e89190611749565b6102c4565b6040516100fa919061172e565b60405180910390f35b61011d600480360381019061011891906117f0565b6102fa565b005b6101396004803603810190610134919061199a565b610558565b005b6101556004803603810190610150919061169b565b6107ac565b604051610162919061172e565b60405180910390f35b61018560048036038101906101809190611749565b61088f565b6040516101929190611bc6565b60405180910390f35b6101b560048036038101906101b09190611749565b610a30565b6040516101ca99989796959493929190611c41565b60405180910390f35b6101ed60048036038101906101e8919061169b565b610ef4565b6040516101fa919061172e565b60405180910390f35b61021d60048036038101906102189190611749565b610f46565b6040516102309796959493929190611d06565b60405180910390f35b610253600480360381019061024e9190611749565b61150d565b604051610260919061172e565b60405180910390f35b600382805160208101820180518482526020830160208501208183528095505050505050818051602081018201805184825260208301602085012081835280955050505050506000915091509054906101000a900460ff1681565b6000818051602081018201805184825260208301602085012081835280955050505050506000915054906101000a900460ff1681565b60008260405161030a9190611ddb565b908152602001604051809103902060009054906101000a900460ff1615610366576040517f08c379a000000000000000000000000000000000000000000000000000000000815260040161035d90611e3e565b60405180910390fd5b60006040518061012001604052808b73ffffffffffffffffffffffffffffffffffffffff1681526020018a8152602001898152602001888152602001878152602001868152602001858152602001848152602001838152509050806001846040516103d19190611ddb565b908152602001604051809103902060008201518160000160006101000a81548173ffffffffffffffffffffffffffffffffffffffff021916908373ffffffffffffffffffffffffffffffffffffffff160217905550602082015181600101908161043b9190612074565b5060408201518160020190816104519190612074565b5060608201518160030190816104679190612074565b50608082015181600401908161047d9190612074565b5060a08201518160050190816104939190612074565b5060c08201518160060190816104a99190612074565b5060e08201518160070190816104bf9190612074565b506101008201518160080190816104d69190612074565b5090505060016000846040516104ec9190611ddb565b908152602001604051809103902060006101000a81548160ff0219169083151502179055507f319ae3a95b9a410d647835a7e64d54ddf28faf35a698f0a2b63999585fa38edc838a8c60405161054493929190612146565b60405180910390a150505050505050505050565b6003836040516105689190611ddb565b9081526020016040518091039020826040516105849190611ddb565b908152602001604051809103902060009054906101000a900460ff16156105e0576040517f08c379a00000000000000000000000000000000000000000000000000000000081526004016105d7906121fd565b60405180910390fd5b6000805b6002846040516105f49190611ddb565b9081526020016040518091039020805490508110156106bc578460405160200161061e9190611ddb565b604051602081830303815290604052805190602001206002856040516106449190611ddb565b908152602001604051809103902082815481106106645761066361221d565b5b906000526020600020906002020160000160405160200161068591906122cf565b60405160208183030381529060405280519060200120036106a957600191506106bc565b80806106b490612315565b9150506105e4565b508061075357600060405180604001604052808681526020018481525090506002846040516106eb9190611ddb565b908152602001604051809103902081908060018154018082558091505060019003906000526020600020906002020160009091909190915060008201518160000190816107389190612074565b50602082015181600101908161074e9190612074565b505050505b60016003856040516107659190611ddb565b9081526020016040518091039020846040516107819190611ddb565b908152602001604051809103902060006101000a81548160ff02191690831515021790555050505050565b600080836040516107bd9190611ddb565b908152602001604051809103902060009054906101000a900460ff16610818576040517f08c379a000000000000000000000000000000000000000000000000000000000815260040161080f906123a9565b60405180910390fd5b6001836040516108289190611ddb565b908152602001604051809103902060080160405160200161084991906122cf565b60405160208183030381529060405280519060200120826040516020016108709190611ddb565b6040516020818303038152906040528051906020012014905092915050565b60606002826040516108a19190611ddb565b9081526020016040518091039020805480602002602001604051908101604052809291908181526020016000905b82821015610a25578382906000526020600020906002020160405180604001604052908160008201805461090290611e8d565b80601f016020809104026020016040519081016040528092919081815260200182805461092e90611e8d565b801561097b5780601f106109505761010080835404028352916020019161097b565b820191906000526020600020905b81548152906001019060200180831161095e57829003601f168201915b5050505050815260200160018201805461099490611e8d565b80601f01602080910402602001604051908101604052809291908181526020018280546109c090611e8d565b8015610a0d5780601f106109e257610100808354040283529160200191610a0d565b820191906000526020600020905b8154815290600101906020018083116109f057829003601f168201915b505050505081525050815260200190600101906108cf565b505050509050919050565b6001818051602081018201805184825260208301602085012081835280955050505050506000915090508060000160009054906101000a900473ffffffffffffffffffffffffffffffffffffffff1690806001018054610a8f90611e8d565b80601f0160208091040260200160405190810160405280929190818152602001828054610abb90611e8d565b8015610b085780601f10610add57610100808354040283529160200191610b08565b820191906000526020600020905b815481529060010190602001808311610aeb57829003601f168201915b505050505090806002018054610b1d90611e8d565b80601f0160208091040260200160405190810160405280929190818152602001828054610b4990611e8d565b8015610b965780601f10610b6b57610100808354040283529160200191610b96565b820191906000526020600020905b815481529060010190602001808311610b7957829003601f168201915b505050505090806003018054610bab90611e8d565b80601f0160208091040260200160405190810160405280929190818152602001828054610bd790611e8d565b8015610c245780601f10610bf957610100808354040283529160200191610c24565b820191906000526020600020905b815481529060010190602001808311610c0757829003601f168201915b505050505090806004018054610c3990611e8d565b80601f0160208091040260200160405190810160405280929190818152602001828054610c6590611e8d565b8015610cb25780601f10610c8757610100808354040283529160200191610cb2565b820191906000526020600020905b815481529060010190602001808311610c9557829003601f168201915b505050505090806005018054610cc790611e8d565b80601f0160208091040260200160405190810160405280929190818152602001828054610cf390611e8d565b8015610d405780601f10610d1557610100808354040283529160200191610d40565b820191906000526020600020905b815481529060010190602001808311610d2357829003601f168201915b505050505090806006018054610d5590611e8d565b80601f0160208091040260200160405190810160405280929190818152602001828054610d8190611e8d565b8015610dce5780601f10610da357610100808354040283529160200191610dce565b820191906000526020600020905b815481529060010190602001808311610db157829003601f168201915b505050505090806007018054610de390611e8d565b80601f0160208091040260200160405190810160405280929190818152602001828054610e0f90611e8d565b8015610e5c5780601f10610e3157610100808354040283529160200191610e5c565b820191906000526020600020905b815481529060010190602001808311610e3f57829003601f168201915b505050505090806008018054610e7190611e8d565b80601f0160208091040260200160405190810160405280929190818152602001828054610e9d90611e8d565b8015610eea5780601f10610ebf57610100808354040283529160200191610eea565b820191906000526020600020905b815481529060010190602001808311610ecd57829003601f168201915b5050505050905089565b6000600383604051610f069190611ddb565b908152602001604051809103902082604051610f229190611ddb565b908152602001604051809103902060009054906101000a900460ff16905092915050565b6000606080606080606080600088604051610f619190611ddb565b908152602001604051809103902060009054906101000a900460ff16610fbc576040517f08c379a0000000000000000000000000000000000000000000000000000000008152600401610fb3906123a9565b60405180910390fd5b6000600189604051610fce9190611ddb565b9081526020016040518091039020604051806101200160405290816000820160009054906101000a900473ffffffffffffffffffffffffffffffffffffffff1673ffffffffffffffffffffffffffffffffffffffff1673ffffffffffffffffffffffffffffffffffffffff16815260200160018201805461104e90611e8d565b80601f016020809104026020016040519081016040528092919081815260200182805461107a90611e8d565b80156110c75780601f1061109c576101008083540402835291602001916110c7565b820191906000526020600020905b8154815290600101906020018083116110aa57829003601f168201915b505050505081526020016002820180546110e090611e8d565b80601f016020809104026020016040519081016040528092919081815260200182805461110c90611e8d565b80156111595780601f1061112e57610100808354040283529160200191611159565b820191906000526020600020905b81548152906001019060200180831161113c57829003601f168201915b5050505050815260200160038201805461117290611e8d565b80601f016020809104026020016040519081016040528092919081815260200182805461119e90611e8d565b80156111eb5780601f106111c0576101008083540402835291602001916111eb565b820191906000526020600020905b8154815290600101906020018083116111ce57829003601f168201915b5050505050815260200160048201805461120490611e8d565b80601f016020809104026020016040519081016040528092919081815260200182805461123090611e8d565b801561127d5780601f106112525761010080835404028352916020019161127d565b820191906000526020600020905b81548152906001019060200180831161126057829003601f168201915b5050505050815260200160058201805461129690611e8d565b80601f01602080910402602001604051908101604052809291908181526020018280546112c290611e8d565b801561130f5780601f106112e45761010080835404028352916020019161130f565b820191906000526020600020905b8154815290600101906020018083116112f257829003601f168201915b5050505050815260200160068201805461132890611e8d565b80601f016020809104026020016040519081016040528092919081815260200182805461135490611e8d565b80156113a15780601f10611376576101008083540402835291602001916113a1565b820191906000526020600020905b81548152906001019060200180831161138457829003601f168201915b505050505081526020016007820180546113ba90611e8d565b80601f01602080910402602001604051908101604052809291908181526020018280546113e690611e8d565b80156114335780601f1061140857610100808354040283529160200191611433565b820191906000526020600020905b81548152906001019060200180831161141657829003601f168201915b5050505050815260200160088201805461144c90611e8d565b80601f016020809104026020016040519081016040528092919081815260200182805461147890611e8d565b80156114c55780601f1061149a576101008083540402835291602001916114c5565b820191906000526020600020905b8154815290600101906020018083116114a857829003601f168201915b5050505050815250509050806000015181602001518260400151836060015184608001518560a001518660c00151975097509750975097509750975050919395979092949650565b6000808260405161151e9190611ddb565b908152602001604051809103902060009054906101000a900460ff169050919050565b6000604051905090565b600080fd5b600080fd5b600080fd5b600080fd5b6000601f19601f8301169050919050565b7f4e487b7100000000000000000000000000000000000000000000000000000000600052604160045260246000fd5b6115a88261155f565b810181811067ffffffffffffffff821117156115c7576115c6611570565b5b80604052505050565b60006115da611541565b90506115e6828261159f565b919050565b600067ffffffffffffffff82111561160657611605611570565b5b61160f8261155f565b9050602081019050919050565b82818337600083830152505050565b600061163e611639846115eb565b6115d0565b90508281526020810184848401111561165a5761165961155a565b5b61166584828561161c565b509392505050565b600082601f83011261168257611681611555565b5b813561169284826020860161162b565b91505092915050565b600080604083850312156116b2576116b161154b565b5b600083013567ffffffffffffffff8111156116d0576116cf611550565b5b6116dc8582860161166d565b925050602083013567ffffffffffffffff8111156116fd576116fc611550565b5b6117098582860161166d565b9150509250929050565b60008115159050919050565b61172881611713565b82525050565b6000602082019050611743600083018461171f565b92915050565b60006020828403121561175f5761175e61154b565b5b600082013567ffffffffffffffff81111561177d5761177c611550565b5b6117898482850161166d565b91505092915050565b600073ffffffffffffffffffffffffffffffffffffffff82169050919050565b60006117bd82611792565b9050919050565b6117cd816117b2565b81146117d857600080fd5b50565b6000813590506117ea816117c4565b92915050565b60008060008060008060008060006101208a8c0312156118135761181261154b565b5b60006118218c828d016117db565b99505060208a013567ffffffffffffffff81111561184257611841611550565b5b61184e8c828d0161166d565b98505060408a013567ffffffffffffffff81111561186f5761186e611550565b5b61187b8c828d0161166d565b97505060608a013567ffffffffffffffff81111561189c5761189b611550565b5b6118a88c828d0161166d565b96505060808a013567ffffffffffffffff8111156118c9576118c8611550565b5b6118d58c828d0161166d565b95505060a08a013567ffffffffffffffff8111156118f6576118f5611550565b5b6119028c828d0161166d565b94505060c08a013567ffffffffffffffff81111561192357611922611550565b5b61192f8c828d0161166d565b93505060e08a013567ffffffffffffffff8111156119505761194f611550565b5b61195c8c828d0161166d565b9250506101008a013567ffffffffffffffff81111561197e5761197d611550565b5b61198a8c828d0161166d565b9150509295985092959850929598565b6000806000606084860312156119b3576119b261154b565b5b600084013567ffffffffffffffff8111156119d1576119d0611550565b5b6119dd8682870161166d565b935050602084013567ffffffffffffffff8111156119fe576119fd611550565b5b611a0a8682870161166d565b925050604084013567ffffffffffffffff811115611a2b57611a2a611550565b5b611a378682870161166d565b9150509250925092565b600081519050919050565b600082825260208201905092915050565b6000819050602082019050919050565b600081519050919050565b600082825260208201905092915050565b60005b83811015611aa7578082015181840152602081019050611a8c565b60008484015250505050565b6000611abe82611a6d565b611ac88185611a78565b9350611ad8818560208601611a89565b611ae18161155f565b840191505092915050565b60006040830160008301518482036000860152611b098282611ab3565b91505060208301518482036020860152611b238282611ab3565b9150508091505092915050565b6000611b3c8383611aec565b905092915050565b6000602082019050919050565b6000611b5c82611a41565b611b668185611a4c565b935083602082028501611b7885611a5d565b8060005b85811015611bb45784840389528151611b958582611b30565b9450611ba083611b44565b925060208a01995050600181019050611b7c565b50829750879550505050505092915050565b60006020820190508181036000830152611be08184611b51565b905092915050565b611bf1816117b2565b82525050565b600082825260208201905092915050565b6000611c1382611a6d565b611c1d8185611bf7565b9350611c2d818560208601611a89565b611c368161155f565b840191505092915050565b600061012082019050611c57600083018c611be8565b8181036020830152611c69818b611c08565b90508181036040830152611c7d818a611c08565b90508181036060830152611c918189611c08565b90508181036080830152611ca58188611c08565b905081810360a0830152611cb98187611c08565b905081810360c0830152611ccd8186611c08565b905081810360e0830152611ce18185611c08565b9050818103610100830152611cf68184611c08565b90509a9950505050505050505050565b600060e082019050611d1b600083018a611be8565b8181036020830152611d2d8189611c08565b90508181036040830152611d418188611c08565b90508181036060830152611d558187611c08565b90508181036080830152611d698186611c08565b905081810360a0830152611d7d8185611c08565b905081810360c0830152611d918184611c08565b905098975050505050505050565b600081905092915050565b6000611db582611a6d565b611dbf8185611d9f565b9350611dcf818560208601611a89565b80840191505092915050565b6000611de78284611daa565b915081905092915050565b7f50617469656e7420616c72656164792072656769737465726564000000000000600082015250565b6000611e28601a83611bf7565b9150611e3382611df2565b602082019050919050565b60006020820190508181036000830152611e5781611e1b565b9050919050565b7f4e487b7100000000000000000000000000000000000000000000000000000000600052602260045260246000fd5b60006002820490506001821680611ea557607f821691505b602082108103611eb857611eb7611e5e565b5b50919050565b60008190508160005260206000209050919050565b60006020601f8301049050919050565b600082821b905092915050565b600060088302611f207fffffffffffffffffffffffffffffffffffffffffffffffffffffffffffffffff82611ee3565b611f2a8683611ee3565b95508019841693508086168417925050509392505050565b6000819050919050565b6000819050919050565b6000611f71611f6c611f6784611f42565b611f4c565b611f42565b9050919050565b6000819050919050565b611f8b83611f56565b611f9f611f9782611f78565b848454611ef0565b825550505050565b600090565b611fb4611fa7565b611fbf818484611f82565b505050565b5b81811015611fe357611fd8600082611fac565b600181019050611fc5565b5050565b601f82111561202857611ff981611ebe565b61200284611ed3565b81016020851015612011578190505b61202561201d85611ed3565b830182611fc4565b50505b505050565b600082821c905092915050565b600061204b6000198460080261202d565b1980831691505092915050565b6000612064838361203a565b9150826002028217905092915050565b61207d82611a6d565b67ffffffffffffffff81111561209657612095611570565b5b6120a08254611e8d565b6120ab828285611fe7565b600060209050601f8311600181146120de57600084156120cc578287015190505b6120d68582612058565b86555061213e565b601f1984166120ec86611ebe565b60005b82811015612114578489015182556001820191506020850194506020810190506120ef565b86831015612131578489015161212d601f89168261203a565b8355505b6001600288020188555050505b505050505050565b600060608201905081810360008301526121608186611c08565b905081810360208301526121748185611c08565b90506121836040830184611be8565b949350505050565b7f566965772041636365737320616c726561647920676976656e20746f2074686560008201527f20446f63746f7221000000000000000000000000000000000000000000000000602082015250565b60006121e7602883611bf7565b91506121f28261218b565b604082019050919050565b60006020820190508181036000830152612216816121da565b9050919050565b7f4e487b7100000000000000000000000000000000000000000000000000000000600052603260045260246000fd5b6000815461225981611e8d565b6122638186611d9f565b9450600182166000811461227e5760018114612293576122c6565b60ff19831686528115158202860193506122c6565b61229c85611ebe565b60005b838110156122be5781548189015260018201915060208101905061229f565b838801955050505b50505092915050565b60006122db828461224c565b915081905092915050565b7f4e487b7100000000000000000000000000000000000000000000000000000000600052601160045260246000fd5b600061232082611f42565b91507fffffffffffffffffffffffffffffffffffffffffffffffffffffffffffffffff8203612352576123516122e6565b5b600182019050919050565b7f50617469656e74206e6f74207265676973746572656400000000000000000000600082015250565b6000612393601683611bf7565b915061239e8261235d565b602082019050919050565b600060208201905081810360008301526123c281612386565b905091905056fea26469706673582212206828f3b082414425980ddc2b165105a84faaac540fea2ed73c4d5816b0929eaf64736f6c63430008130033",
  "immutableReferences": {},
  "source": "// SPDX-License-Identifier: MIT\npragma solidity ^0.8.19;\n\ncontract PatientRegistration {\n    struct Patient {\n        address walletAddress;\n        string name;\n        string dateOfBirth;\n        string gender;\n        string bloodGroup;\n        string homeAddress;\n        string email;\n        string phoneNumber;\n        string password;\n    }\n\n    struct PatientList{\n        string patient_number;\n        string patient_name;\n    }\n\n    mapping(string => bool) public isPatientRegistered;\n    mapping(string => Patient) public patients;\n    mapping(string => PatientList[]) private Dpermission;\n    mapping(string => mapping(string => bool)) public doctorPermissions;\n\n    event PatientRegistered(string phoneNumber, string name, address walletAddress);\n\n    function registerPatient(\n        address _walletAddress,\n        string memory _name,\n        string memory _dateOfBirth,\n        string memory _gender,\n        string memory _bloodGroup,\n        string memory _homeAddress,\n        string memory _email,\n        string memory _phoneNumber,\n        string memory _password\n\n    ) external {\n        require(!isPatientRegistered[_phoneNumber], \"Patient already registered\");\n\n        Patient memory newPatient = Patient({\n            walletAddress: _walletAddress,\n            name: _name,\n            dateOfBirth: _dateOfBirth,\n            gender: _gender,\n            bloodGroup: _bloodGroup,\n            homeAddress: _homeAddress,\n            email: _email,    \n            phoneNumber: _phoneNumber,        \n            password: _password // Store password in the struct\n        });\n\n        patients[_phoneNumber] = newPatient;\n        isPatientRegistered[_phoneNumber] = true;\n        emit PatientRegistered(_phoneNumber, _name, _walletAddress);\n    }\n\n    function isRegisteredPatient(string memory _phoneNumber) external view returns (bool) {\n        return isPatientRegistered[_phoneNumber];\n    }\n    \n    // Add a function to validate patient's password\n    function validatePassword(string memory _phoneNumber, string memory _password) external view returns (bool) {\n        require(isPatientRegistered[_phoneNumber], \"Patient not registered\");\n        return keccak256(abi.encodePacked(_password)) == keccak256(abi.encodePacked(patients[_phoneNumber].password));\n    }\n\n    function getPatientDetails(string memory _phoneNumber) external view returns (\n    address walletAddress,\n    string memory name,\n    string memory dateOfBirth,\n    string memory gender,\n    string memory bloodGroup,\n    string memory homeAddress,\n    string memory email\n    ) {\n        require(isPatientRegistered[_phoneNumber], \"Patient not registered\");\n        Patient memory patient = patients[_phoneNumber];\n        return (patient.walletAddress, patient.name, patient.dateOfBirth, patient.gender, patient.bloodGroup, patient.homeAddress, patient.email);\n    }\n\n    function grantPermission(\n        string memory _patientNumber,\n        string memory _doctorNumber,\n        string memory _patientName\n    ) external {\n        require(!doctorPermissions[_patientNumber][_doctorNumber], \"View Access already given to the Doctor!\");\n        // Check if the patient number already exists in the list\n        bool exists = false;\n        for (uint i = 0; i < Dpermission[_doctorNumber].length; i++) {\n            if (keccak256(abi.encodePacked(Dpermission[_doctorNumber][i].patient_number)) == keccak256(abi.encodePacked(_patientNumber))) {\n                exists = true;\n                break;\n            }\n        }\n\n        // If the patient number does not exist, add it to the list\n        if (!exists) {\n            PatientList memory newRecord = PatientList(\n                _patientNumber,\n                _patientName\n            );\n            Dpermission[_doctorNumber].push(newRecord);\n        }\n        doctorPermissions[_patientNumber][_doctorNumber] = true;\n    }\n\n    function isPermissionGranted(string memory _patientNumber,string memory _doctorNumber) external view returns (bool) {\n        return doctorPermissions[_patientNumber][_doctorNumber];\n    }\n\n    function getPatientList(string memory _doctorNumber) public view returns (PatientList[] memory) {\n        return Dpermission[_doctorNumber];\n    }\n}\n",
  "sourcePath": "/Users/sonupradhan/Desktop/EHR/src/contracts/PatientRegistration.sol",
  "compiler": {
    "name": "solc",
    "version": "0.8.19+commit.7dd6d404.Emscripten.clang"
  },
  "schemaVersion": "3.4.16",
  "updatedAt": "2024-05-20T10:49:05.750Z",
  "devdoc": {
    "kind": "dev",
    "methods": {},
    "version": 1
  },
  "userdoc": {
    "kind": "user",
    "methods": {},
    "version": 1
  }
}