{
  "contractName": "r1",
  "abi": [
    {
      "inputs": [
        {
          "internalType": "bytes",
          "name": "_recordId",
          "type": "bytes"
        },
        {
          "internalType": "address",
          "name": "_patient",
          "type": "address"
        },
        {
          "internalType": "address",
          "name": "_doctor",
          "type": "address"
        }
      ],
      "stateMutability": "nonpayable",
      "type": "constructor"
    },
    {
      "inputs": [
        {
          "internalType": "address",
          "name": "viewer",
          "type": "address"
        }
      ],
      "name": "giveViewPermission",
      "outputs": [],
      "stateMutability": "nonpayable",
      "type": "function"
    },
    {
      "inputs": [
        {
          "internalType": "address",
          "name": "viewer",
          "type": "address"
        }
      ],
      "name": "revokeViewPermission",
      "outputs": [],
      "stateMutability": "nonpayable",
      "type": "function"
    },
    {
      "inputs": [],
      "name": "viewrecord",
      "outputs": [
        {
          "internalType": "bytes",
          "name": "",
          "type": "bytes"
        },
        {
          "internalType": "address",
          "name": "",
          "type": "address"
        },
        {
          "internalType": "address",
          "name": "",
          "type": "address"
        }
      ],
      "stateMutability": "view",
      "type": "function"
    }
  ],
  "bytecode": "0x60806040523480156200001157600080fd5b5060405162000de438038062000de483398181016040528101906200003791906200043c565b816000806101000a81548173ffffffffffffffffffffffffffffffffffffffff021916908373ffffffffffffffffffffffffffffffffffffffff16021790555082600290805190602001906200008f9291906200018a565b5080600160006101000a81548173ffffffffffffffffffffffffffffffffffffffff021916908373ffffffffffffffffffffffffffffffffffffffff1602179055506001600360008373ffffffffffffffffffffffffffffffffffffffff1673ffffffffffffffffffffffffffffffffffffffff16815260200190815260200160002060006101000a81548160ff0219169083151502179055506001600360008473ffffffffffffffffffffffffffffffffffffffff1673ffffffffffffffffffffffffffffffffffffffff16815260200190815260200160002060006101000a81548160ff0219169083151502179055505050506200051c565b8280546200019890620004e6565b90600052602060002090601f016020900481019282620001bc576000855562000208565b82601f10620001d757805160ff191683800117855562000208565b8280016001018555821562000208579182015b8281111562000207578251825591602001919060010190620001ea565b5b5090506200021791906200021b565b5090565b5b80821115620002365760008160009055506001016200021c565b5090565b6000604051905090565b600080fd5b600080fd5b600080fd5b600080fd5b6000601f19601f8301169050919050565b7f4e487b7100000000000000000000000000000000000000000000000000000000600052604160045260246000fd5b620002a38262000258565b810181811067ffffffffffffffff82111715620002c557620002c462000269565b5b80604052505050565b6000620002da6200023a565b9050620002e8828262000298565b919050565b600067ffffffffffffffff8211156200030b576200030a62000269565b5b620003168262000258565b9050602081019050919050565b60005b838110156200034357808201518184015260208101905062000326565b8381111562000353576000848401525b50505050565b6000620003706200036a84620002ed565b620002ce565b9050828152602081018484840111156200038f576200038e62000253565b5b6200039c84828562000323565b509392505050565b600082601f830112620003bc57620003bb6200024e565b5b8151620003ce84826020860162000359565b91505092915050565b600073ffffffffffffffffffffffffffffffffffffffff82169050919050565b60006200040482620003d7565b9050919050565b6200041681620003f7565b81146200042257600080fd5b50565b60008151905062000436816200040b565b92915050565b60008060006060848603121562000458576200045762000244565b5b600084015167ffffffffffffffff81111562000479576200047862000249565b5b6200048786828701620003a4565b93505060206200049a8682870162000425565b9250506040620004ad8682870162000425565b9150509250925092565b7f4e487b7100000000000000000000000000000000000000000000000000000000600052602260045260246000fd5b60006002820490506001821680620004ff57607f821691505b60208210811415620005165762000515620004b7565b5b50919050565b6108b8806200052c6000396000f3fe608060405234801561001057600080fd5b50600436106100415760003560e01c8063170cebfd1461004657806394be4ee014610062578063e8c3b6a314610082575b600080fd5b610060600480360381019061005b91906104db565b61009e565b005b61006a61021a565b604051610079939291906105b0565b60405180910390f35b61009c600480360381019061009791906104db565b61038f565b005b60008054906101000a900473ffffffffffffffffffffffffffffffffffffffff1673ffffffffffffffffffffffffffffffffffffffff163373ffffffffffffffffffffffffffffffffffffffff161461012c576040517f08c379a000000000000000000000000000000000000000000000000000000000815260040161012390610671565b60405180910390fd5b60011515600360008373ffffffffffffffffffffffffffffffffffffffff1673ffffffffffffffffffffffffffffffffffffffff16815260200190815260200160002060009054906101000a900460ff161515146101bf576040517f08c379a00000000000000000000000000000000000000000000000000000000081526004016101b6906106dd565b60405180910390fd5b6000600360008373ffffffffffffffffffffffffffffffffffffffff1673ffffffffffffffffffffffffffffffffffffffff16815260200190815260200160002060006101000a81548160ff02191690831515021790555050565b606060008060011515600360003373ffffffffffffffffffffffffffffffffffffffff1673ffffffffffffffffffffffffffffffffffffffff16815260200190815260200160002060009054906101000a900460ff161515146102b2576040517f08c379a00000000000000000000000000000000000000000000000000000000081526004016102a99061076f565b60405180910390fd5b600260008054906101000a900473ffffffffffffffffffffffffffffffffffffffff16600160009054906101000a900473ffffffffffffffffffffffffffffffffffffffff16828054610304906107be565b80601f0160208091040260200160405190810160405280929190818152602001828054610330906107be565b801561037d5780601f106103525761010080835404028352916020019161037d565b820191906000526020600020905b81548152906001019060200180831161036057829003601f168201915b50505050509250925092509250909192565b60008054906101000a900473ffffffffffffffffffffffffffffffffffffffff1673ffffffffffffffffffffffffffffffffffffffff163373ffffffffffffffffffffffffffffffffffffffff161461041d576040517f08c379a000000000000000000000000000000000000000000000000000000000815260040161041490610862565b60405180910390fd5b6001600360008373ffffffffffffffffffffffffffffffffffffffff1673ffffffffffffffffffffffffffffffffffffffff16815260200190815260200160002060006101000a81548160ff02191690831515021790555050565b600080fd5b600073ffffffffffffffffffffffffffffffffffffffff82169050919050565b60006104a88261047d565b9050919050565b6104b88161049d565b81146104c357600080fd5b50565b6000813590506104d5816104af565b92915050565b6000602082840312156104f1576104f0610478565b5b60006104ff848285016104c6565b91505092915050565b600081519050919050565b600082825260208201905092915050565b60005b83811015610542578082015181840152602081019050610527565b83811115610551576000848401525b50505050565b6000601f19601f8301169050919050565b600061057382610508565b61057d8185610513565b935061058d818560208601610524565b61059681610557565b840191505092915050565b6105aa8161049d565b82525050565b600060608201905081810360008301526105ca8186610568565b90506105d960208301856105a1565b6105e660408301846105a1565b949350505050565b600082825260208201905092915050565b7f4f6e6c792070617469656e742063616e207265766f6b65207065726d6973736960008201527f6f6e212100000000000000000000000000000000000000000000000000000000602082015250565b600061065b6024836105ee565b9150610666826105ff565b604082019050919050565b6000602082019050818103600083015261068a8161064e565b9050919050565b7f4e6f206e65656420746f207265766f6b65212100000000000000000000000000600082015250565b60006106c76013836105ee565b91506106d282610691565b602082019050919050565b600060208201905081810360008301526106f6816106ba565b9050919050565b7f596f7520446f6e74206861766520746865207065726d697373696f6e20746f2060008201527f7669657700000000000000000000000000000000000000000000000000000000602082015250565b60006107596024836105ee565b9150610764826106fd565b604082019050919050565b600060208201905081810360008301526107888161074c565b9050919050565b7f4e487b7100000000000000000000000000000000000000000000000000000000600052602260045260246000fd5b600060028204905060018216806107d657607f821691505b602082108114156107ea576107e961078f565b5b50919050565b7f4f6e6c792070617469656e742063616e2067697665207065726d697373696f6e60008201527f2121000000000000000000000000000000000000000000000000000000000000602082015250565b600061084c6022836105ee565b9150610857826107f0565b604082019050919050565b6000602082019050818103600083015261087b8161083f565b905091905056fea2646970667358221220cdd724bd6155f6f6500cd917d6f092cc45e8357c5d6870fd4e17a00aa12e2a9064736f6c634300080c0033",
  "immutableReferences": {},
  "source": "// SPDX-License-Identifier: MIT\r\npragma solidity ^0.8.12;\r\n\r\ncontract r1 {\r\n    address ownerPatient;\r\n    address creatorDoctor;\r\n    bytes recordId;\r\n    mapping(address => bool) canView;\r\n    mapping(address => bool) canCreate;\r\n\r\n    constructor(bytes memory _recordId, address _patient, address _doctor) {\r\n        ownerPatient = _patient;\r\n        recordId = _recordId;\r\n        creatorDoctor = _doctor;\r\n        canView[_doctor] = true;\r\n        canView[_patient] = true;\r\n    }\r\n\r\n    function giveViewPermission(address viewer) public {\r\n        require(\r\n            msg.sender == ownerPatient,\r\n            \"Only patient can give permission!!\"\r\n        );\r\n        canView[viewer] = true;\r\n    }\r\n\r\n    function revokeViewPermission(address viewer) public {\r\n        require(\r\n            msg.sender == ownerPatient,\r\n            \"Only patient can revoke permission!!\"\r\n        );\r\n        require(canView[viewer] == true, \"No need to revoke!!\");\r\n        canView[viewer] = false;\r\n    }\r\n\r\n    function viewrecord() public view returns (bytes memory, address, address) {\r\n        require(\r\n            canView[msg.sender] == true,\r\n            \"You Dont have the permission to view\"\r\n        );\r\n        return (recordId, ownerPatient, creatorDoctor);\r\n    }\r\n}\r\n",
  "sourcePath": "C:\\gautham per\\PES\\capstone\\project\\test1\\src\\contracts\\r1.sol",
  "compiler": {
    "name": "solc",
    "version": "0.8.12+commit.f00d7308.Emscripten.clang"
  },
  "schemaVersion": "3.4.15",
  "updatedAt": "2023-08-18T11:17:45.248Z",
  "devdoc": {
    "kind": "dev",
    "methods": {},
    "version": 1
  },
  "userdoc": {
    "kind": "user",
    "methods": {},
    "version": 1
  }
}