{
  "contractName": "RecordContract",
  "abi": [
    {
      "inputs": [
        {
          "internalType": "string",
          "name": "_diagnosis",
          "type": "string"
        },
        {
          "internalType": "string",
          "name": "_prescription",
          "type": "string"
        },
        {
          "internalType": "string",
          "name": "_docSignature",
          "type": "string"
        }
      ],
      "name": "createEHR",
      "outputs": [],
      "stateMutability": "nonpayable",
      "type": "function"
    },
    {
      "inputs": [],
      "name": "getRecords",
      "outputs": [
        {
          "components": [
            {
              "internalType": "string",
              "name": "diagnosis",
              "type": "string"
            },
            {
              "internalType": "string",
              "name": "prescription",
              "type": "string"
            },
            {
              "internalType": "string",
              "name": "docSignature",
              "type": "string"
            }
          ],
          "internalType": "struct RecordContract.Record[]",
          "name": "",
          "type": "tuple[]"
        }
      ],
      "stateMutability": "view",
      "type": "function"
    },
    {
      "inputs": [
        {
          "internalType": "address",
          "name": "doctorAddress",
          "type": "address"
        }
      ],
      "name": "grantPermission",
      "outputs": [],
      "stateMutability": "nonpayable",
      "type": "function"
    },
    {
      "inputs": [
        {
          "internalType": "address",
          "name": "doctorAddress",
          "type": "address"
        }
      ],
      "name": "revokePermission",
      "outputs": [],
      "stateMutability": "nonpayable",
      "type": "function"
    },
    {
      "inputs": [
        {
          "internalType": "address",
          "name": "patientAddress",
          "type": "address"
        },
        {
          "internalType": "address",
          "name": "doctorAddress",
          "type": "address"
        }
      ],
      "name": "canViewRecord",
      "outputs": [
        {
          "internalType": "bool",
          "name": "",
          "type": "bool"
        }
      ],
      "stateMutability": "view",
      "type": "function"
    },
    {
      "inputs": [
        {
          "internalType": "address",
          "name": "patientAddress",
          "type": "address"
        }
      ],
      "name": "viewRecord",
      "outputs": [
        {
          "components": [
            {
              "internalType": "string",
              "name": "diagnosis",
              "type": "string"
            },
            {
              "internalType": "string",
              "name": "prescription",
              "type": "string"
            },
            {
              "internalType": "string",
              "name": "docSignature",
              "type": "string"
            }
          ],
          "internalType": "struct RecordContract.Record[]",
          "name": "",
          "type": "tuple[]"
        }
      ],
      "stateMutability": "view",
      "type": "function"
    }
  ],
  "bytecode": "0x608060405234801561001057600080fd5b5061114e806100206000396000f3fe608060405234801561001057600080fd5b50600436106100625760003560e01c80632d8e327814610067578063489950f8146100835780638eff3c29146100b3578063a3bf5b9a146100d1578063b75bf865146100ed578063d4a3b65b1461011d575b600080fd5b610081600480360381019061007c9190610962565b610139565b005b61009d6004803603810190610098919061098f565b6101d0565b6040516100aa91906109ea565b60405180910390f35b6100bb610264565b6040516100c89190610bb5565b60405180910390f35b6100eb60048036038101906100e69190610962565b6104b5565b005b61010760048036038101906101029190610962565b61054d565b6040516101149190610bb5565b60405180910390f35b61013760048036038101906101329190610d0c565b61081f565b005b60018060003373ffffffffffffffffffffffffffffffffffffffff1673ffffffffffffffffffffffffffffffffffffffff16815260200190815260200160002060008373ffffffffffffffffffffffffffffffffffffffff1673ffffffffffffffffffffffffffffffffffffffff16815260200190815260200160002060006101000a81548160ff02191690831515021790555050565b6000600160008473ffffffffffffffffffffffffffffffffffffffff1673ffffffffffffffffffffffffffffffffffffffff16815260200190815260200160002060008373ffffffffffffffffffffffffffffffffffffffff1673ffffffffffffffffffffffffffffffffffffffff16815260200190815260200160002060009054906101000a900460ff16905092915050565b60606000803373ffffffffffffffffffffffffffffffffffffffff1673ffffffffffffffffffffffffffffffffffffffff168152602001908152602001600020805480602002602001604051908101604052809291908181526020016000905b828210156104ac57838290600052602060002090600302016040518060600160405290816000820180546102f790610de2565b80601f016020809104026020016040519081016040528092919081815260200182805461032390610de2565b80156103705780601f1061034557610100808354040283529160200191610370565b820191906000526020600020905b81548152906001019060200180831161035357829003601f168201915b5050505050815260200160018201805461038990610de2565b80601f01602080910402602001604051908101604052809291908181526020018280546103b590610de2565b80156104025780601f106103d757610100808354040283529160200191610402565b820191906000526020600020905b8154815290600101906020018083116103e557829003601f168201915b5050505050815260200160028201805461041b90610de2565b80601f016020809104026020016040519081016040528092919081815260200182805461044790610de2565b80156104945780601f1061046957610100808354040283529160200191610494565b820191906000526020600020905b81548152906001019060200180831161047757829003601f168201915b505050505081525050815260200190600101906102c4565b50505050905090565b6000600160003373ffffffffffffffffffffffffffffffffffffffff1673ffffffffffffffffffffffffffffffffffffffff16815260200190815260200160002060008373ffffffffffffffffffffffffffffffffffffffff1673ffffffffffffffffffffffffffffffffffffffff16815260200190815260200160002060006101000a81548160ff02191690831515021790555050565b60603373ffffffffffffffffffffffffffffffffffffffff168273ffffffffffffffffffffffffffffffffffffffff16148061058f575061058e82336101d0565b5b6105ce576040517f08c379a00000000000000000000000000000000000000000000000000000000081526004016105c590610e70565b60405180910390fd5b6000808373ffffffffffffffffffffffffffffffffffffffff1673ffffffffffffffffffffffffffffffffffffffff168152602001908152602001600020805480602002602001604051908101604052809291908181526020016000905b82821015610814578382906000526020600020906003020160405180606001604052908160008201805461065f90610de2565b80601f016020809104026020016040519081016040528092919081815260200182805461068b90610de2565b80156106d85780601f106106ad576101008083540402835291602001916106d8565b820191906000526020600020905b8154815290600101906020018083116106bb57829003601f168201915b505050505081526020016001820180546106f190610de2565b80601f016020809104026020016040519081016040528092919081815260200182805461071d90610de2565b801561076a5780601f1061073f5761010080835404028352916020019161076a565b820191906000526020600020905b81548152906001019060200180831161074d57829003601f168201915b5050505050815260200160028201805461078390610de2565b80601f01602080910402602001604051908101604052809291908181526020018280546107af90610de2565b80156107fc5780601f106107d1576101008083540402835291602001916107fc565b820191906000526020600020905b8154815290600101906020018083116107df57829003601f168201915b5050505050815250508152602001906001019061062c565b505050509050919050565b600060405180606001604052808581526020018481526020018381525090506000803373ffffffffffffffffffffffffffffffffffffffff1673ffffffffffffffffffffffffffffffffffffffff16815260200190815260200160002081908060018154018082558091505060019003906000526020600020906003020160009091909190915060008201518160000190816108bb9190611046565b5060208201518160010190816108d19190611046565b5060408201518160020190816108e79190611046565b50505050505050565b6000604051905090565b600080fd5b600080fd5b600073ffffffffffffffffffffffffffffffffffffffff82169050919050565b600061092f82610904565b9050919050565b61093f81610924565b811461094a57600080fd5b50565b60008135905061095c81610936565b92915050565b600060208284031215610978576109776108fa565b5b60006109868482850161094d565b91505092915050565b600080604083850312156109a6576109a56108fa565b5b60006109b48582860161094d565b92505060206109c58582860161094d565b9150509250929050565b60008115159050919050565b6109e4816109cf565b82525050565b60006020820190506109ff60008301846109db565b92915050565b600081519050919050565b600082825260208201905092915050565b6000819050602082019050919050565b600081519050919050565b600082825260208201905092915050565b60005b83811015610a6b578082015181840152602081019050610a50565b60008484015250505050565b6000601f19601f8301169050919050565b6000610a9382610a31565b610a9d8185610a3c565b9350610aad818560208601610a4d565b610ab681610a77565b840191505092915050565b60006060830160008301518482036000860152610ade8282610a88565b91505060208301518482036020860152610af88282610a88565b91505060408301518482036040860152610b128282610a88565b9150508091505092915050565b6000610b2b8383610ac1565b905092915050565b6000602082019050919050565b6000610b4b82610a05565b610b558185610a10565b935083602082028501610b6785610a21565b8060005b85811015610ba35784840389528151610b848582610b1f565b9450610b8f83610b33565b925060208a01995050600181019050610b6b565b50829750879550505050505092915050565b60006020820190508181036000830152610bcf8184610b40565b905092915050565b600080fd5b600080fd5b7f4e487b7100000000000000000000000000000000000000000000000000000000600052604160045260246000fd5b610c1982610a77565b810181811067ffffffffffffffff82111715610c3857610c37610be1565b5b80604052505050565b6000610c4b6108f0565b9050610c578282610c10565b919050565b600067ffffffffffffffff821115610c7757610c76610be1565b5b610c8082610a77565b9050602081019050919050565b82818337600083830152505050565b6000610caf610caa84610c5c565b610c41565b905082815260208101848484011115610ccb57610cca610bdc565b5b610cd6848285610c8d565b509392505050565b600082601f830112610cf357610cf2610bd7565b5b8135610d03848260208601610c9c565b91505092915050565b600080600060608486031215610d2557610d246108fa565b5b600084013567ffffffffffffffff811115610d4357610d426108ff565b5b610d4f86828701610cde565b935050602084013567ffffffffffffffff811115610d7057610d6f6108ff565b5b610d7c86828701610cde565b925050604084013567ffffffffffffffff811115610d9d57610d9c6108ff565b5b610da986828701610cde565b9150509250925092565b7f4e487b7100000000000000000000000000000000000000000000000000000000600052602260045260246000fd5b60006002820490506001821680610dfa57607f821691505b602082108103610e0d57610e0c610db3565b5b50919050565b600082825260208201905092915050565b7f4e6f7420617574686f72697a656420746f2076696577207265636f7264730000600082015250565b6000610e5a601e83610e13565b9150610e6582610e24565b602082019050919050565b60006020820190508181036000830152610e8981610e4d565b9050919050565b60008190508160005260206000209050919050565b60006020601f8301049050919050565b600082821b905092915050565b600060088302610ef27fffffffffffffffffffffffffffffffffffffffffffffffffffffffffffffffff82610eb5565b610efc8683610eb5565b95508019841693508086168417925050509392505050565b6000819050919050565b6000819050919050565b6000610f43610f3e610f3984610f14565b610f1e565b610f14565b9050919050565b6000819050919050565b610f5d83610f28565b610f71610f6982610f4a565b848454610ec2565b825550505050565b600090565b610f86610f79565b610f91818484610f54565b505050565b5b81811015610fb557610faa600082610f7e565b600181019050610f97565b5050565b601f821115610ffa57610fcb81610e90565b610fd484610ea5565b81016020851015610fe3578190505b610ff7610fef85610ea5565b830182610f96565b50505b505050565b600082821c905092915050565b600061101d60001984600802610fff565b1980831691505092915050565b6000611036838361100c565b9150826002028217905092915050565b61104f82610a31565b67ffffffffffffffff81111561106857611067610be1565b5b6110728254610de2565b61107d828285610fb9565b600060209050601f8311600181146110b0576000841561109e578287015190505b6110a8858261102a565b865550611110565b601f1984166110be86610e90565b60005b828110156110e6578489015182556001820191506020850194506020810190506110c1565b8683101561110357848901516110ff601f89168261100c565b8355505b6001600288020188555050505b50505050505056fea2646970667358221220256fbafc4951f7327fdd66100d9ed2065d6ab12581e301608f40af574bfb286764736f6c63430008130033",
  "immutableReferences": {},
  "source": "// SPDX-License-Identifier: MIT\r\npragma solidity ^0.8.19;\r\n\r\ncontract RecordContract {\r\n    struct Record {\r\n        string diagnosis;\r\n        string prescription;\r\n        string docSignature;\r\n    }\r\n    \r\n    mapping(address => Record[]) private records;\r\n    mapping(address => mapping(address => bool)) private doctorPermissions;\r\n\r\n    function createEHR(\r\n        string memory _diagnosis,\r\n        string memory _prescription,\r\n        string memory _docSignature\r\n    ) public {\r\n        Record memory newRecord = Record(\r\n            _diagnosis,\r\n            _prescription,\r\n            _docSignature\r\n        );\r\n        records[msg.sender].push(newRecord);\r\n    }\r\n\r\n    function getRecords() public view returns (Record[] memory) {\r\n        return records[msg.sender];\r\n    }\r\n\r\n    function grantPermission(address doctorAddress) public {\r\n        doctorPermissions[msg.sender][doctorAddress] = true;\r\n    }\r\n\r\n    function revokePermission(address doctorAddress) public {\r\n        doctorPermissions[msg.sender][doctorAddress] = false;\r\n    }\r\n\r\n    function canViewRecord(\r\n        address patientAddress,\r\n        address doctorAddress\r\n    ) public view returns (bool) {\r\n        return doctorPermissions[patientAddress][doctorAddress];\r\n    }\r\n\r\n    function viewRecord(\r\n        address patientAddress\r\n    ) public view returns (Record[] memory) {\r\n        require(\r\n            patientAddress == msg.sender ||\r\n                canViewRecord(patientAddress, msg.sender),\r\n            \"Not authorized to view records\"\r\n        );\r\n        return records[patientAddress];\r\n    }\r\n}\r\n",
  "sourcePath": "/Users/sonupradhan/Desktop/EHR/src/contracts/record.sol",
  "compiler": {
    "name": "solc",
    "version": "0.8.19+commit.7dd6d404.Emscripten.clang"
  },
  "schemaVersion": "3.4.16",
  "updatedAt": "2024-04-21T15:04:39.622Z",
  "devdoc": {
    "kind": "dev",
    "methods": {},
    "version": 1
  },
  "userdoc": {
    "kind": "user",
    "methods": {},
    "version": 1
  }
}