{
  "contractName": "record",
  "abi": [
    {
      "inputs": [
        {
          "internalType": "string",
          "name": "_recordId",
          "type": "string"
        },
        {
          "internalType": "string",
          "name": "_patientName",
          "type": "string"
        },
        {
          "internalType": "string",
          "name": "_doctorName",
          "type": "string"
        },
        {
          "internalType": "address",
          "name": "_doctorAddress",
          "type": "address"
        },
        {
          "internalType": "address",
          "name": "_patientAddress",
          "type": "address"
        },
        {
          "internalType": "uint256",
          "name": "_age",
          "type": "uint256"
        },
        {
          "internalType": "string",
          "name": "_gender",
          "type": "string"
        },
        {
          "internalType": "string",
          "name": "_diagnosis",
          "type": "string"
        },
        {
          "internalType": "string",
          "name": "_prescription",
          "type": "string"
        },
        {
          "internalType": "string",
          "name": "_cid",
          "type": "string"
        },
        {
          "internalType": "string",
          "name": "_docSignature",
          "type": "string"
        }
      ],
      "name": "createEHR",
      "outputs": [],
      "stateMutability": "nonpayable",
      "type": "function"
    },
    {
      "inputs": [],
      "name": "getRecords",
      "outputs": [
        {
          "components": [
            {
              "internalType": "string",
              "name": "recordId",
              "type": "string"
            },
            {
              "internalType": "string",
              "name": "patientName",
              "type": "string"
            },
            {
              "internalType": "string",
              "name": "doctorName",
              "type": "string"
            },
            {
              "internalType": "address",
              "name": "doctorAddress",
              "type": "address"
            },
            {
              "internalType": "address",
              "name": "patientAddress",
              "type": "address"
            },
            {
              "internalType": "uint256",
              "name": "age",
              "type": "uint256"
            },
            {
              "internalType": "string",
              "name": "gender",
              "type": "string"
            },
            {
              "internalType": "string",
              "name": "diagnosis",
              "type": "string"
            },
            {
              "internalType": "string",
              "name": "prescription",
              "type": "string"
            },
            {
              "internalType": "string",
              "name": "cid",
              "type": "string"
            },
            {
              "internalType": "string",
              "name": "docSignature",
              "type": "string"
            }
          ],
          "internalType": "struct record.Record[]",
          "name": "",
          "type": "tuple[]"
        }
      ],
      "stateMutability": "view",
      "type": "function",
      "constant": true
    },
    {
      "inputs": [
        {
          "internalType": "address",
          "name": "doctorAddress",
          "type": "address"
        }
      ],
      "name": "grantPermission",
      "outputs": [],
      "stateMutability": "nonpayable",
      "type": "function"
    },
    {
      "inputs": [
        {
          "internalType": "address",
          "name": "doctorAddress",
          "type": "address"
        }
      ],
      "name": "revokePermission",
      "outputs": [],
      "stateMutability": "nonpayable",
      "type": "function"
    },
    {
      "inputs": [
        {
          "internalType": "address",
          "name": "patientAddress",
          "type": "address"
        },
        {
          "internalType": "address",
          "name": "doctorAddress",
          "type": "address"
        }
      ],
      "name": "canViewRecord",
      "outputs": [
        {
          "internalType": "bool",
          "name": "",
          "type": "bool"
        }
      ],
      "stateMutability": "view",
      "type": "function",
      "constant": true
    },
    {
      "inputs": [
        {
          "internalType": "address",
          "name": "patientAddress",
          "type": "address"
        }
      ],
      "name": "viewRecord",
      "outputs": [
        {
          "components": [
            {
              "internalType": "string",
              "name": "recordId",
              "type": "string"
            },
            {
              "internalType": "string",
              "name": "patientName",
              "type": "string"
            },
            {
              "internalType": "string",
              "name": "doctorName",
              "type": "string"
            },
            {
              "internalType": "address",
              "name": "doctorAddress",
              "type": "address"
            },
            {
              "internalType": "address",
              "name": "patientAddress",
              "type": "address"
            },
            {
              "internalType": "uint256",
              "name": "age",
              "type": "uint256"
            },
            {
              "internalType": "string",
              "name": "gender",
              "type": "string"
            },
            {
              "internalType": "string",
              "name": "diagnosis",
              "type": "string"
            },
            {
              "internalType": "string",
              "name": "prescription",
              "type": "string"
            },
            {
              "internalType": "string",
              "name": "cid",
              "type": "string"
            },
            {
              "internalType": "string",
              "name": "docSignature",
              "type": "string"
            }
          ],
          "internalType": "struct record.Record[]",
          "name": "",
          "type": "tuple[]"
        }
      ],
      "stateMutability": "view",
      "type": "function",
      "constant": true
    }
  ],
  "bytecode": "0x608060405234801561001057600080fd5b50611c17806100206000396000f3fe608060405234801561001057600080fd5b50600436106100625760003560e01c80632d8e327814610067578063489950f8146100835780636b100169146100b35780638eff3c29146100cf578063a3bf5b9a146100ed578063b75bf86514610109575b600080fd5b610081600480360381019061007c91906111f2565b610139565b005b61009d6004803603810190610098919061121f565b6101d0565b6040516100aa919061127a565b60405180910390f35b6100cd60048036038101906100c89190611411565b610264565b005b6100d76104a3565b6040516100e49190611864565b60405180910390f35b610107600480360381019061010291906111f2565b610a85565b005b610123600480360381019061011e91906111f2565b610b1d565b6040516101309190611864565b60405180910390f35b60018060003373ffffffffffffffffffffffffffffffffffffffff1673ffffffffffffffffffffffffffffffffffffffff16815260200190815260200160002060008373ffffffffffffffffffffffffffffffffffffffff1673ffffffffffffffffffffffffffffffffffffffff16815260200190815260200160002060006101000a81548160ff02191690831515021790555050565b6000600160008473ffffffffffffffffffffffffffffffffffffffff1673ffffffffffffffffffffffffffffffffffffffff16815260200190815260200160002060008373ffffffffffffffffffffffffffffffffffffffff1673ffffffffffffffffffffffffffffffffffffffff16815260200190815260200160002060009054906101000a900460ff16905092915050565b60006040518061016001604052808d81526020018c81526020018b81526020018a73ffffffffffffffffffffffffffffffffffffffff1681526020018973ffffffffffffffffffffffffffffffffffffffff1681526020018881526020018781526020018681526020018581526020018481526020018381525090506000803373ffffffffffffffffffffffffffffffffffffffff1673ffffffffffffffffffffffffffffffffffffffff1681526020019081526020016000208190806001815401808255809150506001900390600052602060002090600b0201600090919091909150600082015181600001908161035d9190611a92565b5060208201518160010190816103739190611a92565b5060408201518160020190816103899190611a92565b5060608201518160030160006101000a81548173ffffffffffffffffffffffffffffffffffffffff021916908373ffffffffffffffffffffffffffffffffffffffff16021790555060808201518160040160006101000a81548173ffffffffffffffffffffffffffffffffffffffff021916908373ffffffffffffffffffffffffffffffffffffffff16021790555060a0820151816005015560c08201518160060190816104379190611a92565b5060e082015181600701908161044d9190611a92565b506101008201518160080190816104649190611a92565b5061012082015181600901908161047b9190611a92565b5061014082015181600a0190816104929190611a92565b505050505050505050505050505050565b60606000803373ffffffffffffffffffffffffffffffffffffffff1673ffffffffffffffffffffffffffffffffffffffff168152602001908152602001600020805480602002602001604051908101604052809291908181526020016000905b82821015610a7c57838290600052602060002090600b020160405180610160016040529081600082018054610537906118b5565b80601f0160208091040260200160405190810160405280929190818152602001828054610563906118b5565b80156105b05780601f10610585576101008083540402835291602001916105b0565b820191906000526020600020905b81548152906001019060200180831161059357829003601f168201915b505050505081526020016001820180546105c9906118b5565b80601f01602080910402602001604051908101604052809291908181526020018280546105f5906118b5565b80156106425780601f1061061757610100808354040283529160200191610642565b820191906000526020600020905b81548152906001019060200180831161062557829003601f168201915b5050505050815260200160028201805461065b906118b5565b80601f0160208091040260200160405190810160405280929190818152602001828054610687906118b5565b80156106d45780601f106106a9576101008083540402835291602001916106d4565b820191906000526020600020905b8154815290600101906020018083116106b757829003601f168201915b505050505081526020016003820160009054906101000a900473ffffffffffffffffffffffffffffffffffffffff1673ffffffffffffffffffffffffffffffffffffffff1673ffffffffffffffffffffffffffffffffffffffff1681526020016004820160009054906101000a900473ffffffffffffffffffffffffffffffffffffffff1673ffffffffffffffffffffffffffffffffffffffff1673ffffffffffffffffffffffffffffffffffffffff168152602001600582015481526020016006820180546107a3906118b5565b80601f01602080910402602001604051908101604052809291908181526020018280546107cf906118b5565b801561081c5780601f106107f15761010080835404028352916020019161081c565b820191906000526020600020905b8154815290600101906020018083116107ff57829003601f168201915b50505050508152602001600782018054610835906118b5565b80601f0160208091040260200160405190810160405280929190818152602001828054610861906118b5565b80156108ae5780601f10610883576101008083540402835291602001916108ae565b820191906000526020600020905b81548152906001019060200180831161089157829003601f168201915b505050505081526020016008820180546108c7906118b5565b80601f01602080910402602001604051908101604052809291908181526020018280546108f3906118b5565b80156109405780601f1061091557610100808354040283529160200191610940565b820191906000526020600020905b81548152906001019060200180831161092357829003601f168201915b50505050508152602001600982018054610959906118b5565b80601f0160208091040260200160405190810160405280929190818152602001828054610985906118b5565b80156109d25780601f106109a7576101008083540402835291602001916109d2565b820191906000526020600020905b8154815290600101906020018083116109b557829003601f168201915b50505050508152602001600a820180546109eb906118b5565b80601f0160208091040260200160405190810160405280929190818152602001828054610a17906118b5565b8015610a645780601f10610a3957610100808354040283529160200191610a64565b820191906000526020600020905b815481529060010190602001808311610a4757829003601f168201915b50505050508152505081526020019060010190610503565b50505050905090565b6000600160003373ffffffffffffffffffffffffffffffffffffffff1673ffffffffffffffffffffffffffffffffffffffff16815260200190815260200160002060008373ffffffffffffffffffffffffffffffffffffffff1673ffffffffffffffffffffffffffffffffffffffff16815260200190815260200160002060006101000a81548160ff02191690831515021790555050565b60603373ffffffffffffffffffffffffffffffffffffffff168273ffffffffffffffffffffffffffffffffffffffff161480610b5f5750610b5e82336101d0565b5b610b9e576040517f08c379a0000000000000000000000000000000000000000000000000000000008152600401610b9590611bc1565b60405180910390fd5b6000808373ffffffffffffffffffffffffffffffffffffffff1673ffffffffffffffffffffffffffffffffffffffff168152602001908152602001600020805480602002602001604051908101604052809291908181526020016000905b8282101561117557838290600052602060002090600b020160405180610160016040529081600082018054610c30906118b5565b80601f0160208091040260200160405190810160405280929190818152602001828054610c5c906118b5565b8015610ca95780601f10610c7e57610100808354040283529160200191610ca9565b820191906000526020600020905b815481529060010190602001808311610c8c57829003601f168201915b50505050508152602001600182018054610cc2906118b5565b80601f0160208091040260200160405190810160405280929190818152602001828054610cee906118b5565b8015610d3b5780601f10610d1057610100808354040283529160200191610d3b565b820191906000526020600020905b815481529060010190602001808311610d1e57829003601f168201915b50505050508152602001600282018054610d54906118b5565b80601f0160208091040260200160405190810160405280929190818152602001828054610d80906118b5565b8015610dcd5780601f10610da257610100808354040283529160200191610dcd565b820191906000526020600020905b815481529060010190602001808311610db057829003601f168201915b505050505081526020016003820160009054906101000a900473ffffffffffffffffffffffffffffffffffffffff1673ffffffffffffffffffffffffffffffffffffffff1673ffffffffffffffffffffffffffffffffffffffff1681526020016004820160009054906101000a900473ffffffffffffffffffffffffffffffffffffffff1673ffffffffffffffffffffffffffffffffffffffff1673ffffffffffffffffffffffffffffffffffffffff16815260200160058201548152602001600682018054610e9c906118b5565b80601f0160208091040260200160405190810160405280929190818152602001828054610ec8906118b5565b8015610f155780601f10610eea57610100808354040283529160200191610f15565b820191906000526020600020905b815481529060010190602001808311610ef857829003601f168201915b50505050508152602001600782018054610f2e906118b5565b80601f0160208091040260200160405190810160405280929190818152602001828054610f5a906118b5565b8015610fa75780601f10610f7c57610100808354040283529160200191610fa7565b820191906000526020600020905b815481529060010190602001808311610f8a57829003601f168201915b50505050508152602001600882018054610fc0906118b5565b80601f0160208091040260200160405190810160405280929190818152602001828054610fec906118b5565b80156110395780601f1061100e57610100808354040283529160200191611039565b820191906000526020600020905b81548152906001019060200180831161101c57829003601f168201915b50505050508152602001600982018054611052906118b5565b80601f016020809104026020016040519081016040528092919081815260200182805461107e906118b5565b80156110cb5780601f106110a0576101008083540402835291602001916110cb565b820191906000526020600020905b8154815290600101906020018083116110ae57829003601f168201915b50505050508152602001600a820180546110e4906118b5565b80601f0160208091040260200160405190810160405280929190818152602001828054611110906118b5565b801561115d5780601f106111325761010080835404028352916020019161115d565b820191906000526020600020905b81548152906001019060200180831161114057829003601f168201915b50505050508152505081526020019060010190610bfc565b505050509050919050565b6000604051905090565b600080fd5b600080fd5b600073ffffffffffffffffffffffffffffffffffffffff82169050919050565b60006111bf82611194565b9050919050565b6111cf816111b4565b81146111da57600080fd5b50565b6000813590506111ec816111c6565b92915050565b6000602082840312156112085761120761118a565b5b6000611216848285016111dd565b91505092915050565b600080604083850312156112365761123561118a565b5b6000611244858286016111dd565b9250506020611255858286016111dd565b9150509250929050565b60008115159050919050565b6112748161125f565b82525050565b600060208201905061128f600083018461126b565b92915050565b600080fd5b600080fd5b6000601f19601f8301169050919050565b7f4e487b7100000000000000000000000000000000000000000000000000000000600052604160045260246000fd5b6112e88261129f565b810181811067ffffffffffffffff82111715611307576113066112b0565b5b80604052505050565b600061131a611180565b905061132682826112df565b919050565b600067ffffffffffffffff821115611346576113456112b0565b5b61134f8261129f565b9050602081019050919050565b82818337600083830152505050565b600061137e6113798461132b565b611310565b90508281526020810184848401111561139a5761139961129a565b5b6113a584828561135c565b509392505050565b600082601f8301126113c2576113c1611295565b5b81356113d284826020860161136b565b91505092915050565b6000819050919050565b6113ee816113db565b81146113f957600080fd5b50565b60008135905061140b816113e5565b92915050565b60008060008060008060008060008060006101608c8e0312156114375761143661118a565b5b60008c013567ffffffffffffffff8111156114555761145461118f565b5b6114618e828f016113ad565b9b505060208c013567ffffffffffffffff8111156114825761148161118f565b5b61148e8e828f016113ad565b9a505060408c013567ffffffffffffffff8111156114af576114ae61118f565b5b6114bb8e828f016113ad565b99505060606114cc8e828f016111dd565b98505060806114dd8e828f016111dd565b97505060a06114ee8e828f016113fc565b96505060c08c013567ffffffffffffffff81111561150f5761150e61118f565b5b61151b8e828f016113ad565b95505060e08c013567ffffffffffffffff81111561153c5761153b61118f565b5b6115488e828f016113ad565b9450506101008c013567ffffffffffffffff81111561156a5761156961118f565b5b6115768e828f016113ad565b9350506101208c013567ffffffffffffffff8111156115985761159761118f565b5b6115a48e828f016113ad565b9250506101408c013567ffffffffffffffff8111156115c6576115c561118f565b5b6115d28e828f016113ad565b9150509295989b509295989b9093969950565b600081519050919050565b600082825260208201905092915050565b6000819050602082019050919050565b600081519050919050565b600082825260208201905092915050565b60005b8381101561164b578082015181840152602081019050611630565b60008484015250505050565b600061166282611611565b61166c818561161c565b935061167c81856020860161162d565b6116858161129f565b840191505092915050565b611699816111b4565b82525050565b6116a8816113db565b82525050565b60006101608301600083015184820360008601526116cc8282611657565b915050602083015184820360208601526116e68282611657565b915050604083015184820360408601526117008282611657565b91505060608301516117156060860182611690565b5060808301516117286080860182611690565b5060a083015161173b60a086018261169f565b5060c083015184820360c08601526117538282611657565b91505060e083015184820360e086015261176d8282611657565b9150506101008301518482036101008601526117898282611657565b9150506101208301518482036101208601526117a58282611657565b9150506101408301518482036101408601526117c18282611657565b9150508091505092915050565b60006117da83836116ae565b905092915050565b6000602082019050919050565b60006117fa826115e5565b61180481856115f0565b93508360208202850161181685611601565b8060005b85811015611852578484038952815161183385826117ce565b945061183e836117e2565b925060208a0199505060018101905061181a565b50829750879550505050505092915050565b6000602082019050818103600083015261187e81846117ef565b905092915050565b7f4e487b7100000000000000000000000000000000000000000000000000000000600052602260045260246000fd5b600060028204905060018216806118cd57607f821691505b6020821081036118e0576118df611886565b5b50919050565b60008190508160005260206000209050919050565b60006020601f8301049050919050565b600082821b905092915050565b6000600883026119487fffffffffffffffffffffffffffffffffffffffffffffffffffffffffffffffff8261190b565b611952868361190b565b95508019841693508086168417925050509392505050565b6000819050919050565b600061198f61198a611985846113db565b61196a565b6113db565b9050919050565b6000819050919050565b6119a983611974565b6119bd6119b582611996565b848454611918565b825550505050565b600090565b6119d26119c5565b6119dd8184846119a0565b505050565b5b81811015611a01576119f66000826119ca565b6001810190506119e3565b5050565b601f821115611a4657611a17816118e6565b611a20846118fb565b81016020851015611a2f578190505b611a43611a3b856118fb565b8301826119e2565b50505b505050565b600082821c905092915050565b6000611a6960001984600802611a4b565b1980831691505092915050565b6000611a828383611a58565b9150826002028217905092915050565b611a9b82611611565b67ffffffffffffffff811115611ab457611ab36112b0565b5b611abe82546118b5565b611ac9828285611a05565b600060209050601f831160018114611afc5760008415611aea578287015190505b611af48582611a76565b865550611b5c565b601f198416611b0a866118e6565b60005b82811015611b3257848901518255600182019150602085019450602081019050611b0d565b86831015611b4f5784890151611b4b601f891682611a58565b8355505b6001600288020188555050505b505050505050565b600082825260208201905092915050565b7f4e6f7420617574686f72697a656420746f2076696577207265636f7264730000600082015250565b6000611bab601e83611b64565b9150611bb682611b75565b602082019050919050565b60006020820190508181036000830152611bda81611b9e565b905091905056fea264697066735822122066496ef1939a6c0ae490b3fb9cd8108c78ef6274f6ce114d26e3c95c12dc4b1d64736f6c63430008130033",
  "immutableReferences": {},
  "source": "// SPDX-License-Identifier: MIT\r\npragma solidity ^0.8.19;\r\n\r\ncontract record {\r\n    struct Record {\r\n        string recordId;\r\n        string patientName;\r\n        string doctorName;\r\n        address doctorAddress;\r\n        address patientAddress;\r\n        uint256 age;\r\n        string gender;\r\n        string diagnosis;\r\n        string prescription;\r\n        string cid;\r\n        string docSignature;\r\n    }\r\n    mapping(address => Record[]) private records;\r\n    mapping(address => mapping(address => bool)) private doctorPermissions;\r\n\r\n    function createEHR(\r\n        string memory _recordId,\r\n        string memory _patientName,\r\n        string memory _doctorName,\r\n        address _doctorAddress,\r\n        address _patientAddress,\r\n        uint256 _age,\r\n        string memory _gender,\r\n        string memory _diagnosis,\r\n        string memory _prescription,\r\n        string memory _cid,\r\n        string memory _docSignature\r\n    ) public {\r\n        Record memory newRecord = Record(\r\n            _recordId,\r\n            _patientName,\r\n            _doctorName,\r\n            _doctorAddress,\r\n            _patientAddress,\r\n            _age,\r\n            _gender,\r\n            _diagnosis,\r\n            _prescription,\r\n            _cid,\r\n            _docSignature\r\n        );\r\n        records[msg.sender].push(newRecord);\r\n    }\r\n\r\n    function getRecords() public view returns (Record[] memory) {\r\n        return records[msg.sender];\r\n    }\r\n\r\n    function grantPermission(address doctorAddress) public {\r\n        doctorPermissions[msg.sender][doctorAddress] = true;\r\n    }\r\n\r\n    function revokePermission(address doctorAddress) public {\r\n        doctorPermissions[msg.sender][doctorAddress] = false;\r\n    }\r\n\r\n    function canViewRecord(\r\n        address patientAddress,\r\n        address doctorAddress\r\n    ) public view returns (bool) {\r\n        return doctorPermissions[patientAddress][doctorAddress];\r\n    }\r\n\r\n    function viewRecord(\r\n        address patientAddress\r\n    ) public view returns (Record[] memory) {\r\n        require(\r\n            patientAddress == msg.sender ||\r\n                canViewRecord(patientAddress, msg.sender),\r\n            \"Not authorized to view records\"\r\n        );\r\n        return records[patientAddress];\r\n    }\r\n}\r\n",
  "sourcePath": "/Users/sonupradhan/Desktop/SAP2/src/contracts/record.sol",
  "compiler": {
    "name": "solc",
    "version": "0.8.19+commit.7dd6d404.Emscripten.clang"
  },
  "schemaVersion": "3.4.16",
  "updatedAt": "2024-04-01T05:04:26.845Z",
  "networkType": "ethereum",
  "devdoc": {
    "kind": "dev",
    "methods": {},
    "version": 1
  },
  "userdoc": {
    "kind": "user",
    "methods": {},
    "version": 1
  }
}