{
  "contractName": "record2",
  "abi": [
    {
      "inputs": [
        {
          "internalType": "string",
          "name": "_recordId",
          "type": "string"
        },
        {
          "internalType": "string",
          "name": "_patientName",
          "type": "string"
        },
        {
          "internalType": "string",
          "name": "_doctorName",
          "type": "string"
        },
        {
          "internalType": "address",
          "name": "_doctorAddress",
          "type": "address"
        },
        {
          "internalType": "address",
          "name": "_patientAddress",
          "type": "address"
        },
        {
          "internalType": "uint256",
          "name": "_age",
          "type": "uint256"
        },
        {
          "internalType": "string",
          "name": "_gender",
          "type": "string"
        },
        {
          "internalType": "string",
          "name": "_bloodgroup",
          "type": "string"
        },
        {
          "internalType": "string",
          "name": "_cid",
          "type": "string"
        }
      ],
      "name": "createEHR2",
      "outputs": [],
      "stateMutability": "nonpayable",
      "type": "function"
    },
    {
      "inputs": [],
      "name": "getRecords",
      "outputs": [
        {
          "components": [
            {
              "internalType": "string",
              "name": "recordId",
              "type": "string"
            },
            {
              "internalType": "string",
              "name": "patientName",
              "type": "string"
            },
            {
              "internalType": "string",
              "name": "doctorName",
              "type": "string"
            },
            {
              "internalType": "address",
              "name": "doctorAddress",
              "type": "address"
            },
            {
              "internalType": "address",
              "name": "patientAddress",
              "type": "address"
            },
            {
              "internalType": "uint256",
              "name": "age",
              "type": "uint256"
            },
            {
              "internalType": "string",
              "name": "gender",
              "type": "string"
            },
            {
              "internalType": "string",
              "name": "bloodgroup",
              "type": "string"
            },
            {
              "internalType": "string",
              "name": "cid",
              "type": "string"
            }
          ],
          "internalType": "struct record2.Record[]",
          "name": "",
          "type": "tuple[]"
        }
      ],
      "stateMutability": "view",
      "type": "function"
    },
    {
      "inputs": [
        {
          "internalType": "address",
          "name": "doctorAddress",
          "type": "address"
        }
      ],
      "name": "grantPermission",
      "outputs": [],
      "stateMutability": "nonpayable",
      "type": "function"
    },
    {
      "inputs": [
        {
          "internalType": "address",
          "name": "doctorAddress",
          "type": "address"
        }
      ],
      "name": "revokePermission",
      "outputs": [],
      "stateMutability": "nonpayable",
      "type": "function"
    },
    {
      "inputs": [
        {
          "internalType": "address",
          "name": "patientAddress",
          "type": "address"
        },
        {
          "internalType": "address",
          "name": "doctorAddress",
          "type": "address"
        }
      ],
      "name": "canViewRecord",
      "outputs": [
        {
          "internalType": "bool",
          "name": "",
          "type": "bool"
        }
      ],
      "stateMutability": "view",
      "type": "function"
    },
    {
      "inputs": [
        {
          "internalType": "address",
          "name": "patientAddress",
          "type": "address"
        }
      ],
      "name": "viewRecord",
      "outputs": [
        {
          "components": [
            {
              "internalType": "string",
              "name": "recordId",
              "type": "string"
            },
            {
              "internalType": "string",
              "name": "patientName",
              "type": "string"
            },
            {
              "internalType": "string",
              "name": "doctorName",
              "type": "string"
            },
            {
              "internalType": "address",
              "name": "doctorAddress",
              "type": "address"
            },
            {
              "internalType": "address",
              "name": "patientAddress",
              "type": "address"
            },
            {
              "internalType": "uint256",
              "name": "age",
              "type": "uint256"
            },
            {
              "internalType": "string",
              "name": "gender",
              "type": "string"
            },
            {
              "internalType": "string",
              "name": "bloodgroup",
              "type": "string"
            },
            {
              "internalType": "string",
              "name": "cid",
              "type": "string"
            }
          ],
          "internalType": "struct record2.Record[]",
          "name": "",
          "type": "tuple[]"
        }
      ],
      "stateMutability": "view",
      "type": "function"
    }
  ],
  "bytecode": "0x608060405234801561001057600080fd5b506118f9806100206000396000f3fe608060405234801561001057600080fd5b50600436106100625760003560e01c80632d8e327814610067578063489950f8146100835780638eff3c29146100b3578063a3bf5b9a146100d1578063b75bf865146100ed578063e2c631631461011d575b600080fd5b610081600480360381019061007c9190610f6e565b610139565b005b61009d60048036038101906100989190610f9b565b6101d0565b6040516100aa9190610ff6565b60405180910390f35b6100bb610264565b6040516100c89190611273565b60405180910390f35b6100eb60048036038101906100e69190610f6e565b610722565b005b61010760048036038101906101029190610f6e565b6107ba565b6040516101149190611273565b60405180910390f35b610137600480360381019061013291906113f6565b610cf9565b005b60018060003373ffffffffffffffffffffffffffffffffffffffff1673ffffffffffffffffffffffffffffffffffffffff16815260200190815260200160002060008373ffffffffffffffffffffffffffffffffffffffff1673ffffffffffffffffffffffffffffffffffffffff16815260200190815260200160002060006101000a81548160ff02191690831515021790555050565b6000600160008473ffffffffffffffffffffffffffffffffffffffff1673ffffffffffffffffffffffffffffffffffffffff16815260200190815260200160002060008373ffffffffffffffffffffffffffffffffffffffff1673ffffffffffffffffffffffffffffffffffffffff16815260200190815260200160002060009054906101000a900460ff16905092915050565b60606000803373ffffffffffffffffffffffffffffffffffffffff1673ffffffffffffffffffffffffffffffffffffffff168152602001908152602001600020805480602002602001604051908101604052809291908181526020016000905b828210156107195783829060005260206000209060090201604051806101200160405290816000820180546102f890611597565b80601f016020809104026020016040519081016040528092919081815260200182805461032490611597565b80156103715780601f1061034657610100808354040283529160200191610371565b820191906000526020600020905b81548152906001019060200180831161035457829003601f168201915b5050505050815260200160018201805461038a90611597565b80601f01602080910402602001604051908101604052809291908181526020018280546103b690611597565b80156104035780601f106103d857610100808354040283529160200191610403565b820191906000526020600020905b8154815290600101906020018083116103e657829003601f168201915b5050505050815260200160028201805461041c90611597565b80601f016020809104026020016040519081016040528092919081815260200182805461044890611597565b80156104955780601f1061046a57610100808354040283529160200191610495565b820191906000526020600020905b81548152906001019060200180831161047857829003601f168201915b505050505081526020016003820160009054906101000a900473ffffffffffffffffffffffffffffffffffffffff1673ffffffffffffffffffffffffffffffffffffffff1673ffffffffffffffffffffffffffffffffffffffff1681526020016004820160009054906101000a900473ffffffffffffffffffffffffffffffffffffffff1673ffffffffffffffffffffffffffffffffffffffff1673ffffffffffffffffffffffffffffffffffffffff1681526020016005820154815260200160068201805461056490611597565b80601f016020809104026020016040519081016040528092919081815260200182805461059090611597565b80156105dd5780601f106105b2576101008083540402835291602001916105dd565b820191906000526020600020905b8154815290600101906020018083116105c057829003601f168201915b505050505081526020016007820180546105f690611597565b80601f016020809104026020016040519081016040528092919081815260200182805461062290611597565b801561066f5780601f106106445761010080835404028352916020019161066f565b820191906000526020600020905b81548152906001019060200180831161065257829003601f168201915b5050505050815260200160088201805461068890611597565b80601f01602080910402602001604051908101604052809291908181526020018280546106b490611597565b80156107015780601f106106d657610100808354040283529160200191610701565b820191906000526020600020905b8154815290600101906020018083116106e457829003601f168201915b505050505081525050815260200190600101906102c4565b50505050905090565b6000600160003373ffffffffffffffffffffffffffffffffffffffff1673ffffffffffffffffffffffffffffffffffffffff16815260200190815260200160002060008373ffffffffffffffffffffffffffffffffffffffff1673ffffffffffffffffffffffffffffffffffffffff16815260200190815260200160002060006101000a81548160ff02191690831515021790555050565b60603373ffffffffffffffffffffffffffffffffffffffff168273ffffffffffffffffffffffffffffffffffffffff1614806107fc57506107fb82336101d0565b5b61083b576040517f08c379a000000000000000000000000000000000000000000000000000000000815260040161083290611625565b60405180910390fd5b6000808373ffffffffffffffffffffffffffffffffffffffff1673ffffffffffffffffffffffffffffffffffffffff168152602001908152602001600020805480602002602001604051908101604052809291908181526020016000905b82821015610cee5783829060005260206000209060090201604051806101200160405290816000820180546108cd90611597565b80601f01602080910402602001604051908101604052809291908181526020018280546108f990611597565b80156109465780601f1061091b57610100808354040283529160200191610946565b820191906000526020600020905b81548152906001019060200180831161092957829003601f168201915b5050505050815260200160018201805461095f90611597565b80601f016020809104026020016040519081016040528092919081815260200182805461098b90611597565b80156109d85780601f106109ad576101008083540402835291602001916109d8565b820191906000526020600020905b8154815290600101906020018083116109bb57829003601f168201915b505050505081526020016002820180546109f190611597565b80601f0160208091040260200160405190810160405280929190818152602001828054610a1d90611597565b8015610a6a5780601f10610a3f57610100808354040283529160200191610a6a565b820191906000526020600020905b815481529060010190602001808311610a4d57829003601f168201915b505050505081526020016003820160009054906101000a900473ffffffffffffffffffffffffffffffffffffffff1673ffffffffffffffffffffffffffffffffffffffff1673ffffffffffffffffffffffffffffffffffffffff1681526020016004820160009054906101000a900473ffffffffffffffffffffffffffffffffffffffff1673ffffffffffffffffffffffffffffffffffffffff1673ffffffffffffffffffffffffffffffffffffffff16815260200160058201548152602001600682018054610b3990611597565b80601f0160208091040260200160405190810160405280929190818152602001828054610b6590611597565b8015610bb25780601f10610b8757610100808354040283529160200191610bb2565b820191906000526020600020905b815481529060010190602001808311610b9557829003601f168201915b50505050508152602001600782018054610bcb90611597565b80601f0160208091040260200160405190810160405280929190818152602001828054610bf790611597565b8015610c445780601f10610c1957610100808354040283529160200191610c44565b820191906000526020600020905b815481529060010190602001808311610c2757829003601f168201915b50505050508152602001600882018054610c5d90611597565b80601f0160208091040260200160405190810160405280929190818152602001828054610c8990611597565b8015610cd65780601f10610cab57610100808354040283529160200191610cd6565b820191906000526020600020905b815481529060010190602001808311610cb957829003601f168201915b50505050508152505081526020019060010190610899565b505050509050919050565b60006040518061012001604052808b81526020018a81526020018981526020018873ffffffffffffffffffffffffffffffffffffffff1681526020018773ffffffffffffffffffffffffffffffffffffffff1681526020018681526020018581526020018481526020018381525090506000803373ffffffffffffffffffffffffffffffffffffffff1673ffffffffffffffffffffffffffffffffffffffff1681526020019081526020016000208190806001815401808255809150506001900390600052602060002090600902016000909190919091506000820151816000019081610de691906117f1565b506020820151816001019081610dfc91906117f1565b506040820151816002019081610e1291906117f1565b5060608201518160030160006101000a81548173ffffffffffffffffffffffffffffffffffffffff021916908373ffffffffffffffffffffffffffffffffffffffff16021790555060808201518160040160006101000a81548173ffffffffffffffffffffffffffffffffffffffff021916908373ffffffffffffffffffffffffffffffffffffffff16021790555060a0820151816005015560c0820151816006019081610ec091906117f1565b5060e0820151816007019081610ed691906117f1565b50610100820151816008019081610eed91906117f1565b50505050505050505050505050565b6000604051905090565b600080fd5b600080fd5b600073ffffffffffffffffffffffffffffffffffffffff82169050919050565b6000610f3b82610f10565b9050919050565b610f4b81610f30565b8114610f5657600080fd5b50565b600081359050610f6881610f42565b92915050565b600060208284031215610f8457610f83610f06565b5b6000610f9284828501610f59565b91505092915050565b60008060408385031215610fb257610fb1610f06565b5b6000610fc085828601610f59565b9250506020610fd185828601610f59565b9150509250929050565b60008115159050919050565b610ff081610fdb565b82525050565b600060208201905061100b6000830184610fe7565b92915050565b600081519050919050565b600082825260208201905092915050565b6000819050602082019050919050565b600081519050919050565b600082825260208201905092915050565b60005b8381101561107757808201518184015260208101905061105c565b60008484015250505050565b6000601f19601f8301169050919050565b600061109f8261103d565b6110a98185611048565b93506110b9818560208601611059565b6110c281611083565b840191505092915050565b6110d681610f30565b82525050565b6000819050919050565b6110ef816110dc565b82525050565b60006101208301600083015184820360008601526111138282611094565b9150506020830151848203602086015261112d8282611094565b915050604083015184820360408601526111478282611094565b915050606083015161115c60608601826110cd565b50608083015161116f60808601826110cd565b5060a083015161118260a08601826110e6565b5060c083015184820360c086015261119a8282611094565b91505060e083015184820360e08601526111b48282611094565b9150506101008301518482036101008601526111d08282611094565b9150508091505092915050565b60006111e983836110f5565b905092915050565b6000602082019050919050565b600061120982611011565b611213818561101c565b9350836020820285016112258561102d565b8060005b85811015611261578484038952815161124285826111dd565b945061124d836111f1565b925060208a01995050600181019050611229565b50829750879550505050505092915050565b6000602082019050818103600083015261128d81846111fe565b905092915050565b600080fd5b600080fd5b7f4e487b7100000000000000000000000000000000000000000000000000000000600052604160045260246000fd5b6112d782611083565b810181811067ffffffffffffffff821117156112f6576112f561129f565b5b80604052505050565b6000611309610efc565b905061131582826112ce565b919050565b600067ffffffffffffffff8211156113355761133461129f565b5b61133e82611083565b9050602081019050919050565b82818337600083830152505050565b600061136d6113688461131a565b6112ff565b9050828152602081018484840111156113895761138861129a565b5b61139484828561134b565b509392505050565b600082601f8301126113b1576113b0611295565b5b81356113c184826020860161135a565b91505092915050565b6113d3816110dc565b81146113de57600080fd5b50565b6000813590506113f0816113ca565b92915050565b60008060008060008060008060006101208a8c03121561141957611418610f06565b5b60008a013567ffffffffffffffff81111561143757611436610f0b565b5b6114438c828d0161139c565b99505060208a013567ffffffffffffffff81111561146457611463610f0b565b5b6114708c828d0161139c565b98505060408a013567ffffffffffffffff81111561149157611490610f0b565b5b61149d8c828d0161139c565b97505060606114ae8c828d01610f59565b96505060806114bf8c828d01610f59565b95505060a06114d08c828d016113e1565b94505060c08a013567ffffffffffffffff8111156114f1576114f0610f0b565b5b6114fd8c828d0161139c565b93505060e08a013567ffffffffffffffff81111561151e5761151d610f0b565b5b61152a8c828d0161139c565b9250506101008a013567ffffffffffffffff81111561154c5761154b610f0b565b5b6115588c828d0161139c565b9150509295985092959850929598565b7f4e487b7100000000000000000000000000000000000000000000000000000000600052602260045260246000fd5b600060028204905060018216806115af57607f821691505b6020821081036115c2576115c1611568565b5b50919050565b600082825260208201905092915050565b7f4e6f7420617574686f72697a656420746f2076696577207265636f7264730000600082015250565b600061160f601e836115c8565b915061161a826115d9565b602082019050919050565b6000602082019050818103600083015261163e81611602565b9050919050565b60008190508160005260206000209050919050565b60006020601f8301049050919050565b600082821b905092915050565b6000600883026116a77fffffffffffffffffffffffffffffffffffffffffffffffffffffffffffffffff8261166a565b6116b1868361166a565b95508019841693508086168417925050509392505050565b6000819050919050565b60006116ee6116e96116e4846110dc565b6116c9565b6110dc565b9050919050565b6000819050919050565b611708836116d3565b61171c611714826116f5565b848454611677565b825550505050565b600090565b611731611724565b61173c8184846116ff565b505050565b5b8181101561176057611755600082611729565b600181019050611742565b5050565b601f8211156117a55761177681611645565b61177f8461165a565b8101602085101561178e578190505b6117a261179a8561165a565b830182611741565b50505b505050565b600082821c905092915050565b60006117c8600019846008026117aa565b1980831691505092915050565b60006117e183836117b7565b9150826002028217905092915050565b6117fa8261103d565b67ffffffffffffffff8111156118135761181261129f565b5b61181d8254611597565b611828828285611764565b600060209050601f83116001811461185b5760008415611849578287015190505b61185385826117d5565b8655506118bb565b601f19841661186986611645565b60005b828110156118915784890151825560018201915060208501945060208101905061186c565b868310156118ae57848901516118aa601f8916826117b7565b8355505b6001600288020188555050505b50505050505056fea264697066735822122098598e05529510445c37399b09447e77209e39cc2e1ee62c48c0dd219c3a2e8064736f6c63430008130033",
  "immutableReferences": {},
  "source": "// SPDX-License-Identifier: MIT\npragma solidity ^0.8.19;\n\ncontract record2 {\n    struct Record {\n        string recordId;\n        string patientName;\n        string doctorName;\n        address doctorAddress;\n        address patientAddress;\n        uint256 age;\n        string gender;\n        string bloodgroup;\n        string cid;\n    }\n    mapping(address => Record[]) private records;\n    mapping(address => mapping(address => bool)) private doctorPermissions;\n\n    function createEHR2(\n        string memory _recordId,\n        string memory _patientName,\n        string memory _doctorName,\n        address _doctorAddress,\n        address _patientAddress,\n        uint256 _age,\n        string memory _gender,\n        string memory _bloodgroup,\n        string memory _cid\n    ) public {\n        Record memory newRecord = Record(\n            _recordId,\n            _patientName,\n            _doctorName,\n            _doctorAddress,\n            _patientAddress,\n            _age,\n            _gender,\n            _bloodgroup,\n            _cid\n        );\n        records[msg.sender].push(newRecord);\n    }\n\n    function getRecords() public view returns (Record[] memory) {\n        return records[msg.sender];\n    }\n\n    function grantPermission(address doctorAddress) public {\n        doctorPermissions[msg.sender][doctorAddress] = true;\n    }\n\n    function revokePermission(address doctorAddress) public {\n        doctorPermissions[msg.sender][doctorAddress] = false;\n    }\n\n    function canViewRecord(\n        address patientAddress,\n        address doctorAddress\n    ) public view returns (bool) {\n        return doctorPermissions[patientAddress][doctorAddress];\n    }\n\n    function viewRecord(\n        address patientAddress\n    ) public view returns (Record[] memory) {\n        require(\n            patientAddress == msg.sender ||\n                canViewRecord(patientAddress, msg.sender),\n            \"Not authorized to view records\"\n        );\n        return records[patientAddress];\n    }\n}\n",
  "sourcePath": "/Users/sonupradhan/Desktop/EHR/src/contracts/record2.sol",
  "compiler": {
    "name": "solc",
    "version": "0.8.19+commit.7dd6d404.Emscripten.clang"
  },
  "schemaVersion": "3.4.16",
  "updatedAt": "2024-04-21T16:18:16.515Z",
  "devdoc": {
    "kind": "dev",
    "methods": {},
    "version": 1
  },
  "userdoc": {
    "kind": "user",
    "methods": {},
    "version": 1
  }
}